{
  "abi": [
    {
      "inputs": [
        {
          "internalType": "string",
          "name": "name_",
          "type": "string"
        },
        {
          "internalType": "string",
          "name": "symbol_",
          "type": "string"
        }
      ],
      "stateMutability": "nonpayable",
      "type": "constructor"
    },
    {
      "anonymous": false,
      "inputs": [
        {
          "indexed": true,
          "internalType": "address",
          "name": "owner",
          "type": "address"
        },
        {
          "indexed": true,
          "internalType": "address",
          "name": "approved",
          "type": "address"
        },
        {
          "indexed": true,
          "internalType": "uint256",
          "name": "tokenId",
          "type": "uint256"
        }
      ],
      "name": "Approval",
      "type": "event"
    },
    {
      "anonymous": false,
      "inputs": [
        {
          "indexed": true,
          "internalType": "address",
          "name": "owner",
          "type": "address"
        },
        {
          "indexed": true,
          "internalType": "address",
          "name": "operator",
          "type": "address"
        },
        {
          "indexed": false,
          "internalType": "bool",
          "name": "approved",
          "type": "bool"
        }
      ],
      "name": "ApprovalForAll",
      "type": "event"
    },
    {
      "anonymous": false,
      "inputs": [
        {
          "indexed": true,
          "internalType": "address",
          "name": "previousOwner",
          "type": "address"
        },
        {
          "indexed": true,
          "internalType": "address",
          "name": "newOwner",
          "type": "address"
        }
      ],
      "name": "OwnershipTransferred",
      "type": "event"
    },
    {
      "anonymous": false,
      "inputs": [
        {
          "indexed": true,
          "internalType": "address",
          "name": "from",
          "type": "address"
        },
        {
          "indexed": true,
          "internalType": "address",
          "name": "to",
          "type": "address"
        },
        {
          "indexed": true,
          "internalType": "uint256",
          "name": "tokenId",
          "type": "uint256"
        }
      ],
      "name": "Transfer",
      "type": "event"
    },
    {
      "inputs": [
        {
          "internalType": "address",
          "name": "to",
          "type": "address"
        },
        {
          "internalType": "uint256",
          "name": "tokenId",
          "type": "uint256"
        }
      ],
      "name": "approve",
      "outputs": [],
      "stateMutability": "nonpayable",
      "type": "function"
    },
    {
      "inputs": [
        {
          "internalType": "address",
          "name": "owner",
          "type": "address"
        }
      ],
      "name": "balanceOf",
      "outputs": [
        {
          "internalType": "uint256",
          "name": "",
          "type": "uint256"
        }
      ],
      "stateMutability": "view",
      "type": "function"
    },
    {
      "inputs": [],
      "name": "baseURI",
      "outputs": [
        {
          "internalType": "string",
          "name": "",
          "type": "string"
        }
      ],
      "stateMutability": "view",
      "type": "function"
    },
    {
      "inputs": [
        {
          "internalType": "uint256",
          "name": "tokenId",
          "type": "uint256"
        }
      ],
      "name": "exists",
      "outputs": [
        {
          "internalType": "bool",
          "name": "",
          "type": "bool"
        }
      ],
      "stateMutability": "view",
      "type": "function"
    },
    {
      "inputs": [
        {
          "internalType": "uint256",
          "name": "tokenId",
          "type": "uint256"
        }
      ],
      "name": "getApproved",
      "outputs": [
        {
          "internalType": "address",
          "name": "",
          "type": "address"
        }
      ],
      "stateMutability": "view",
      "type": "function"
    },
    {
      "inputs": [
        {
          "internalType": "address",
          "name": "owner",
          "type": "address"
        },
        {
          "internalType": "address",
          "name": "operator",
          "type": "address"
        }
      ],
      "name": "isApprovedForAll",
      "outputs": [
        {
          "internalType": "bool",
          "name": "",
          "type": "bool"
        }
      ],
      "stateMutability": "view",
      "type": "function"
    },
    {
      "inputs": [],
      "name": "name",
      "outputs": [
        {
          "internalType": "string",
          "name": "",
          "type": "string"
        }
      ],
      "stateMutability": "view",
      "type": "function"
    },
    {
      "inputs": [],
      "name": "nextOwnerToExplicitlySet",
      "outputs": [
        {
          "internalType": "uint256",
          "name": "",
          "type": "uint256"
        }
      ],
      "stateMutability": "view",
      "type": "function"
    },
    {
      "inputs": [
        {
          "internalType": "address",
          "name": "owner",
          "type": "address"
        }
      ],
      "name": "numberMinted",
      "outputs": [
        {
          "internalType": "uint256",
          "name": "",
          "type": "uint256"
        }
      ],
      "stateMutability": "view",
      "type": "function"
    },
    {
      "inputs": [],
      "name": "owner",
      "outputs": [
        {
          "internalType": "address",
          "name": "",
          "type": "address"
        }
      ],
      "stateMutability": "view",
      "type": "function"
    },
    {
      "inputs": [
        {
          "internalType": "uint256",
          "name": "tokenId",
          "type": "uint256"
        }
      ],
      "name": "ownerOf",
      "outputs": [
        {
          "internalType": "address",
          "name": "",
          "type": "address"
        }
      ],
      "stateMutability": "view",
      "type": "function"
    },
    {
      "inputs": [],
      "name": "renounceOwnership",
      "outputs": [],
      "stateMutability": "nonpayable",
      "type": "function"
    },
    {
      "inputs": [
        {
          "internalType": "address",
          "name": "to",
          "type": "address"
        },
        {
          "internalType": "uint256",
          "name": "quantity",
          "type": "uint256"
        },
        {
          "internalType": "bytes",
          "name": "_data",
          "type": "bytes"
        }
      ],
      "name": "safeMint",
      "outputs": [],
      "stateMutability": "payable",
      "type": "function"
    },
    {
      "inputs": [
        {
          "internalType": "address",
          "name": "to",
          "type": "address"
        },
        {
          "internalType": "uint256",
          "name": "quantity",
          "type": "uint256"
        }
      ],
      "name": "safeMint",
      "outputs": [],
      "stateMutability": "payable",
      "type": "function"
    },
    {
      "inputs": [
        {
          "internalType": "address",
          "name": "from",
          "type": "address"
        },
        {
          "internalType": "address",
          "name": "to",
          "type": "address"
        },
        {
          "internalType": "uint256",
          "name": "tokenId",
          "type": "uint256"
        }
      ],
      "name": "safeTransferFrom",
      "outputs": [],
      "stateMutability": "nonpayable",
      "type": "function"
    },
    {
      "inputs": [
        {
          "internalType": "address",
          "name": "from",
          "type": "address"
        },
        {
          "internalType": "address",
          "name": "to",
          "type": "address"
        },
        {
          "internalType": "uint256",
          "name": "tokenId",
          "type": "uint256"
        },
        {
          "internalType": "bytes",
          "name": "_data",
          "type": "bytes"
        }
      ],
      "name": "safeTransferFrom",
      "outputs": [],
      "stateMutability": "nonpayable",
      "type": "function"
    },
    {
      "inputs": [
        {
          "internalType": "address",
          "name": "operator",
          "type": "address"
        },
        {
          "internalType": "bool",
          "name": "approved",
          "type": "bool"
        }
      ],
      "name": "setApprovalForAll",
      "outputs": [],
      "stateMutability": "nonpayable",
      "type": "function"
    },
    {
      "inputs": [
        {
          "internalType": "uint256",
          "name": "quantity",
          "type": "uint256"
        }
      ],
      "name": "setOwnersExplicit",
      "outputs": [],
      "stateMutability": "nonpayable",
      "type": "function"
    },
    {
      "inputs": [
        {
          "internalType": "bytes4",
          "name": "interfaceId",
          "type": "bytes4"
        }
      ],
      "name": "supportsInterface",
      "outputs": [
        {
          "internalType": "bool",
          "name": "",
          "type": "bool"
        }
      ],
      "stateMutability": "view",
      "type": "function"
    },
    {
      "inputs": [],
      "name": "symbol",
      "outputs": [
        {
          "internalType": "string",
          "name": "",
          "type": "string"
        }
      ],
      "stateMutability": "view",
      "type": "function"
    },
    {
      "inputs": [
        {
          "internalType": "uint256",
          "name": "index",
          "type": "uint256"
        }
      ],
      "name": "tokenByIndex",
      "outputs": [
        {
          "internalType": "uint256",
          "name": "",
          "type": "uint256"
        }
      ],
      "stateMutability": "view",
      "type": "function"
    },
    {
      "inputs": [
        {
          "internalType": "address",
          "name": "owner",
          "type": "address"
        },
        {
          "internalType": "uint256",
          "name": "index",
          "type": "uint256"
        }
      ],
      "name": "tokenOfOwnerByIndex",
      "outputs": [
        {
          "internalType": "uint256",
          "name": "",
          "type": "uint256"
        }
      ],
      "stateMutability": "view",
      "type": "function"
    },
    {
      "inputs": [
        {
          "internalType": "uint256",
          "name": "tokenId",
          "type": "uint256"
        }
      ],
      "name": "tokenURI",
      "outputs": [
        {
          "internalType": "string",
          "name": "",
          "type": "string"
        }
      ],
      "stateMutability": "view",
      "type": "function"
    },
    {
      "inputs": [],
      "name": "totalSupply",
      "outputs": [
        {
          "internalType": "uint256",
          "name": "",
          "type": "uint256"
        }
      ],
      "stateMutability": "view",
      "type": "function"
    },
    {
      "inputs": [
        {
          "internalType": "address",
          "name": "from",
          "type": "address"
        },
        {
          "internalType": "address",
          "name": "to",
          "type": "address"
        },
        {
          "internalType": "uint256",
          "name": "tokenId",
          "type": "uint256"
        }
      ],
      "name": "transferFrom",
      "outputs": [],
      "stateMutability": "nonpayable",
      "type": "function"
    },
    {
      "inputs": [
        {
          "internalType": "address",
          "name": "newOwner",
          "type": "address"
        }
      ],
      "name": "transferOwnership",
      "outputs": [],
      "stateMutability": "nonpayable",
      "type": "function"
    }
  ],
  "bytecode": "6101006040526000808055600855601e608052600a60a052600260c05267016345785d8a000060e0523480156200003557600080fd5b50604051620024e5380380620024e5833981016040819052620000589162000275565b8151829082906200007190600190602085019062000102565b5080516200008790600290602084019062000102565b505050620000a46200009e620000ac60201b60201c565b620000b0565b50506200031c565b3390565b600780546001600160a01b038381166001600160a01b0319831681179093556040519116919082907f8be0079c531659141344cd1fd0a4f28419497f9722a3daafe3b4186f6b6457e090600090a35050565b8280546200011090620002df565b90600052602060002090601f0160209004810192826200013457600085556200017f565b82601f106200014f57805160ff19168380011785556200017f565b828001600101855582156200017f579182015b828111156200017f57825182559160200191906001019062000162565b506200018d92915062000191565b5090565b5b808211156200018d576000815560010162000192565b634e487b7160e01b600052604160045260246000fd5b600082601f830112620001d057600080fd5b81516001600160401b0380821115620001ed57620001ed620001a8565b604051601f8301601f19908116603f01168101908282118183101715620002185762000218620001a8565b816040528381526020925086838588010111156200023557600080fd5b600091505b838210156200025957858201830151818301840152908201906200023a565b838211156200026b5760008385830101525b9695505050505050565b600080604083850312156200028957600080fd5b82516001600160401b0380821115620002a157600080fd5b620002af86838701620001be565b93506020850151915080821115620002c657600080fd5b50620002d585828601620001be565b9150509250929050565b600181811c90821680620002f457607f821691505b602082108114156200031657634e487b7160e01b600052602260045260246000fd5b50919050565b60805160a05160c05160e05161217d6200036860003960008181610b600152610c6b01526000505060008181610af00152610bfb015260008181610aa60152610bb1015261217d6000f3fe6080604052600436106101815760003560e01c806370a08231116100d1578063a22cb4651161008a578063d7224ba011610064578063d7224ba014610439578063dc33e6811461044f578063e985e9c51461046f578063f2fde38b146104b857600080fd5b8063a22cb465146103d9578063b88d4fde146103f9578063c87b56dd1461041957600080fd5b806370a082311461034b578063715018a61461036b5780638832e6e3146103805780638da5cb5b1461039357806395d89b41146103b1578063a1448194146103c657600080fd5b80632d20fb601161013e5780634f558e79116101185780634f558e79146102d65780634f6ccce7146102f65780636352211e146103165780636c0360eb1461033657600080fd5b80632d20fb60146102765780632f745c591461029657806342842e0e146102b657600080fd5b806301ffc9a71461018657806306fdde03146101bb578063081812fc146101dd578063095ea7b31461021557806318160ddd1461023757806323b872dd14610256575b600080fd5b34801561019257600080fd5b506101a66101a1366004611b72565b6104d8565b60405190151581526020015b60405180910390f35b3480156101c757600080fd5b506101d0610545565b6040516101b29190611be7565b3480156101e957600080fd5b506101fd6101f8366004611bfa565b6105d7565b6040516001600160a01b0390911681526020016101b2565b34801561022157600080fd5b50610235610230366004611c2f565b610667565b005b34801561024357600080fd5b506000545b6040519081526020016101b2565b34801561026257600080fd5b50610235610271366004611c59565b61077f565b34801561028257600080fd5b50610235610291366004611bfa565b61078a565b3480156102a257600080fd5b506102486102b1366004611c2f565b6107c0565b3480156102c257600080fd5b506102356102d1366004611c59565b61092e565b3480156102e257600080fd5b506101a66102f1366004611bfa565b610949565b34801561030257600080fd5b50610248610311366004611bfa565b610956565b34801561032257600080fd5b506101fd610331366004611bfa565b6109b8565b34801561034257600080fd5b506101d06109ca565b34801561035757600080fd5b50610248610366366004611c95565b6109d9565b34801561037757600080fd5b50610235610a6a565b61023561038e366004611d53565b610aa0565b34801561039f57600080fd5b506007546001600160a01b03166101fd565b3480156103bd57600080fd5b506101d0610b9c565b6102356103d4366004611c2f565b610bab565b3480156103e557600080fd5b506102356103f4366004611daa565b610ca0565b34801561040557600080fd5b50610235610414366004611de6565b610d65565b34801561042557600080fd5b506101d0610434366004611bfa565b610d98565b34801561044557600080fd5b5061024860085481565b34801561045b57600080fd5b5061024861046a366004611c95565b610e65565b34801561047b57600080fd5b506101a661048a366004611e4e565b6001600160a01b03918216600090815260066020908152604080832093909416825291909152205460ff1690565b3480156104c457600080fd5b506102356104d3366004611c95565b610e70565b60006001600160e01b031982166380ac58cd60e01b148061050957506001600160e01b03198216635b5e139f60e01b145b8061052457506001600160e01b0319821663780e9d6360e01b145b8061053f57506301ffc9a760e01b6001600160e01b03198316145b92915050565b60606001805461055490611e81565b80601f016020809104026020016040519081016040528092919081815260200182805461058090611e81565b80156105cd5780601f106105a2576101008083540402835291602001916105cd565b820191906000526020600020905b8154815290600101906020018083116105b057829003601f168201915b5050505050905090565b60006105e4826000541190565b61064b5760405162461bcd60e51b815260206004820152602d60248201527f455243373231413a20617070726f76656420717565727920666f72206e6f6e6560448201526c3c34b9ba32b73a103a37b5b2b760991b60648201526084015b60405180910390fd5b506000908152600560205260409020546001600160a01b031690565b6000610672826109b8565b9050806001600160a01b0316836001600160a01b031614156106e15760405162461bcd60e51b815260206004820152602260248201527f455243373231413a20617070726f76616c20746f2063757272656e74206f776e60448201526132b960f11b6064820152608401610642565b336001600160a01b03821614806106fd57506106fd813361048a565b61076f5760405162461bcd60e51b815260206004820152603960248201527f455243373231413a20617070726f76652063616c6c6572206973206e6f74206f60448201527f776e6572206e6f7220617070726f76656420666f7220616c6c000000000000006064820152608401610642565b61077a838383610f08565b505050565b61077a838383610f64565b6007546001600160a01b031633146107b45760405162461bcd60e51b815260040161064290611ebc565b6107bd816112ab565b50565b60006107cb836109d9565b82106108245760405162461bcd60e51b815260206004820152602260248201527f455243373231413a206f776e657220696e646578206f7574206f6620626f756e604482015261647360f01b6064820152608401610642565b600080549080805b838110156108ce576000818152600360209081526040918290208251808401909352546001600160a01b038116808452600160a01b90910467ffffffffffffffff16918301919091521561087f57805192505b876001600160a01b0316836001600160a01b031614156108bb57868414156108ad5750935061053f92505050565b836108b781611f07565b9450505b50806108c681611f07565b91505061082c565b5060405162461bcd60e51b815260206004820152602e60248201527f455243373231413a20756e61626c6520746f2067657420746f6b656e206f662060448201526d0deeedccae440c4f240d2dcc8caf60931b6064820152608401610642565b61077a83838360405180602001604052806000815250610d65565b600061053f826000541190565b6000805482106109b45760405162461bcd60e51b815260206004820152602360248201527f455243373231413a20676c6f62616c20696e646578206f7574206f6620626f756044820152626e647360e81b6064820152608401610642565b5090565b60006109c382611495565b5192915050565b60606109d4611575565b905090565b60006001600160a01b038216610a455760405162461bcd60e51b815260206004820152602b60248201527f455243373231413a2062616c616e636520717565727920666f7220746865207a60448201526a65726f206164647265737360a81b6064820152608401610642565b506001600160a01b03166000908152600460205260409020546001600160801b031690565b6007546001600160a01b03163314610a945760405162461bcd60e51b815260040161064290611ebc565b610a9e6000611595565b565b816000547f0000000000000000000000000000000000000000000000000000000000000000610acf9190611f22565b811115610aee5760405162461bcd60e51b815260040161064290611f39565b7f0000000000000000000000000000000000000000000000000000000000000000811115610b5e5760405162461bcd60e51b815260206004820152601f60248201527f4d696e74207175616e746974792065786365656473206d6178206261746368006044820152606401610642565b7f0000000000000000000000000000000000000000000000000000000000000000341015610b8b57600080fd5b610b968484846115e7565b50505050565b60606002805461055490611e81565b806000547f0000000000000000000000000000000000000000000000000000000000000000610bda9190611f22565b811115610bf95760405162461bcd60e51b815260040161064290611f39565b7f0000000000000000000000000000000000000000000000000000000000000000811115610c695760405162461bcd60e51b815260206004820152601f60248201527f4d696e74207175616e746974792065786365656473206d6178206261746368006044820152606401610642565b7f0000000000000000000000000000000000000000000000000000000000000000341015610c9657600080fd5b61077a83836118a3565b6001600160a01b038216331415610cf95760405162461bcd60e51b815260206004820152601a60248201527f455243373231413a20617070726f766520746f2063616c6c65720000000000006044820152606401610642565b3360008181526006602090815260408083206001600160a01b03871680855290835292819020805460ff191686151590811790915590519081529192917f17307eab39ab6107e8899845ad3d59bd9653f200f220920489ca2b5937696c31910160405180910390a35050565b610d70848484610f64565b610d7c848484846118c1565b610b965760405162461bcd60e51b815260040161064290611f7d565b6060610da5826000541190565b610e095760405162461bcd60e51b815260206004820152602f60248201527f4552433732314d657461646174613a2055524920717565727920666f72206e6f60448201526e3732bc34b9ba32b73a103a37b5b2b760891b6064820152608401610642565b6000610e13611575565b90506000815111610e335760405180602001604052806000815250610e5e565b80610e3d846119c0565b604051602001610e4e929190611fd0565b6040516020818303038152906040525b9392505050565b600061053f82611abe565b6007546001600160a01b03163314610e9a5760405162461bcd60e51b815260040161064290611ebc565b6001600160a01b038116610eff5760405162461bcd60e51b815260206004820152602660248201527f4f776e61626c653a206e6577206f776e657220697320746865207a65726f206160448201526564647265737360d01b6064820152608401610642565b6107bd81611595565b60008281526005602052604080822080546001600160a01b0319166001600160a01b0387811691821790925591518593918516917f8c5be1e5ebec7d5bd14f71427d1e84f3dd0314c0f7b2291e5b200ac8c7c3b92591a4505050565b6000610f6f82611495565b80519091506000906001600160a01b0316336001600160a01b03161480610fa6575033610f9b846105d7565b6001600160a01b0316145b80610fb857508151610fb8903361048a565b9050806110225760405162461bcd60e51b815260206004820152603260248201527f455243373231413a207472616e736665722063616c6c6572206973206e6f74206044820152711bdddb995c881b9bdc88185c1c1c9bdd995960721b6064820152608401610642565b846001600160a01b031682600001516001600160a01b0316146110965760405162461bcd60e51b815260206004820152602660248201527f455243373231413a207472616e736665722066726f6d20696e636f72726563746044820152651037bbb732b960d11b6064820152608401610642565b6001600160a01b0384166110fa5760405162461bcd60e51b815260206004820152602560248201527f455243373231413a207472616e7366657220746f20746865207a65726f206164604482015264647265737360d81b6064820152608401610642565b61110a6000848460000151610f08565b6001600160a01b03858116600090815260046020908152604080832080546fffffffffffffffffffffffffffffffff198082166001600160801b03928316600019018316179092558986168086528386208054938416938316600190810190931693909317909255825180840184529182524267ffffffffffffffff9081168386019081528a8752600390955292852091518254945196166001600160e01b031990941693909317600160a01b959092169490940217909255906111cf908590611fff565b6000818152600360205260409020549091506001600160a01b0316611261576111f9816000541190565b156112615760408051808201825284516001600160a01b03908116825260208087015167ffffffffffffffff9081168285019081526000878152600390935294909120925183549451909116600160a01b026001600160e01b03199094169116179190911790555b83856001600160a01b0316876001600160a01b03167fddf252ad1be2c89b69c2b068fc378daa952ba7f163c4a11628f55a4df523b3ef60405160405180910390a45b505050505050565b600081116112fb5760405162461bcd60e51b815260206004820152601860248201527f7175616e74697479206d757374206265206e6f6e7a65726f00000000000000006044820152606401610642565b60008054116113435760405162461bcd60e51b81526020600482015260146024820152731b9bc81d1bdad95b9cc81b5a5b9d1959081e595d60621b6044820152606401610642565b600054600854106113965760405162461bcd60e51b815260206004820152601c60248201527f616c6c206f776e657273686970732068617665206265656e20736574000000006044820152606401610642565b600854600060016113a78484611fff565b6113b19190611f22565b905060016000546113c29190611f22565b8111156113db5760016000546113d89190611f22565b90505b815b818111611481576000818152600360205260409020546001600160a01b031661146f57600061140b82611495565b60408051808201825282516001600160a01b03908116825260209384015167ffffffffffffffff9081168584019081526000888152600390965293909420915182549351909416600160a01b026001600160e01b0319909316931692909217179055505b8061147981611f07565b9150506113dd565b5061148d816001611fff565b600855505050565b60408051808201909152600080825260208201526114b4826000541190565b6115135760405162461bcd60e51b815260206004820152602a60248201527f455243373231413a206f776e657220717565727920666f72206e6f6e657869736044820152693a32b73a103a37b5b2b760b11b6064820152608401610642565b815b6000818152600360209081526040918290208251808401909352546001600160a01b038116808452600160a01b90910467ffffffffffffffff169183019190915215611562579392505050565b508061156d81612017565b915050611515565b60606040518060800160405280604981526020016120ff60499139905090565b600780546001600160a01b038381166001600160a01b0319831681179093556040519116919082907f8be0079c531659141344cd1fd0a4f28419497f9722a3daafe3b4186f6b6457e090600090a35050565b6000546001600160a01b03841661164a5760405162461bcd60e51b815260206004820152602160248201527f455243373231413a206d696e7420746f20746865207a65726f206164647265736044820152607360f81b6064820152608401610642565b611655816000541190565b156116a25760405162461bcd60e51b815260206004820152601d60248201527f455243373231413a20746f6b656e20616c7265616479206d696e7465640000006044820152606401610642565b600083116116fe5760405162461bcd60e51b815260206004820152602360248201527f455243373231413a207175616e74697479206d7573742062652067726561746560448201526207220360ec1b6064820152608401610642565b6001600160a01b0384166000908152600460209081526040918290208251808401845290546001600160801b038082168352600160801b909104169181019190915281518083019092528051909190819061175a90879061202e565b6001600160801b03168152602001858360200151611778919061202e565b6001600160801b039081169091526001600160a01b0380881660008181526004602090815260408083208751978301518716600160801b0297909616969096179094558451808601865291825267ffffffffffffffff4281168386019081528883526003909552948120915182549451909516600160a01b026001600160e01b031990941694909216939093179190911790915582905b858110156118985760405182906001600160a01b038916906000907fddf252ad1be2c89b69c2b068fc378daa952ba7f163c4a11628f55a4df523b3ef908290a461185c60008884886118c1565b6118785760405162461bcd60e51b815260040161064290611f7d565b8161188281611f07565b925050808061189090611f07565b91505061180f565b5060008190556112a3565b6118bd8282604051806020016040528060008152506115e7565b5050565b60006001600160a01b0384163b156119b457604051630a85bd0160e11b81526001600160a01b0385169063150b7a0290611905903390899088908890600401612050565b6020604051808303816000875af1925050508015611940575060408051601f3d908101601f1916820190925261193d9181019061208d565b60015b61199a573d80801561196e576040519150601f19603f3d011682016040523d82523d6000602084013e611973565b606091505b5080516119925760405162461bcd60e51b815260040161064290611f7d565b805181602001fd5b6001600160e01b031916630a85bd0160e11b1490506119b8565b5060015b949350505050565b6060816119e45750506040805180820190915260018152600360fc1b602082015290565b8160005b8115611a0e57806119f881611f07565b9150611a079050600a836120c0565b91506119e8565b60008167ffffffffffffffff811115611a2957611a29611cb0565b6040519080825280601f01601f191660200182016040528015611a53576020820181803683370190505b5090505b84156119b857611a68600183611f22565b9150611a75600a866120d4565b611a80906030611fff565b60f81b818381518110611a9557611a956120e8565b60200101906001600160f81b031916908160001a905350611ab7600a866120c0565b9450611a57565b60006001600160a01b038216611b305760405162461bcd60e51b815260206004820152603160248201527f455243373231413a206e756d626572206d696e74656420717565727920666f7260448201527020746865207a65726f206164647265737360781b6064820152608401610642565b506001600160a01b0316600090815260046020526040902054600160801b90046001600160801b031690565b6001600160e01b0319811681146107bd57600080fd5b600060208284031215611b8457600080fd5b8135610e5e81611b5c565b60005b83811015611baa578181015183820152602001611b92565b83811115610b965750506000910152565b60008151808452611bd3816020860160208601611b8f565b601f01601f19169290920160200192915050565b602081526000610e5e6020830184611bbb565b600060208284031215611c0c57600080fd5b5035919050565b80356001600160a01b0381168114611c2a57600080fd5b919050565b60008060408385031215611c4257600080fd5b611c4b83611c13565b946020939093013593505050565b600080600060608486031215611c6e57600080fd5b611c7784611c13565b9250611c8560208501611c13565b9150604084013590509250925092565b600060208284031215611ca757600080fd5b610e5e82611c13565b634e487b7160e01b600052604160045260246000fd5b600082601f830112611cd757600080fd5b813567ffffffffffffffff80821115611cf257611cf2611cb0565b604051601f8301601f19908116603f01168101908282118183101715611d1a57611d1a611cb0565b81604052838152866020858801011115611d3357600080fd5b836020870160208301376000602085830101528094505050505092915050565b600080600060608486031215611d6857600080fd5b611d7184611c13565b925060208401359150604084013567ffffffffffffffff811115611d9457600080fd5b611da086828701611cc6565b9150509250925092565b60008060408385031215611dbd57600080fd5b611dc683611c13565b915060208301358015158114611ddb57600080fd5b809150509250929050565b60008060008060808587031215611dfc57600080fd5b611e0585611c13565b9350611e1360208601611c13565b925060408501359150606085013567ffffffffffffffff811115611e3657600080fd5b611e4287828801611cc6565b91505092959194509250565b60008060408385031215611e6157600080fd5b611e6a83611c13565b9150611e7860208401611c13565b90509250929050565b600181811c90821680611e9557607f821691505b60208210811415611eb657634e487b7160e01b600052602260045260246000fd5b50919050565b6020808252818101527f4f776e61626c653a2063616c6c6572206973206e6f7420746865206f776e6572604082015260600190565b634e487b7160e01b600052601160045260246000fd5b6000600019821415611f1b57611f1b611ef1565b5060010190565b600082821015611f3457611f34611ef1565b500390565b60208082526024908201527f4d696e74207175616e746974792077696c6c20657863656564206d617820737560408201526370706c7960e01b606082015260800190565b60208082526033908201527f455243373231413a207472616e7366657220746f206e6f6e204552433732315260408201527232b1b2b4bb32b91034b6b83632b6b2b73a32b960691b606082015260800190565b60008351611fe2818460208801611b8f565b835190830190611ff6818360208801611b8f565b01949350505050565b6000821982111561201257612012611ef1565b500190565b60008161202657612026611ef1565b506000190190565b60006001600160801b03808316818516808303821115611ff657611ff6611ef1565b6001600160a01b038581168252841660208201526040810183905260806060820181905260009061208390830184611bbb565b9695505050505050565b60006020828403121561209f57600080fd5b8151610e5e81611b5c565b634e487b7160e01b600052601260045260246000fd5b6000826120cf576120cf6120aa565b500490565b6000826120e3576120e36120aa565b500690565b634e487b7160e01b600052603260045260246000fdfe68747470733a2f2f697066732e696f2f697066732f516d58757847323152744562676139786b336332616e63556e517632447070556e79456636587a45424764395a502f332e6a7067a2646970667358221220d6b71d4cfddaf4004b5ce09d99ed4f3dc8fc1eed9b9d68f52e93bd0ad3f7df0164736f6c634300080b0033",
  "bytecodeSha1": "9823835857ae206fc5d3c1deb0e5de117c020ff9",
  "compiler": {
    "evm_version": "istanbul",
    "optimizer": {
      "enabled": true,
      "runs": 200
    },
    "version": "0.8.11+commit.d7f03943"
  },
  "contractName": "AvvenireCollection",
  "language": "Solidity",
  "natspec": {
    "kind": "dev",
    "methods": {
      "approve(address,uint256)": {
        "details": "See {IERC721-approve}."
      },
      "balanceOf(address)": {
        "details": "See {IERC721-balanceOf}."
      },
      "getApproved(uint256)": {
        "details": "See {IERC721-getApproved}."
      },
      "isApprovedForAll(address,address)": {
        "details": "See {IERC721-isApprovedForAll}."
      },
      "name()": {
        "details": "See {IERC721Metadata-name}."
      },
      "owner()": {
        "details": "Returns the address of the current owner."
      },
      "ownerOf(uint256)": {
        "details": "See {IERC721-ownerOf}."
      },
      "renounceOwnership()": {
        "details": "Leaves the contract without owner. It will not be possible to call `onlyOwner` functions anymore. Can only be called by the current owner. NOTE: Renouncing ownership will leave the contract without an owner, thereby removing any functionality that is only available to the owner."
      },
      "safeMint(address,uint256)": {
        "details": "see ERC721A. Added properMint modifier"
      },
      "safeMint(address,uint256,bytes)": {
        "details": "see ERC721A. Added properMint modifier"
      },
      "safeTransferFrom(address,address,uint256)": {
        "details": "See {IERC721-safeTransferFrom}."
      },
      "safeTransferFrom(address,address,uint256,bytes)": {
        "details": "See {IERC721-safeTransferFrom}."
      },
      "setApprovalForAll(address,bool)": {
        "details": "See {IERC721-setApprovalForAll}."
      },
      "setOwnersExplicit(uint256)": {
        "details": "see ERC721AOwnersExplicit.sol and ERC721A.sol function _setOwnersExplicit() adds addresses to blank spots in _addressData mapping this subsequently eliminates the loops in the ownerOf() function"
      },
      "supportsInterface(bytes4)": {
        "details": "See {IERC165-supportsInterface}."
      },
      "symbol()": {
        "details": "See {IERC721Metadata-symbol}."
      },
      "tokenByIndex(uint256)": {
        "details": "See {IERC721Enumerable-tokenByIndex}."
      },
      "tokenOfOwnerByIndex(address,uint256)": {
        "details": "See {IERC721Enumerable-tokenOfOwnerByIndex}. This read function is O(totalSupply). If calling from a separate contract, be sure to test gas first. It may also degrade with extremely large collection sizes (e.g >> 10000), test for your use case."
      },
      "tokenURI(uint256)": {
        "details": "See {IERC721Metadata-tokenURI}."
      },
      "totalSupply()": {
        "details": "See {IERC721Enumerable-totalSupply}."
      },
      "transferFrom(address,address,uint256)": {
        "details": "See {IERC721-transferFrom}."
      },
      "transferOwnership(address)": {
        "details": "Transfers ownership of the contract to a new account (`newOwner`). Can only be called by the current owner."
      }
    },
    "stateVariables": {
      "maxSupply": {
        "details": "Initialized over set in constructor. Optimizes on gas Max supply eventually needs to be set to 10000..."
      }
    },
    "version": 1
  },
  "opcodes": "PUSH1 0x80 PUSH1 0x40 MSTORE PUSH1 0x4 CALLDATASIZE LT PUSH2 0x181 JUMPI PUSH1 0x0 CALLDATALOAD PUSH1 0xE0 SHR DUP1 PUSH4 0x70A08231 GT PUSH2 0xD1 JUMPI DUP1 PUSH4 0xA22CB465 GT PUSH2 0x8A JUMPI DUP1 PUSH4 0xD7224BA0 GT PUSH2 0x64 JUMPI DUP1 PUSH4 0xD7224BA0 EQ PUSH2 0x439 JUMPI DUP1 PUSH4 0xDC33E681 EQ PUSH2 0x44F JUMPI DUP1 PUSH4 0xE985E9C5 EQ PUSH2 0x46F JUMPI DUP1 PUSH4 0xF2FDE38B EQ PUSH2 0x4B8 JUMPI PUSH1 0x0 DUP1 REVERT JUMPDEST DUP1 PUSH4 0xA22CB465 EQ PUSH2 0x3D9 JUMPI DUP1 PUSH4 0xB88D4FDE EQ PUSH2 0x3F9 JUMPI DUP1 PUSH4 0xC87B56DD EQ PUSH2 0x419 JUMPI PUSH1 0x0 DUP1 REVERT JUMPDEST DUP1 PUSH4 0x70A08231 EQ PUSH2 0x34B JUMPI DUP1 PUSH4 0x715018A6 EQ PUSH2 0x36B JUMPI DUP1 PUSH4 0x8832E6E3 EQ PUSH2 0x380 JUMPI DUP1 PUSH4 0x8DA5CB5B EQ PUSH2 0x393 JUMPI DUP1 PUSH4 0x95D89B41 EQ PUSH2 0x3B1 JUMPI DUP1 PUSH4 0xA1448194 EQ PUSH2 0x3C6 JUMPI PUSH1 0x0 DUP1 REVERT JUMPDEST DUP1 PUSH4 0x2D20FB60 GT PUSH2 0x13E JUMPI DUP1 PUSH4 0x4F558E79 GT PUSH2 0x118 JUMPI DUP1 PUSH4 0x4F558E79 EQ PUSH2 0x2D6 JUMPI DUP1 PUSH4 0x4F6CCCE7 EQ PUSH2 0x2F6 JUMPI DUP1 PUSH4 0x6352211E EQ PUSH2 0x316 JUMPI DUP1 PUSH4 0x6C0360EB EQ PUSH2 0x336 JUMPI PUSH1 0x0 DUP1 REVERT JUMPDEST DUP1 PUSH4 0x2D20FB60 EQ PUSH2 0x276 JUMPI DUP1 PUSH4 0x2F745C59 EQ PUSH2 0x296 JUMPI DUP1 PUSH4 0x42842E0E EQ PUSH2 0x2B6 JUMPI PUSH1 0x0 DUP1 REVERT JUMPDEST DUP1 PUSH4 0x1FFC9A7 EQ PUSH2 0x186 JUMPI DUP1 PUSH4 0x6FDDE03 EQ PUSH2 0x1BB JUMPI DUP1 PUSH4 0x81812FC EQ PUSH2 0x1DD JUMPI DUP1 PUSH4 0x95EA7B3 EQ PUSH2 0x215 JUMPI DUP1 PUSH4 0x18160DDD EQ PUSH2 0x237 JUMPI DUP1 PUSH4 0x23B872DD EQ PUSH2 0x256 JUMPI JUMPDEST PUSH1 0x0 DUP1 REVERT JUMPDEST CALLVALUE DUP1 ISZERO PUSH2 0x192 JUMPI PUSH1 0x0 DUP1 REVERT JUMPDEST POP PUSH2 0x1A6 PUSH2 0x1A1 CALLDATASIZE PUSH1 0x4 PUSH2 0x1B72 JUMP JUMPDEST PUSH2 0x4D8 JUMP JUMPDEST PUSH1 0x40 MLOAD SWAP1 ISZERO ISZERO DUP2 MSTORE PUSH1 0x20 ADD JUMPDEST PUSH1 0x40 MLOAD DUP1 SWAP2 SUB SWAP1 RETURN JUMPDEST CALLVALUE DUP1 ISZERO PUSH2 0x1C7 JUMPI PUSH1 0x0 DUP1 REVERT JUMPDEST POP PUSH2 0x1D0 PUSH2 0x545 JUMP JUMPDEST PUSH1 0x40 MLOAD PUSH2 0x1B2 SWAP2 SWAP1 PUSH2 0x1BE7 JUMP JUMPDEST CALLVALUE DUP1 ISZERO PUSH2 0x1E9 JUMPI PUSH1 0x0 DUP1 REVERT JUMPDEST POP PUSH2 0x1FD PUSH2 0x1F8 CALLDATASIZE PUSH1 0x4 PUSH2 0x1BFA JUMP JUMPDEST PUSH2 0x5D7 JUMP JUMPDEST PUSH1 0x40 MLOAD PUSH1 0x1 PUSH1 0x1 PUSH1 0xA0 SHL SUB SWAP1 SWAP2 AND DUP2 MSTORE PUSH1 0x20 ADD PUSH2 0x1B2 JUMP JUMPDEST CALLVALUE DUP1 ISZERO PUSH2 0x221 JUMPI PUSH1 0x0 DUP1 REVERT JUMPDEST POP PUSH2 0x235 PUSH2 0x230 CALLDATASIZE PUSH1 0x4 PUSH2 0x1C2F JUMP JUMPDEST PUSH2 0x667 JUMP JUMPDEST STOP JUMPDEST CALLVALUE DUP1 ISZERO PUSH2 0x243 JUMPI PUSH1 0x0 DUP1 REVERT JUMPDEST POP PUSH1 0x0 SLOAD JUMPDEST PUSH1 0x40 MLOAD SWAP1 DUP2 MSTORE PUSH1 0x20 ADD PUSH2 0x1B2 JUMP JUMPDEST CALLVALUE DUP1 ISZERO PUSH2 0x262 JUMPI PUSH1 0x0 DUP1 REVERT JUMPDEST POP PUSH2 0x235 PUSH2 0x271 CALLDATASIZE PUSH1 0x4 PUSH2 0x1C59 JUMP JUMPDEST PUSH2 0x77F JUMP JUMPDEST CALLVALUE DUP1 ISZERO PUSH2 0x282 JUMPI PUSH1 0x0 DUP1 REVERT JUMPDEST POP PUSH2 0x235 PUSH2 0x291 CALLDATASIZE PUSH1 0x4 PUSH2 0x1BFA JUMP JUMPDEST PUSH2 0x78A JUMP JUMPDEST CALLVALUE DUP1 ISZERO PUSH2 0x2A2 JUMPI PUSH1 0x0 DUP1 REVERT JUMPDEST POP PUSH2 0x248 PUSH2 0x2B1 CALLDATASIZE PUSH1 0x4 PUSH2 0x1C2F JUMP JUMPDEST PUSH2 0x7C0 JUMP JUMPDEST CALLVALUE DUP1 ISZERO PUSH2 0x2C2 JUMPI PUSH1 0x0 DUP1 REVERT JUMPDEST POP PUSH2 0x235 PUSH2 0x2D1 CALLDATASIZE PUSH1 0x4 PUSH2 0x1C59 JUMP JUMPDEST PUSH2 0x92E JUMP JUMPDEST CALLVALUE DUP1 ISZERO PUSH2 0x2E2 JUMPI PUSH1 0x0 DUP1 REVERT JUMPDEST POP PUSH2 0x1A6 PUSH2 0x2F1 CALLDATASIZE PUSH1 0x4 PUSH2 0x1BFA JUMP JUMPDEST PUSH2 0x949 JUMP JUMPDEST CALLVALUE DUP1 ISZERO PUSH2 0x302 JUMPI PUSH1 0x0 DUP1 REVERT JUMPDEST POP PUSH2 0x248 PUSH2 0x311 CALLDATASIZE PUSH1 0x4 PUSH2 0x1BFA JUMP JUMPDEST PUSH2 0x956 JUMP JUMPDEST CALLVALUE DUP1 ISZERO PUSH2 0x322 JUMPI PUSH1 0x0 DUP1 REVERT JUMPDEST POP PUSH2 0x1FD PUSH2 0x331 CALLDATASIZE PUSH1 0x4 PUSH2 0x1BFA JUMP JUMPDEST PUSH2 0x9B8 JUMP JUMPDEST CALLVALUE DUP1 ISZERO PUSH2 0x342 JUMPI PUSH1 0x0 DUP1 REVERT JUMPDEST POP PUSH2 0x1D0 PUSH2 0x9CA JUMP JUMPDEST CALLVALUE DUP1 ISZERO PUSH2 0x357 JUMPI PUSH1 0x0 DUP1 REVERT JUMPDEST POP PUSH2 0x248 PUSH2 0x366 CALLDATASIZE PUSH1 0x4 PUSH2 0x1C95 JUMP JUMPDEST PUSH2 0x9D9 JUMP JUMPDEST CALLVALUE DUP1 ISZERO PUSH2 0x377 JUMPI PUSH1 0x0 DUP1 REVERT JUMPDEST POP PUSH2 0x235 PUSH2 0xA6A JUMP JUMPDEST PUSH2 0x235 PUSH2 0x38E CALLDATASIZE PUSH1 0x4 PUSH2 0x1D53 JUMP JUMPDEST PUSH2 0xAA0 JUMP JUMPDEST CALLVALUE DUP1 ISZERO PUSH2 0x39F JUMPI PUSH1 0x0 DUP1 REVERT JUMPDEST POP PUSH1 0x7 SLOAD PUSH1 0x1 PUSH1 0x1 PUSH1 0xA0 SHL SUB AND PUSH2 0x1FD JUMP JUMPDEST CALLVALUE DUP1 ISZERO PUSH2 0x3BD JUMPI PUSH1 0x0 DUP1 REVERT JUMPDEST POP PUSH2 0x1D0 PUSH2 0xB9C JUMP JUMPDEST PUSH2 0x235 PUSH2 0x3D4 CALLDATASIZE PUSH1 0x4 PUSH2 0x1C2F JUMP JUMPDEST PUSH2 0xBAB JUMP JUMPDEST CALLVALUE DUP1 ISZERO PUSH2 0x3E5 JUMPI PUSH1 0x0 DUP1 REVERT JUMPDEST POP PUSH2 0x235 PUSH2 0x3F4 CALLDATASIZE PUSH1 0x4 PUSH2 0x1DAA JUMP JUMPDEST PUSH2 0xCA0 JUMP JUMPDEST CALLVALUE DUP1 ISZERO PUSH2 0x405 JUMPI PUSH1 0x0 DUP1 REVERT JUMPDEST POP PUSH2 0x235 PUSH2 0x414 CALLDATASIZE PUSH1 0x4 PUSH2 0x1DE6 JUMP JUMPDEST PUSH2 0xD65 JUMP JUMPDEST CALLVALUE DUP1 ISZERO PUSH2 0x425 JUMPI PUSH1 0x0 DUP1 REVERT JUMPDEST POP PUSH2 0x1D0 PUSH2 0x434 CALLDATASIZE PUSH1 0x4 PUSH2 0x1BFA JUMP JUMPDEST PUSH2 0xD98 JUMP JUMPDEST CALLVALUE DUP1 ISZERO PUSH2 0x445 JUMPI PUSH1 0x0 DUP1 REVERT JUMPDEST POP PUSH2 0x248 PUSH1 0x8 SLOAD DUP2 JUMP JUMPDEST CALLVALUE DUP1 ISZERO PUSH2 0x45B JUMPI PUSH1 0x0 DUP1 REVERT JUMPDEST POP PUSH2 0x248 PUSH2 0x46A CALLDATASIZE PUSH1 0x4 PUSH2 0x1C95 JUMP JUMPDEST PUSH2 0xE65 JUMP JUMPDEST CALLVALUE DUP1 ISZERO PUSH2 0x47B JUMPI PUSH1 0x0 DUP1 REVERT JUMPDEST POP PUSH2 0x1A6 PUSH2 0x48A CALLDATASIZE PUSH1 0x4 PUSH2 0x1E4E JUMP JUMPDEST PUSH1 0x1 PUSH1 0x1 PUSH1 0xA0 SHL SUB SWAP2 DUP3 AND PUSH1 0x0 SWAP1 DUP2 MSTORE PUSH1 0x6 PUSH1 0x20 SWAP1 DUP2 MSTORE PUSH1 0x40 DUP1 DUP4 KECCAK256 SWAP4 SWAP1 SWAP5 AND DUP3 MSTORE SWAP2 SWAP1 SWAP2 MSTORE KECCAK256 SLOAD PUSH1 0xFF AND SWAP1 JUMP JUMPDEST CALLVALUE DUP1 ISZERO PUSH2 0x4C4 JUMPI PUSH1 0x0 DUP1 REVERT JUMPDEST POP PUSH2 0x235 PUSH2 0x4D3 CALLDATASIZE PUSH1 0x4 PUSH2 0x1C95 JUMP JUMPDEST PUSH2 0xE70 JUMP JUMPDEST PUSH1 0x0 PUSH1 0x1 PUSH1 0x1 PUSH1 0xE0 SHL SUB NOT DUP3 AND PUSH4 0x80AC58CD PUSH1 0xE0 SHL EQ DUP1 PUSH2 0x509 JUMPI POP PUSH1 0x1 PUSH1 0x1 PUSH1 0xE0 SHL SUB NOT DUP3 AND PUSH4 0x5B5E139F PUSH1 0xE0 SHL EQ JUMPDEST DUP1 PUSH2 0x524 JUMPI POP PUSH1 0x1 PUSH1 0x1 PUSH1 0xE0 SHL SUB NOT DUP3 AND PUSH4 0x780E9D63 PUSH1 0xE0 SHL EQ JUMPDEST DUP1 PUSH2 0x53F JUMPI POP PUSH4 0x1FFC9A7 PUSH1 0xE0 SHL PUSH1 0x1 PUSH1 0x1 PUSH1 0xE0 SHL SUB NOT DUP4 AND EQ JUMPDEST SWAP3 SWAP2 POP POP JUMP JUMPDEST PUSH1 0x60 PUSH1 0x1 DUP1 SLOAD PUSH2 0x554 SWAP1 PUSH2 0x1E81 JUMP JUMPDEST DUP1 PUSH1 0x1F ADD PUSH1 0x20 DUP1 SWAP2 DIV MUL PUSH1 0x20 ADD PUSH1 0x40 MLOAD SWAP1 DUP2 ADD PUSH1 0x40 MSTORE DUP1 SWAP3 SWAP2 SWAP1 DUP2 DUP2 MSTORE PUSH1 0x20 ADD DUP3 DUP1 SLOAD PUSH2 0x580 SWAP1 PUSH2 0x1E81 JUMP JUMPDEST DUP1 ISZERO PUSH2 0x5CD JUMPI DUP1 PUSH1 0x1F LT PUSH2 0x5A2 JUMPI PUSH2 0x100 DUP1 DUP4 SLOAD DIV MUL DUP4 MSTORE SWAP2 PUSH1 0x20 ADD SWAP2 PUSH2 0x5CD JUMP JUMPDEST DUP3 ADD SWAP2 SWAP1 PUSH1 0x0 MSTORE PUSH1 0x20 PUSH1 0x0 KECCAK256 SWAP1 JUMPDEST DUP2 SLOAD DUP2 MSTORE SWAP1 PUSH1 0x1 ADD SWAP1 PUSH1 0x20 ADD DUP1 DUP4 GT PUSH2 0x5B0 JUMPI DUP3 SWAP1 SUB PUSH1 0x1F AND DUP3 ADD SWAP2 JUMPDEST POP POP POP POP POP SWAP1 POP SWAP1 JUMP JUMPDEST PUSH1 0x0 PUSH2 0x5E4 DUP3 PUSH1 0x0 SLOAD GT SWAP1 JUMP JUMPDEST PUSH2 0x64B JUMPI PUSH1 0x40 MLOAD PUSH3 0x461BCD PUSH1 0xE5 SHL DUP2 MSTORE PUSH1 0x20 PUSH1 0x4 DUP3 ADD MSTORE PUSH1 0x2D PUSH1 0x24 DUP3 ADD MSTORE PUSH32 0x455243373231413A20617070726F76656420717565727920666F72206E6F6E65 PUSH1 0x44 DUP3 ADD MSTORE PUSH13 0x3C34B9BA32B73A103A37B5B2B7 PUSH1 0x99 SHL PUSH1 0x64 DUP3 ADD MSTORE PUSH1 0x84 ADD JUMPDEST PUSH1 0x40 MLOAD DUP1 SWAP2 SUB SWAP1 REVERT JUMPDEST POP PUSH1 0x0 SWAP1 DUP2 MSTORE PUSH1 0x5 PUSH1 0x20 MSTORE PUSH1 0x40 SWAP1 KECCAK256 SLOAD PUSH1 0x1 PUSH1 0x1 PUSH1 0xA0 SHL SUB AND SWAP1 JUMP JUMPDEST PUSH1 0x0 PUSH2 0x672 DUP3 PUSH2 0x9B8 JUMP JUMPDEST SWAP1 POP DUP1 PUSH1 0x1 PUSH1 0x1 PUSH1 0xA0 SHL SUB AND DUP4 PUSH1 0x1 PUSH1 0x1 PUSH1 0xA0 SHL SUB AND EQ ISZERO PUSH2 0x6E1 JUMPI PUSH1 0x40 MLOAD PUSH3 0x461BCD PUSH1 0xE5 SHL DUP2 MSTORE PUSH1 0x20 PUSH1 0x4 DUP3 ADD MSTORE PUSH1 0x22 PUSH1 0x24 DUP3 ADD MSTORE PUSH32 0x455243373231413A20617070726F76616C20746F2063757272656E74206F776E PUSH1 0x44 DUP3 ADD MSTORE PUSH2 0x32B9 PUSH1 0xF1 SHL PUSH1 0x64 DUP3 ADD MSTORE PUSH1 0x84 ADD PUSH2 0x642 JUMP JUMPDEST CALLER PUSH1 0x1 PUSH1 0x1 PUSH1 0xA0 SHL SUB DUP3 AND EQ DUP1 PUSH2 0x6FD JUMPI POP PUSH2 0x6FD DUP2 CALLER PUSH2 0x48A JUMP JUMPDEST PUSH2 0x76F JUMPI PUSH1 0x40 MLOAD PUSH3 0x461BCD PUSH1 0xE5 SHL DUP2 MSTORE PUSH1 0x20 PUSH1 0x4 DUP3 ADD MSTORE PUSH1 0x39 PUSH1 0x24 DUP3 ADD MSTORE PUSH32 0x455243373231413A20617070726F76652063616C6C6572206973206E6F74206F PUSH1 0x44 DUP3 ADD MSTORE PUSH32 0x776E6572206E6F7220617070726F76656420666F7220616C6C00000000000000 PUSH1 0x64 DUP3 ADD MSTORE PUSH1 0x84 ADD PUSH2 0x642 JUMP JUMPDEST PUSH2 0x77A DUP4 DUP4 DUP4 PUSH2 0xF08 JUMP JUMPDEST POP POP POP JUMP JUMPDEST PUSH2 0x77A DUP4 DUP4 DUP4 PUSH2 0xF64 JUMP JUMPDEST PUSH1 0x7 SLOAD PUSH1 0x1 PUSH1 0x1 PUSH1 0xA0 SHL SUB AND CALLER EQ PUSH2 0x7B4 JUMPI PUSH1 0x40 MLOAD PUSH3 0x461BCD PUSH1 0xE5 SHL DUP2 MSTORE PUSH1 0x4 ADD PUSH2 0x642 SWAP1 PUSH2 0x1EBC JUMP JUMPDEST PUSH2 0x7BD DUP2 PUSH2 0x12AB JUMP JUMPDEST POP JUMP JUMPDEST PUSH1 0x0 PUSH2 0x7CB DUP4 PUSH2 0x9D9 JUMP JUMPDEST DUP3 LT PUSH2 0x824 JUMPI PUSH1 0x40 MLOAD PUSH3 0x461BCD PUSH1 0xE5 SHL DUP2 MSTORE PUSH1 0x20 PUSH1 0x4 DUP3 ADD MSTORE PUSH1 0x22 PUSH1 0x24 DUP3 ADD MSTORE PUSH32 0x455243373231413A206F776E657220696E646578206F7574206F6620626F756E PUSH1 0x44 DUP3 ADD MSTORE PUSH2 0x6473 PUSH1 0xF0 SHL PUSH1 0x64 DUP3 ADD MSTORE PUSH1 0x84 ADD PUSH2 0x642 JUMP JUMPDEST PUSH1 0x0 DUP1 SLOAD SWAP1 DUP1 DUP1 JUMPDEST DUP4 DUP2 LT ISZERO PUSH2 0x8CE JUMPI PUSH1 0x0 DUP2 DUP2 MSTORE PUSH1 0x3 PUSH1 0x20 SWAP1 DUP2 MSTORE PUSH1 0x40 SWAP2 DUP3 SWAP1 KECCAK256 DUP3 MLOAD DUP1 DUP5 ADD SWAP1 SWAP4 MSTORE SLOAD PUSH1 0x1 PUSH1 0x1 PUSH1 0xA0 SHL SUB DUP2 AND DUP1 DUP5 MSTORE PUSH1 0x1 PUSH1 0xA0 SHL SWAP1 SWAP2 DIV PUSH8 0xFFFFFFFFFFFFFFFF AND SWAP2 DUP4 ADD SWAP2 SWAP1 SWAP2 MSTORE ISZERO PUSH2 0x87F JUMPI DUP1 MLOAD SWAP3 POP JUMPDEST DUP8 PUSH1 0x1 PUSH1 0x1 PUSH1 0xA0 SHL SUB AND DUP4 PUSH1 0x1 PUSH1 0x1 PUSH1 0xA0 SHL SUB AND EQ ISZERO PUSH2 0x8BB JUMPI DUP7 DUP5 EQ ISZERO PUSH2 0x8AD JUMPI POP SWAP4 POP PUSH2 0x53F SWAP3 POP POP POP JUMP JUMPDEST DUP4 PUSH2 0x8B7 DUP2 PUSH2 0x1F07 JUMP JUMPDEST SWAP5 POP POP JUMPDEST POP DUP1 PUSH2 0x8C6 DUP2 PUSH2 0x1F07 JUMP JUMPDEST SWAP2 POP POP PUSH2 0x82C JUMP JUMPDEST POP PUSH1 0x40 MLOAD PUSH3 0x461BCD PUSH1 0xE5 SHL DUP2 MSTORE PUSH1 0x20 PUSH1 0x4 DUP3 ADD MSTORE PUSH1 0x2E PUSH1 0x24 DUP3 ADD MSTORE PUSH32 0x455243373231413A20756E61626C6520746F2067657420746F6B656E206F6620 PUSH1 0x44 DUP3 ADD MSTORE PUSH14 0xDEEEDCCAE440C4F240D2DCC8CAF PUSH1 0x93 SHL PUSH1 0x64 DUP3 ADD MSTORE PUSH1 0x84 ADD PUSH2 0x642 JUMP JUMPDEST PUSH2 0x77A DUP4 DUP4 DUP4 PUSH1 0x40 MLOAD DUP1 PUSH1 0x20 ADD PUSH1 0x40 MSTORE DUP1 PUSH1 0x0 DUP2 MSTORE POP PUSH2 0xD65 JUMP JUMPDEST PUSH1 0x0 PUSH2 0x53F DUP3 PUSH1 0x0 SLOAD GT SWAP1 JUMP JUMPDEST PUSH1 0x0 DUP1 SLOAD DUP3 LT PUSH2 0x9B4 JUMPI PUSH1 0x40 MLOAD PUSH3 0x461BCD PUSH1 0xE5 SHL DUP2 MSTORE PUSH1 0x20 PUSH1 0x4 DUP3 ADD MSTORE PUSH1 0x23 PUSH1 0x24 DUP3 ADD MSTORE PUSH32 0x455243373231413A20676C6F62616C20696E646578206F7574206F6620626F75 PUSH1 0x44 DUP3 ADD MSTORE PUSH3 0x6E6473 PUSH1 0xE8 SHL PUSH1 0x64 DUP3 ADD MSTORE PUSH1 0x84 ADD PUSH2 0x642 JUMP JUMPDEST POP SWAP1 JUMP JUMPDEST PUSH1 0x0 PUSH2 0x9C3 DUP3 PUSH2 0x1495 JUMP JUMPDEST MLOAD SWAP3 SWAP2 POP POP JUMP JUMPDEST PUSH1 0x60 PUSH2 0x9D4 PUSH2 0x1575 JUMP JUMPDEST SWAP1 POP SWAP1 JUMP JUMPDEST PUSH1 0x0 PUSH1 0x1 PUSH1 0x1 PUSH1 0xA0 SHL SUB DUP3 AND PUSH2 0xA45 JUMPI PUSH1 0x40 MLOAD PUSH3 0x461BCD PUSH1 0xE5 SHL DUP2 MSTORE PUSH1 0x20 PUSH1 0x4 DUP3 ADD MSTORE PUSH1 0x2B PUSH1 0x24 DUP3 ADD MSTORE PUSH32 0x455243373231413A2062616C616E636520717565727920666F7220746865207A PUSH1 0x44 DUP3 ADD MSTORE PUSH11 0x65726F2061646472657373 PUSH1 0xA8 SHL PUSH1 0x64 DUP3 ADD MSTORE PUSH1 0x84 ADD PUSH2 0x642 JUMP JUMPDEST POP PUSH1 0x1 PUSH1 0x1 PUSH1 0xA0 SHL SUB AND PUSH1 0x0 SWAP1 DUP2 MSTORE PUSH1 0x4 PUSH1 0x20 MSTORE PUSH1 0x40 SWAP1 KECCAK256 SLOAD PUSH1 0x1 PUSH1 0x1 PUSH1 0x80 SHL SUB AND SWAP1 JUMP JUMPDEST PUSH1 0x7 SLOAD PUSH1 0x1 PUSH1 0x1 PUSH1 0xA0 SHL SUB AND CALLER EQ PUSH2 0xA94 JUMPI PUSH1 0x40 MLOAD PUSH3 0x461BCD PUSH1 0xE5 SHL DUP2 MSTORE PUSH1 0x4 ADD PUSH2 0x642 SWAP1 PUSH2 0x1EBC JUMP JUMPDEST PUSH2 0xA9E PUSH1 0x0 PUSH2 0x1595 JUMP JUMPDEST JUMP JUMPDEST DUP2 PUSH1 0x0 SLOAD PUSH32 0x0 PUSH2 0xACF SWAP2 SWAP1 PUSH2 0x1F22 JUMP JUMPDEST DUP2 GT ISZERO PUSH2 0xAEE JUMPI PUSH1 0x40 MLOAD PUSH3 0x461BCD PUSH1 0xE5 SHL DUP2 MSTORE PUSH1 0x4 ADD PUSH2 0x642 SWAP1 PUSH2 0x1F39 JUMP JUMPDEST PUSH32 0x0 DUP2 GT ISZERO PUSH2 0xB5E JUMPI PUSH1 0x40 MLOAD PUSH3 0x461BCD PUSH1 0xE5 SHL DUP2 MSTORE PUSH1 0x20 PUSH1 0x4 DUP3 ADD MSTORE PUSH1 0x1F PUSH1 0x24 DUP3 ADD MSTORE PUSH32 0x4D696E74207175616E746974792065786365656473206D617820626174636800 PUSH1 0x44 DUP3 ADD MSTORE PUSH1 0x64 ADD PUSH2 0x642 JUMP JUMPDEST PUSH32 0x0 CALLVALUE LT ISZERO PUSH2 0xB8B JUMPI PUSH1 0x0 DUP1 REVERT JUMPDEST PUSH2 0xB96 DUP5 DUP5 DUP5 PUSH2 0x15E7 JUMP JUMPDEST POP POP POP POP JUMP JUMPDEST PUSH1 0x60 PUSH1 0x2 DUP1 SLOAD PUSH2 0x554 SWAP1 PUSH2 0x1E81 JUMP JUMPDEST DUP1 PUSH1 0x0 SLOAD PUSH32 0x0 PUSH2 0xBDA SWAP2 SWAP1 PUSH2 0x1F22 JUMP JUMPDEST DUP2 GT ISZERO PUSH2 0xBF9 JUMPI PUSH1 0x40 MLOAD PUSH3 0x461BCD PUSH1 0xE5 SHL DUP2 MSTORE PUSH1 0x4 ADD PUSH2 0x642 SWAP1 PUSH2 0x1F39 JUMP JUMPDEST PUSH32 0x0 DUP2 GT ISZERO PUSH2 0xC69 JUMPI PUSH1 0x40 MLOAD PUSH3 0x461BCD PUSH1 0xE5 SHL DUP2 MSTORE PUSH1 0x20 PUSH1 0x4 DUP3 ADD MSTORE PUSH1 0x1F PUSH1 0x24 DUP3 ADD MSTORE PUSH32 0x4D696E74207175616E746974792065786365656473206D617820626174636800 PUSH1 0x44 DUP3 ADD MSTORE PUSH1 0x64 ADD PUSH2 0x642 JUMP JUMPDEST PUSH32 0x0 CALLVALUE LT ISZERO PUSH2 0xC96 JUMPI PUSH1 0x0 DUP1 REVERT JUMPDEST PUSH2 0x77A DUP4 DUP4 PUSH2 0x18A3 JUMP JUMPDEST PUSH1 0x1 PUSH1 0x1 PUSH1 0xA0 SHL SUB DUP3 AND CALLER EQ ISZERO PUSH2 0xCF9 JUMPI PUSH1 0x40 MLOAD PUSH3 0x461BCD PUSH1 0xE5 SHL DUP2 MSTORE PUSH1 0x20 PUSH1 0x4 DUP3 ADD MSTORE PUSH1 0x1A PUSH1 0x24 DUP3 ADD MSTORE PUSH32 0x455243373231413A20617070726F766520746F2063616C6C6572000000000000 PUSH1 0x44 DUP3 ADD MSTORE PUSH1 0x64 ADD PUSH2 0x642 JUMP JUMPDEST CALLER PUSH1 0x0 DUP2 DUP2 MSTORE PUSH1 0x6 PUSH1 0x20 SWAP1 DUP2 MSTORE PUSH1 0x40 DUP1 DUP4 KECCAK256 PUSH1 0x1 PUSH1 0x1 PUSH1 0xA0 SHL SUB DUP8 AND DUP1 DUP6 MSTORE SWAP1 DUP4 MSTORE SWAP3 DUP2 SWAP1 KECCAK256 DUP1 SLOAD PUSH1 0xFF NOT AND DUP7 ISZERO ISZERO SWAP1 DUP2 OR SWAP1 SWAP2 SSTORE SWAP1 MLOAD SWAP1 DUP2 MSTORE SWAP2 SWAP3 SWAP2 PUSH32 0x17307EAB39AB6107E8899845AD3D59BD9653F200F220920489CA2B5937696C31 SWAP2 ADD PUSH1 0x40 MLOAD DUP1 SWAP2 SUB SWAP1 LOG3 POP POP JUMP JUMPDEST PUSH2 0xD70 DUP5 DUP5 DUP5 PUSH2 0xF64 JUMP JUMPDEST PUSH2 0xD7C DUP5 DUP5 DUP5 DUP5 PUSH2 0x18C1 JUMP JUMPDEST PUSH2 0xB96 JUMPI PUSH1 0x40 MLOAD PUSH3 0x461BCD PUSH1 0xE5 SHL DUP2 MSTORE PUSH1 0x4 ADD PUSH2 0x642 SWAP1 PUSH2 0x1F7D JUMP JUMPDEST PUSH1 0x60 PUSH2 0xDA5 DUP3 PUSH1 0x0 SLOAD GT SWAP1 JUMP JUMPDEST PUSH2 0xE09 JUMPI PUSH1 0x40 MLOAD PUSH3 0x461BCD PUSH1 0xE5 SHL DUP2 MSTORE PUSH1 0x20 PUSH1 0x4 DUP3 ADD MSTORE PUSH1 0x2F PUSH1 0x24 DUP3 ADD MSTORE PUSH32 0x4552433732314D657461646174613A2055524920717565727920666F72206E6F PUSH1 0x44 DUP3 ADD MSTORE PUSH15 0x3732BC34B9BA32B73A103A37B5B2B7 PUSH1 0x89 SHL PUSH1 0x64 DUP3 ADD MSTORE PUSH1 0x84 ADD PUSH2 0x642 JUMP JUMPDEST PUSH1 0x0 PUSH2 0xE13 PUSH2 0x1575 JUMP JUMPDEST SWAP1 POP PUSH1 0x0 DUP2 MLOAD GT PUSH2 0xE33 JUMPI PUSH1 0x40 MLOAD DUP1 PUSH1 0x20 ADD PUSH1 0x40 MSTORE DUP1 PUSH1 0x0 DUP2 MSTORE POP PUSH2 0xE5E JUMP JUMPDEST DUP1 PUSH2 0xE3D DUP5 PUSH2 0x19C0 JUMP JUMPDEST PUSH1 0x40 MLOAD PUSH1 0x20 ADD PUSH2 0xE4E SWAP3 SWAP2 SWAP1 PUSH2 0x1FD0 JUMP JUMPDEST PUSH1 0x40 MLOAD PUSH1 0x20 DUP2 DUP4 SUB SUB DUP2 MSTORE SWAP1 PUSH1 0x40 MSTORE JUMPDEST SWAP4 SWAP3 POP POP POP JUMP JUMPDEST PUSH1 0x0 PUSH2 0x53F DUP3 PUSH2 0x1ABE JUMP JUMPDEST PUSH1 0x7 SLOAD PUSH1 0x1 PUSH1 0x1 PUSH1 0xA0 SHL SUB AND CALLER EQ PUSH2 0xE9A JUMPI PUSH1 0x40 MLOAD PUSH3 0x461BCD PUSH1 0xE5 SHL DUP2 MSTORE PUSH1 0x4 ADD PUSH2 0x642 SWAP1 PUSH2 0x1EBC JUMP JUMPDEST PUSH1 0x1 PUSH1 0x1 PUSH1 0xA0 SHL SUB DUP2 AND PUSH2 0xEFF JUMPI PUSH1 0x40 MLOAD PUSH3 0x461BCD PUSH1 0xE5 SHL DUP2 MSTORE PUSH1 0x20 PUSH1 0x4 DUP3 ADD MSTORE PUSH1 0x26 PUSH1 0x24 DUP3 ADD MSTORE PUSH32 0x4F776E61626C653A206E6577206F776E657220697320746865207A65726F2061 PUSH1 0x44 DUP3 ADD MSTORE PUSH6 0x646472657373 PUSH1 0xD0 SHL PUSH1 0x64 DUP3 ADD MSTORE PUSH1 0x84 ADD PUSH2 0x642 JUMP JUMPDEST PUSH2 0x7BD DUP2 PUSH2 0x1595 JUMP JUMPDEST PUSH1 0x0 DUP3 DUP2 MSTORE PUSH1 0x5 PUSH1 0x20 MSTORE PUSH1 0x40 DUP1 DUP3 KECCAK256 DUP1 SLOAD PUSH1 0x1 PUSH1 0x1 PUSH1 0xA0 SHL SUB NOT AND PUSH1 0x1 PUSH1 0x1 PUSH1 0xA0 SHL SUB DUP8 DUP2 AND SWAP2 DUP3 OR SWAP1 SWAP3 SSTORE SWAP2 MLOAD DUP6 SWAP4 SWAP2 DUP6 AND SWAP2 PUSH32 0x8C5BE1E5EBEC7D5BD14F71427D1E84F3DD0314C0F7B2291E5B200AC8C7C3B925 SWAP2 LOG4 POP POP POP JUMP JUMPDEST PUSH1 0x0 PUSH2 0xF6F DUP3 PUSH2 0x1495 JUMP JUMPDEST DUP1 MLOAD SWAP1 SWAP2 POP PUSH1 0x0 SWAP1 PUSH1 0x1 PUSH1 0x1 PUSH1 0xA0 SHL SUB AND CALLER PUSH1 0x1 PUSH1 0x1 PUSH1 0xA0 SHL SUB AND EQ DUP1 PUSH2 0xFA6 JUMPI POP CALLER PUSH2 0xF9B DUP5 PUSH2 0x5D7 JUMP JUMPDEST PUSH1 0x1 PUSH1 0x1 PUSH1 0xA0 SHL SUB AND EQ JUMPDEST DUP1 PUSH2 0xFB8 JUMPI POP DUP2 MLOAD PUSH2 0xFB8 SWAP1 CALLER PUSH2 0x48A JUMP JUMPDEST SWAP1 POP DUP1 PUSH2 0x1022 JUMPI PUSH1 0x40 MLOAD PUSH3 0x461BCD PUSH1 0xE5 SHL DUP2 MSTORE PUSH1 0x20 PUSH1 0x4 DUP3 ADD MSTORE PUSH1 0x32 PUSH1 0x24 DUP3 ADD MSTORE PUSH32 0x455243373231413A207472616E736665722063616C6C6572206973206E6F7420 PUSH1 0x44 DUP3 ADD MSTORE PUSH18 0x1BDDDB995C881B9BDC88185C1C1C9BDD9959 PUSH1 0x72 SHL PUSH1 0x64 DUP3 ADD MSTORE PUSH1 0x84 ADD PUSH2 0x642 JUMP JUMPDEST DUP5 PUSH1 0x1 PUSH1 0x1 PUSH1 0xA0 SHL SUB AND DUP3 PUSH1 0x0 ADD MLOAD PUSH1 0x1 PUSH1 0x1 PUSH1 0xA0 SHL SUB AND EQ PUSH2 0x1096 JUMPI PUSH1 0x40 MLOAD PUSH3 0x461BCD PUSH1 0xE5 SHL DUP2 MSTORE PUSH1 0x20 PUSH1 0x4 DUP3 ADD MSTORE PUSH1 0x26 PUSH1 0x24 DUP3 ADD MSTORE PUSH32 0x455243373231413A207472616E736665722066726F6D20696E636F7272656374 PUSH1 0x44 DUP3 ADD MSTORE PUSH6 0x1037BBB732B9 PUSH1 0xD1 SHL PUSH1 0x64 DUP3 ADD MSTORE PUSH1 0x84 ADD PUSH2 0x642 JUMP JUMPDEST PUSH1 0x1 PUSH1 0x1 PUSH1 0xA0 SHL SUB DUP5 AND PUSH2 0x10FA JUMPI PUSH1 0x40 MLOAD PUSH3 0x461BCD PUSH1 0xE5 SHL DUP2 MSTORE PUSH1 0x20 PUSH1 0x4 DUP3 ADD MSTORE PUSH1 0x25 PUSH1 0x24 DUP3 ADD MSTORE PUSH32 0x455243373231413A207472616E7366657220746F20746865207A65726F206164 PUSH1 0x44 DUP3 ADD MSTORE PUSH5 0x6472657373 PUSH1 0xD8 SHL PUSH1 0x64 DUP3 ADD MSTORE PUSH1 0x84 ADD PUSH2 0x642 JUMP JUMPDEST PUSH2 0x110A PUSH1 0x0 DUP5 DUP5 PUSH1 0x0 ADD MLOAD PUSH2 0xF08 JUMP JUMPDEST PUSH1 0x1 PUSH1 0x1 PUSH1 0xA0 SHL SUB DUP6 DUP2 AND PUSH1 0x0 SWAP1 DUP2 MSTORE PUSH1 0x4 PUSH1 0x20 SWAP1 DUP2 MSTORE PUSH1 0x40 DUP1 DUP4 KECCAK256 DUP1 SLOAD PUSH16 0xFFFFFFFFFFFFFFFFFFFFFFFFFFFFFFFF NOT DUP1 DUP3 AND PUSH1 0x1 PUSH1 0x1 PUSH1 0x80 SHL SUB SWAP3 DUP4 AND PUSH1 0x0 NOT ADD DUP4 AND OR SWAP1 SWAP3 SSTORE DUP10 DUP7 AND DUP1 DUP7 MSTORE DUP4 DUP7 KECCAK256 DUP1 SLOAD SWAP4 DUP5 AND SWAP4 DUP4 AND PUSH1 0x1 SWAP1 DUP2 ADD SWAP1 SWAP4 AND SWAP4 SWAP1 SWAP4 OR SWAP1 SWAP3 SSTORE DUP3 MLOAD DUP1 DUP5 ADD DUP5 MSTORE SWAP2 DUP3 MSTORE TIMESTAMP PUSH8 0xFFFFFFFFFFFFFFFF SWAP1 DUP2 AND DUP4 DUP7 ADD SWAP1 DUP2 MSTORE DUP11 DUP8 MSTORE PUSH1 0x3 SWAP1 SWAP6 MSTORE SWAP3 DUP6 KECCAK256 SWAP2 MLOAD DUP3 SLOAD SWAP5 MLOAD SWAP7 AND PUSH1 0x1 PUSH1 0x1 PUSH1 0xE0 SHL SUB NOT SWAP1 SWAP5 AND SWAP4 SWAP1 SWAP4 OR PUSH1 0x1 PUSH1 0xA0 SHL SWAP6 SWAP1 SWAP3 AND SWAP5 SWAP1 SWAP5 MUL OR SWAP1 SWAP3 SSTORE SWAP1 PUSH2 0x11CF SWAP1 DUP6 SWAP1 PUSH2 0x1FFF JUMP JUMPDEST PUSH1 0x0 DUP2 DUP2 MSTORE PUSH1 0x3 PUSH1 0x20 MSTORE PUSH1 0x40 SWAP1 KECCAK256 SLOAD SWAP1 SWAP2 POP PUSH1 0x1 PUSH1 0x1 PUSH1 0xA0 SHL SUB AND PUSH2 0x1261 JUMPI PUSH2 0x11F9 DUP2 PUSH1 0x0 SLOAD GT SWAP1 JUMP JUMPDEST ISZERO PUSH2 0x1261 JUMPI PUSH1 0x40 DUP1 MLOAD DUP1 DUP3 ADD DUP3 MSTORE DUP5 MLOAD PUSH1 0x1 PUSH1 0x1 PUSH1 0xA0 SHL SUB SWAP1 DUP2 AND DUP3 MSTORE PUSH1 0x20 DUP1 DUP8 ADD MLOAD PUSH8 0xFFFFFFFFFFFFFFFF SWAP1 DUP2 AND DUP3 DUP6 ADD SWAP1 DUP2 MSTORE PUSH1 0x0 DUP8 DUP2 MSTORE PUSH1 0x3 SWAP1 SWAP4 MSTORE SWAP5 SWAP1 SWAP2 KECCAK256 SWAP3 MLOAD DUP4 SLOAD SWAP5 MLOAD SWAP1 SWAP2 AND PUSH1 0x1 PUSH1 0xA0 SHL MUL PUSH1 0x1 PUSH1 0x1 PUSH1 0xE0 SHL SUB NOT SWAP1 SWAP5 AND SWAP2 AND OR SWAP2 SWAP1 SWAP2 OR SWAP1 SSTORE JUMPDEST DUP4 DUP6 PUSH1 0x1 PUSH1 0x1 PUSH1 0xA0 SHL SUB AND DUP8 PUSH1 0x1 PUSH1 0x1 PUSH1 0xA0 SHL SUB AND PUSH32 0xDDF252AD1BE2C89B69C2B068FC378DAA952BA7F163C4A11628F55A4DF523B3EF PUSH1 0x40 MLOAD PUSH1 0x40 MLOAD DUP1 SWAP2 SUB SWAP1 LOG4 JUMPDEST POP POP POP POP POP POP JUMP JUMPDEST PUSH1 0x0 DUP2 GT PUSH2 0x12FB JUMPI PUSH1 0x40 MLOAD PUSH3 0x461BCD PUSH1 0xE5 SHL DUP2 MSTORE PUSH1 0x20 PUSH1 0x4 DUP3 ADD MSTORE PUSH1 0x18 PUSH1 0x24 DUP3 ADD MSTORE PUSH32 0x7175616E74697479206D757374206265206E6F6E7A65726F0000000000000000 PUSH1 0x44 DUP3 ADD MSTORE PUSH1 0x64 ADD PUSH2 0x642 JUMP JUMPDEST PUSH1 0x0 DUP1 SLOAD GT PUSH2 0x1343 JUMPI PUSH1 0x40 MLOAD PUSH3 0x461BCD PUSH1 0xE5 SHL DUP2 MSTORE PUSH1 0x20 PUSH1 0x4 DUP3 ADD MSTORE PUSH1 0x14 PUSH1 0x24 DUP3 ADD MSTORE PUSH20 0x1B9BC81D1BDAD95B9CC81B5A5B9D1959081E595D PUSH1 0x62 SHL PUSH1 0x44 DUP3 ADD MSTORE PUSH1 0x64 ADD PUSH2 0x642 JUMP JUMPDEST PUSH1 0x0 SLOAD PUSH1 0x8 SLOAD LT PUSH2 0x1396 JUMPI PUSH1 0x40 MLOAD PUSH3 0x461BCD PUSH1 0xE5 SHL DUP2 MSTORE PUSH1 0x20 PUSH1 0x4 DUP3 ADD MSTORE PUSH1 0x1C PUSH1 0x24 DUP3 ADD MSTORE PUSH32 0x616C6C206F776E657273686970732068617665206265656E2073657400000000 PUSH1 0x44 DUP3 ADD MSTORE PUSH1 0x64 ADD PUSH2 0x642 JUMP JUMPDEST PUSH1 0x8 SLOAD PUSH1 0x0 PUSH1 0x1 PUSH2 0x13A7 DUP5 DUP5 PUSH2 0x1FFF JUMP JUMPDEST PUSH2 0x13B1 SWAP2 SWAP1 PUSH2 0x1F22 JUMP JUMPDEST SWAP1 POP PUSH1 0x1 PUSH1 0x0 SLOAD PUSH2 0x13C2 SWAP2 SWAP1 PUSH2 0x1F22 JUMP JUMPDEST DUP2 GT ISZERO PUSH2 0x13DB JUMPI PUSH1 0x1 PUSH1 0x0 SLOAD PUSH2 0x13D8 SWAP2 SWAP1 PUSH2 0x1F22 JUMP JUMPDEST SWAP1 POP JUMPDEST DUP2 JUMPDEST DUP2 DUP2 GT PUSH2 0x1481 JUMPI PUSH1 0x0 DUP2 DUP2 MSTORE PUSH1 0x3 PUSH1 0x20 MSTORE PUSH1 0x40 SWAP1 KECCAK256 SLOAD PUSH1 0x1 PUSH1 0x1 PUSH1 0xA0 SHL SUB AND PUSH2 0x146F JUMPI PUSH1 0x0 PUSH2 0x140B DUP3 PUSH2 0x1495 JUMP JUMPDEST PUSH1 0x40 DUP1 MLOAD DUP1 DUP3 ADD DUP3 MSTORE DUP3 MLOAD PUSH1 0x1 PUSH1 0x1 PUSH1 0xA0 SHL SUB SWAP1 DUP2 AND DUP3 MSTORE PUSH1 0x20 SWAP4 DUP5 ADD MLOAD PUSH8 0xFFFFFFFFFFFFFFFF SWAP1 DUP2 AND DUP6 DUP5 ADD SWAP1 DUP2 MSTORE PUSH1 0x0 DUP9 DUP2 MSTORE PUSH1 0x3 SWAP1 SWAP7 MSTORE SWAP4 SWAP1 SWAP5 KECCAK256 SWAP2 MLOAD DUP3 SLOAD SWAP4 MLOAD SWAP1 SWAP5 AND PUSH1 0x1 PUSH1 0xA0 SHL MUL PUSH1 0x1 PUSH1 0x1 PUSH1 0xE0 SHL SUB NOT SWAP1 SWAP4 AND SWAP4 AND SWAP3 SWAP1 SWAP3 OR OR SWAP1 SSTORE POP JUMPDEST DUP1 PUSH2 0x1479 DUP2 PUSH2 0x1F07 JUMP JUMPDEST SWAP2 POP POP PUSH2 0x13DD JUMP JUMPDEST POP PUSH2 0x148D DUP2 PUSH1 0x1 PUSH2 0x1FFF JUMP JUMPDEST PUSH1 0x8 SSTORE POP POP POP JUMP JUMPDEST PUSH1 0x40 DUP1 MLOAD DUP1 DUP3 ADD SWAP1 SWAP2 MSTORE PUSH1 0x0 DUP1 DUP3 MSTORE PUSH1 0x20 DUP3 ADD MSTORE PUSH2 0x14B4 DUP3 PUSH1 0x0 SLOAD GT SWAP1 JUMP JUMPDEST PUSH2 0x1513 JUMPI PUSH1 0x40 MLOAD PUSH3 0x461BCD PUSH1 0xE5 SHL DUP2 MSTORE PUSH1 0x20 PUSH1 0x4 DUP3 ADD MSTORE PUSH1 0x2A PUSH1 0x24 DUP3 ADD MSTORE PUSH32 0x455243373231413A206F776E657220717565727920666F72206E6F6E65786973 PUSH1 0x44 DUP3 ADD MSTORE PUSH10 0x3A32B73A103A37B5B2B7 PUSH1 0xB1 SHL PUSH1 0x64 DUP3 ADD MSTORE PUSH1 0x84 ADD PUSH2 0x642 JUMP JUMPDEST DUP2 JUMPDEST PUSH1 0x0 DUP2 DUP2 MSTORE PUSH1 0x3 PUSH1 0x20 SWAP1 DUP2 MSTORE PUSH1 0x40 SWAP2 DUP3 SWAP1 KECCAK256 DUP3 MLOAD DUP1 DUP5 ADD SWAP1 SWAP4 MSTORE SLOAD PUSH1 0x1 PUSH1 0x1 PUSH1 0xA0 SHL SUB DUP2 AND DUP1 DUP5 MSTORE PUSH1 0x1 PUSH1 0xA0 SHL SWAP1 SWAP2 DIV PUSH8 0xFFFFFFFFFFFFFFFF AND SWAP2 DUP4 ADD SWAP2 SWAP1 SWAP2 MSTORE ISZERO PUSH2 0x1562 JUMPI SWAP4 SWAP3 POP POP POP JUMP JUMPDEST POP DUP1 PUSH2 0x156D DUP2 PUSH2 0x2017 JUMP JUMPDEST SWAP2 POP POP PUSH2 0x1515 JUMP JUMPDEST PUSH1 0x60 PUSH1 0x40 MLOAD DUP1 PUSH1 0x80 ADD PUSH1 0x40 MSTORE DUP1 PUSH1 0x49 DUP2 MSTORE PUSH1 0x20 ADD PUSH2 0x20FF PUSH1 0x49 SWAP2 CODECOPY SWAP1 POP SWAP1 JUMP JUMPDEST PUSH1 0x7 DUP1 SLOAD PUSH1 0x1 PUSH1 0x1 PUSH1 0xA0 SHL SUB DUP4 DUP2 AND PUSH1 0x1 PUSH1 0x1 PUSH1 0xA0 SHL SUB NOT DUP4 AND DUP2 OR SWAP1 SWAP4 SSTORE PUSH1 0x40 MLOAD SWAP2 AND SWAP2 SWAP1 DUP3 SWAP1 PUSH32 0x8BE0079C531659141344CD1FD0A4F28419497F9722A3DAAFE3B4186F6B6457E0 SWAP1 PUSH1 0x0 SWAP1 LOG3 POP POP JUMP JUMPDEST PUSH1 0x0 SLOAD PUSH1 0x1 PUSH1 0x1 PUSH1 0xA0 SHL SUB DUP5 AND PUSH2 0x164A JUMPI PUSH1 0x40 MLOAD PUSH3 0x461BCD PUSH1 0xE5 SHL DUP2 MSTORE PUSH1 0x20 PUSH1 0x4 DUP3 ADD MSTORE PUSH1 0x21 PUSH1 0x24 DUP3 ADD MSTORE PUSH32 0x455243373231413A206D696E7420746F20746865207A65726F20616464726573 PUSH1 0x44 DUP3 ADD MSTORE PUSH1 0x73 PUSH1 0xF8 SHL PUSH1 0x64 DUP3 ADD MSTORE PUSH1 0x84 ADD PUSH2 0x642 JUMP JUMPDEST PUSH2 0x1655 DUP2 PUSH1 0x0 SLOAD GT SWAP1 JUMP JUMPDEST ISZERO PUSH2 0x16A2 JUMPI PUSH1 0x40 MLOAD PUSH3 0x461BCD PUSH1 0xE5 SHL DUP2 MSTORE PUSH1 0x20 PUSH1 0x4 DUP3 ADD MSTORE PUSH1 0x1D PUSH1 0x24 DUP3 ADD MSTORE PUSH32 0x455243373231413A20746F6B656E20616C7265616479206D696E746564000000 PUSH1 0x44 DUP3 ADD MSTORE PUSH1 0x64 ADD PUSH2 0x642 JUMP JUMPDEST PUSH1 0x0 DUP4 GT PUSH2 0x16FE JUMPI PUSH1 0x40 MLOAD PUSH3 0x461BCD PUSH1 0xE5 SHL DUP2 MSTORE PUSH1 0x20 PUSH1 0x4 DUP3 ADD MSTORE PUSH1 0x23 PUSH1 0x24 DUP3 ADD MSTORE PUSH32 0x455243373231413A207175616E74697479206D75737420626520677265617465 PUSH1 0x44 DUP3 ADD MSTORE PUSH3 0x72203 PUSH1 0xEC SHL PUSH1 0x64 DUP3 ADD MSTORE PUSH1 0x84 ADD PUSH2 0x642 JUMP JUMPDEST PUSH1 0x1 PUSH1 0x1 PUSH1 0xA0 SHL SUB DUP5 AND PUSH1 0x0 SWAP1 DUP2 MSTORE PUSH1 0x4 PUSH1 0x20 SWAP1 DUP2 MSTORE PUSH1 0x40 SWAP2 DUP3 SWAP1 KECCAK256 DUP3 MLOAD DUP1 DUP5 ADD DUP5 MSTORE SWAP1 SLOAD PUSH1 0x1 PUSH1 0x1 PUSH1 0x80 SHL SUB DUP1 DUP3 AND DUP4 MSTORE PUSH1 0x1 PUSH1 0x80 SHL SWAP1 SWAP2 DIV AND SWAP2 DUP2 ADD SWAP2 SWAP1 SWAP2 MSTORE DUP2 MLOAD DUP1 DUP4 ADD SWAP1 SWAP3 MSTORE DUP1 MLOAD SWAP1 SWAP2 SWAP1 DUP2 SWAP1 PUSH2 0x175A SWAP1 DUP8 SWAP1 PUSH2 0x202E JUMP JUMPDEST PUSH1 0x1 PUSH1 0x1 PUSH1 0x80 SHL SUB AND DUP2 MSTORE PUSH1 0x20 ADD DUP6 DUP4 PUSH1 0x20 ADD MLOAD PUSH2 0x1778 SWAP2 SWAP1 PUSH2 0x202E JUMP JUMPDEST PUSH1 0x1 PUSH1 0x1 PUSH1 0x80 SHL SUB SWAP1 DUP2 AND SWAP1 SWAP2 MSTORE PUSH1 0x1 PUSH1 0x1 PUSH1 0xA0 SHL SUB DUP1 DUP9 AND PUSH1 0x0 DUP2 DUP2 MSTORE PUSH1 0x4 PUSH1 0x20 SWAP1 DUP2 MSTORE PUSH1 0x40 DUP1 DUP4 KECCAK256 DUP8 MLOAD SWAP8 DUP4 ADD MLOAD DUP8 AND PUSH1 0x1 PUSH1 0x80 SHL MUL SWAP8 SWAP1 SWAP7 AND SWAP7 SWAP1 SWAP7 OR SWAP1 SWAP5 SSTORE DUP5 MLOAD DUP1 DUP7 ADD DUP7 MSTORE SWAP2 DUP3 MSTORE PUSH8 0xFFFFFFFFFFFFFFFF TIMESTAMP DUP2 AND DUP4 DUP7 ADD SWAP1 DUP2 MSTORE DUP9 DUP4 MSTORE PUSH1 0x3 SWAP1 SWAP6 MSTORE SWAP5 DUP2 KECCAK256 SWAP2 MLOAD DUP3 SLOAD SWAP5 MLOAD SWAP1 SWAP6 AND PUSH1 0x1 PUSH1 0xA0 SHL MUL PUSH1 0x1 PUSH1 0x1 PUSH1 0xE0 SHL SUB NOT SWAP1 SWAP5 AND SWAP5 SWAP1 SWAP3 AND SWAP4 SWAP1 SWAP4 OR SWAP2 SWAP1 SWAP2 OR SWAP1 SWAP2 SSTORE DUP3 SWAP1 JUMPDEST DUP6 DUP2 LT ISZERO PUSH2 0x1898 JUMPI PUSH1 0x40 MLOAD DUP3 SWAP1 PUSH1 0x1 PUSH1 0x1 PUSH1 0xA0 SHL SUB DUP10 AND SWAP1 PUSH1 0x0 SWAP1 PUSH32 0xDDF252AD1BE2C89B69C2B068FC378DAA952BA7F163C4A11628F55A4DF523B3EF SWAP1 DUP3 SWAP1 LOG4 PUSH2 0x185C PUSH1 0x0 DUP9 DUP5 DUP9 PUSH2 0x18C1 JUMP JUMPDEST PUSH2 0x1878 JUMPI PUSH1 0x40 MLOAD PUSH3 0x461BCD PUSH1 0xE5 SHL DUP2 MSTORE PUSH1 0x4 ADD PUSH2 0x642 SWAP1 PUSH2 0x1F7D JUMP JUMPDEST DUP2 PUSH2 0x1882 DUP2 PUSH2 0x1F07 JUMP JUMPDEST SWAP3 POP POP DUP1 DUP1 PUSH2 0x1890 SWAP1 PUSH2 0x1F07 JUMP JUMPDEST SWAP2 POP POP PUSH2 0x180F JUMP JUMPDEST POP PUSH1 0x0 DUP2 SWAP1 SSTORE PUSH2 0x12A3 JUMP JUMPDEST PUSH2 0x18BD DUP3 DUP3 PUSH1 0x40 MLOAD DUP1 PUSH1 0x20 ADD PUSH1 0x40 MSTORE DUP1 PUSH1 0x0 DUP2 MSTORE POP PUSH2 0x15E7 JUMP JUMPDEST POP POP JUMP JUMPDEST PUSH1 0x0 PUSH1 0x1 PUSH1 0x1 PUSH1 0xA0 SHL SUB DUP5 AND EXTCODESIZE ISZERO PUSH2 0x19B4 JUMPI PUSH1 0x40 MLOAD PUSH4 0xA85BD01 PUSH1 0xE1 SHL DUP2 MSTORE PUSH1 0x1 PUSH1 0x1 PUSH1 0xA0 SHL SUB DUP6 AND SWAP1 PUSH4 0x150B7A02 SWAP1 PUSH2 0x1905 SWAP1 CALLER SWAP1 DUP10 SWAP1 DUP9 SWAP1 DUP9 SWAP1 PUSH1 0x4 ADD PUSH2 0x2050 JUMP JUMPDEST PUSH1 0x20 PUSH1 0x40 MLOAD DUP1 DUP4 SUB DUP2 PUSH1 0x0 DUP8 GAS CALL SWAP3 POP POP POP DUP1 ISZERO PUSH2 0x1940 JUMPI POP PUSH1 0x40 DUP1 MLOAD PUSH1 0x1F RETURNDATASIZE SWAP1 DUP2 ADD PUSH1 0x1F NOT AND DUP3 ADD SWAP1 SWAP3 MSTORE PUSH2 0x193D SWAP2 DUP2 ADD SWAP1 PUSH2 0x208D JUMP JUMPDEST PUSH1 0x1 JUMPDEST PUSH2 0x199A JUMPI RETURNDATASIZE DUP1 DUP1 ISZERO PUSH2 0x196E JUMPI PUSH1 0x40 MLOAD SWAP2 POP PUSH1 0x1F NOT PUSH1 0x3F RETURNDATASIZE ADD AND DUP3 ADD PUSH1 0x40 MSTORE RETURNDATASIZE DUP3 MSTORE RETURNDATASIZE PUSH1 0x0 PUSH1 0x20 DUP5 ADD RETURNDATACOPY PUSH2 0x1973 JUMP JUMPDEST PUSH1 0x60 SWAP2 POP JUMPDEST POP DUP1 MLOAD PUSH2 0x1992 JUMPI PUSH1 0x40 MLOAD PUSH3 0x461BCD PUSH1 0xE5 SHL DUP2 MSTORE PUSH1 0x4 ADD PUSH2 0x642 SWAP1 PUSH2 0x1F7D JUMP JUMPDEST DUP1 MLOAD DUP2 PUSH1 0x20 ADD REVERT JUMPDEST PUSH1 0x1 PUSH1 0x1 PUSH1 0xE0 SHL SUB NOT AND PUSH4 0xA85BD01 PUSH1 0xE1 SHL EQ SWAP1 POP PUSH2 0x19B8 JUMP JUMPDEST POP PUSH1 0x1 JUMPDEST SWAP5 SWAP4 POP POP POP POP JUMP JUMPDEST PUSH1 0x60 DUP2 PUSH2 0x19E4 JUMPI POP POP PUSH1 0x40 DUP1 MLOAD DUP1 DUP3 ADD SWAP1 SWAP2 MSTORE PUSH1 0x1 DUP2 MSTORE PUSH1 0x3 PUSH1 0xFC SHL PUSH1 0x20 DUP3 ADD MSTORE SWAP1 JUMP JUMPDEST DUP2 PUSH1 0x0 JUMPDEST DUP2 ISZERO PUSH2 0x1A0E JUMPI DUP1 PUSH2 0x19F8 DUP2 PUSH2 0x1F07 JUMP JUMPDEST SWAP2 POP PUSH2 0x1A07 SWAP1 POP PUSH1 0xA DUP4 PUSH2 0x20C0 JUMP JUMPDEST SWAP2 POP PUSH2 0x19E8 JUMP JUMPDEST PUSH1 0x0 DUP2 PUSH8 0xFFFFFFFFFFFFFFFF DUP2 GT ISZERO PUSH2 0x1A29 JUMPI PUSH2 0x1A29 PUSH2 0x1CB0 JUMP JUMPDEST PUSH1 0x40 MLOAD SWAP1 DUP1 DUP3 MSTORE DUP1 PUSH1 0x1F ADD PUSH1 0x1F NOT AND PUSH1 0x20 ADD DUP3 ADD PUSH1 0x40 MSTORE DUP1 ISZERO PUSH2 0x1A53 JUMPI PUSH1 0x20 DUP3 ADD DUP2 DUP1 CALLDATASIZE DUP4 CALLDATACOPY ADD SWAP1 POP JUMPDEST POP SWAP1 POP JUMPDEST DUP5 ISZERO PUSH2 0x19B8 JUMPI PUSH2 0x1A68 PUSH1 0x1 DUP4 PUSH2 0x1F22 JUMP JUMPDEST SWAP2 POP PUSH2 0x1A75 PUSH1 0xA DUP7 PUSH2 0x20D4 JUMP JUMPDEST PUSH2 0x1A80 SWAP1 PUSH1 0x30 PUSH2 0x1FFF JUMP JUMPDEST PUSH1 0xF8 SHL DUP2 DUP4 DUP2 MLOAD DUP2 LT PUSH2 0x1A95 JUMPI PUSH2 0x1A95 PUSH2 0x20E8 JUMP JUMPDEST PUSH1 0x20 ADD ADD SWAP1 PUSH1 0x1 PUSH1 0x1 PUSH1 0xF8 SHL SUB NOT AND SWAP1 DUP2 PUSH1 0x0 BYTE SWAP1 MSTORE8 POP PUSH2 0x1AB7 PUSH1 0xA DUP7 PUSH2 0x20C0 JUMP JUMPDEST SWAP5 POP PUSH2 0x1A57 JUMP JUMPDEST PUSH1 0x0 PUSH1 0x1 PUSH1 0x1 PUSH1 0xA0 SHL SUB DUP3 AND PUSH2 0x1B30 JUMPI PUSH1 0x40 MLOAD PUSH3 0x461BCD PUSH1 0xE5 SHL DUP2 MSTORE PUSH1 0x20 PUSH1 0x4 DUP3 ADD MSTORE PUSH1 0x31 PUSH1 0x24 DUP3 ADD MSTORE PUSH32 0x455243373231413A206E756D626572206D696E74656420717565727920666F72 PUSH1 0x44 DUP3 ADD MSTORE PUSH17 0x20746865207A65726F2061646472657373 PUSH1 0x78 SHL PUSH1 0x64 DUP3 ADD MSTORE PUSH1 0x84 ADD PUSH2 0x642 JUMP JUMPDEST POP PUSH1 0x1 PUSH1 0x1 PUSH1 0xA0 SHL SUB AND PUSH1 0x0 SWAP1 DUP2 MSTORE PUSH1 0x4 PUSH1 0x20 MSTORE PUSH1 0x40 SWAP1 KECCAK256 SLOAD PUSH1 0x1 PUSH1 0x80 SHL SWAP1 DIV PUSH1 0x1 PUSH1 0x1 PUSH1 0x80 SHL SUB AND SWAP1 JUMP JUMPDEST PUSH1 0x1 PUSH1 0x1 PUSH1 0xE0 SHL SUB NOT DUP2 AND DUP2 EQ PUSH2 0x7BD JUMPI PUSH1 0x0 DUP1 REVERT JUMPDEST PUSH1 0x0 PUSH1 0x20 DUP3 DUP5 SUB SLT ISZERO PUSH2 0x1B84 JUMPI PUSH1 0x0 DUP1 REVERT JUMPDEST DUP2 CALLDATALOAD PUSH2 0xE5E DUP2 PUSH2 0x1B5C JUMP JUMPDEST PUSH1 0x0 JUMPDEST DUP4 DUP2 LT ISZERO PUSH2 0x1BAA JUMPI DUP2 DUP2 ADD MLOAD DUP4 DUP3 ADD MSTORE PUSH1 0x20 ADD PUSH2 0x1B92 JUMP JUMPDEST DUP4 DUP2 GT ISZERO PUSH2 0xB96 JUMPI POP POP PUSH1 0x0 SWAP2 ADD MSTORE JUMP JUMPDEST PUSH1 0x0 DUP2 MLOAD DUP1 DUP5 MSTORE PUSH2 0x1BD3 DUP2 PUSH1 0x20 DUP7 ADD PUSH1 0x20 DUP7 ADD PUSH2 0x1B8F JUMP JUMPDEST PUSH1 0x1F ADD PUSH1 0x1F NOT AND SWAP3 SWAP1 SWAP3 ADD PUSH1 0x20 ADD SWAP3 SWAP2 POP POP JUMP JUMPDEST PUSH1 0x20 DUP2 MSTORE PUSH1 0x0 PUSH2 0xE5E PUSH1 0x20 DUP4 ADD DUP5 PUSH2 0x1BBB JUMP JUMPDEST PUSH1 0x0 PUSH1 0x20 DUP3 DUP5 SUB SLT ISZERO PUSH2 0x1C0C JUMPI PUSH1 0x0 DUP1 REVERT JUMPDEST POP CALLDATALOAD SWAP2 SWAP1 POP JUMP JUMPDEST DUP1 CALLDATALOAD PUSH1 0x1 PUSH1 0x1 PUSH1 0xA0 SHL SUB DUP2 AND DUP2 EQ PUSH2 0x1C2A JUMPI PUSH1 0x0 DUP1 REVERT JUMPDEST SWAP2 SWAP1 POP JUMP JUMPDEST PUSH1 0x0 DUP1 PUSH1 0x40 DUP4 DUP6 SUB SLT ISZERO PUSH2 0x1C42 JUMPI PUSH1 0x0 DUP1 REVERT JUMPDEST PUSH2 0x1C4B DUP4 PUSH2 0x1C13 JUMP JUMPDEST SWAP5 PUSH1 0x20 SWAP4 SWAP1 SWAP4 ADD CALLDATALOAD SWAP4 POP POP POP JUMP JUMPDEST PUSH1 0x0 DUP1 PUSH1 0x0 PUSH1 0x60 DUP5 DUP7 SUB SLT ISZERO PUSH2 0x1C6E JUMPI PUSH1 0x0 DUP1 REVERT JUMPDEST PUSH2 0x1C77 DUP5 PUSH2 0x1C13 JUMP JUMPDEST SWAP3 POP PUSH2 0x1C85 PUSH1 0x20 DUP6 ADD PUSH2 0x1C13 JUMP JUMPDEST SWAP2 POP PUSH1 0x40 DUP5 ADD CALLDATALOAD SWAP1 POP SWAP3 POP SWAP3 POP SWAP3 JUMP JUMPDEST PUSH1 0x0 PUSH1 0x20 DUP3 DUP5 SUB SLT ISZERO PUSH2 0x1CA7 JUMPI PUSH1 0x0 DUP1 REVERT JUMPDEST PUSH2 0xE5E DUP3 PUSH2 0x1C13 JUMP JUMPDEST PUSH4 0x4E487B71 PUSH1 0xE0 SHL PUSH1 0x0 MSTORE PUSH1 0x41 PUSH1 0x4 MSTORE PUSH1 0x24 PUSH1 0x0 REVERT JUMPDEST PUSH1 0x0 DUP3 PUSH1 0x1F DUP4 ADD SLT PUSH2 0x1CD7 JUMPI PUSH1 0x0 DUP1 REVERT JUMPDEST DUP2 CALLDATALOAD PUSH8 0xFFFFFFFFFFFFFFFF DUP1 DUP3 GT ISZERO PUSH2 0x1CF2 JUMPI PUSH2 0x1CF2 PUSH2 0x1CB0 JUMP JUMPDEST PUSH1 0x40 MLOAD PUSH1 0x1F DUP4 ADD PUSH1 0x1F NOT SWAP1 DUP2 AND PUSH1 0x3F ADD AND DUP2 ADD SWAP1 DUP3 DUP3 GT DUP2 DUP4 LT OR ISZERO PUSH2 0x1D1A JUMPI PUSH2 0x1D1A PUSH2 0x1CB0 JUMP JUMPDEST DUP2 PUSH1 0x40 MSTORE DUP4 DUP2 MSTORE DUP7 PUSH1 0x20 DUP6 DUP9 ADD ADD GT ISZERO PUSH2 0x1D33 JUMPI PUSH1 0x0 DUP1 REVERT JUMPDEST DUP4 PUSH1 0x20 DUP8 ADD PUSH1 0x20 DUP4 ADD CALLDATACOPY PUSH1 0x0 PUSH1 0x20 DUP6 DUP4 ADD ADD MSTORE DUP1 SWAP5 POP POP POP POP POP SWAP3 SWAP2 POP POP JUMP JUMPDEST PUSH1 0x0 DUP1 PUSH1 0x0 PUSH1 0x60 DUP5 DUP7 SUB SLT ISZERO PUSH2 0x1D68 JUMPI PUSH1 0x0 DUP1 REVERT JUMPDEST PUSH2 0x1D71 DUP5 PUSH2 0x1C13 JUMP JUMPDEST SWAP3 POP PUSH1 0x20 DUP5 ADD CALLDATALOAD SWAP2 POP PUSH1 0x40 DUP5 ADD CALLDATALOAD PUSH8 0xFFFFFFFFFFFFFFFF DUP2 GT ISZERO PUSH2 0x1D94 JUMPI PUSH1 0x0 DUP1 REVERT JUMPDEST PUSH2 0x1DA0 DUP7 DUP3 DUP8 ADD PUSH2 0x1CC6 JUMP JUMPDEST SWAP2 POP POP SWAP3 POP SWAP3 POP SWAP3 JUMP JUMPDEST PUSH1 0x0 DUP1 PUSH1 0x40 DUP4 DUP6 SUB SLT ISZERO PUSH2 0x1DBD JUMPI PUSH1 0x0 DUP1 REVERT JUMPDEST PUSH2 0x1DC6 DUP4 PUSH2 0x1C13 JUMP JUMPDEST SWAP2 POP PUSH1 0x20 DUP4 ADD CALLDATALOAD DUP1 ISZERO ISZERO DUP2 EQ PUSH2 0x1DDB JUMPI PUSH1 0x0 DUP1 REVERT JUMPDEST DUP1 SWAP2 POP POP SWAP3 POP SWAP3 SWAP1 POP JUMP JUMPDEST PUSH1 0x0 DUP1 PUSH1 0x0 DUP1 PUSH1 0x80 DUP6 DUP8 SUB SLT ISZERO PUSH2 0x1DFC JUMPI PUSH1 0x0 DUP1 REVERT JUMPDEST PUSH2 0x1E05 DUP6 PUSH2 0x1C13 JUMP JUMPDEST SWAP4 POP PUSH2 0x1E13 PUSH1 0x20 DUP7 ADD PUSH2 0x1C13 JUMP JUMPDEST SWAP3 POP PUSH1 0x40 DUP6 ADD CALLDATALOAD SWAP2 POP PUSH1 0x60 DUP6 ADD CALLDATALOAD PUSH8 0xFFFFFFFFFFFFFFFF DUP2 GT ISZERO PUSH2 0x1E36 JUMPI PUSH1 0x0 DUP1 REVERT JUMPDEST PUSH2 0x1E42 DUP8 DUP3 DUP9 ADD PUSH2 0x1CC6 JUMP JUMPDEST SWAP2 POP POP SWAP3 SWAP6 SWAP2 SWAP5 POP SWAP3 POP JUMP JUMPDEST PUSH1 0x0 DUP1 PUSH1 0x40 DUP4 DUP6 SUB SLT ISZERO PUSH2 0x1E61 JUMPI PUSH1 0x0 DUP1 REVERT JUMPDEST PUSH2 0x1E6A DUP4 PUSH2 0x1C13 JUMP JUMPDEST SWAP2 POP PUSH2 0x1E78 PUSH1 0x20 DUP5 ADD PUSH2 0x1C13 JUMP JUMPDEST SWAP1 POP SWAP3 POP SWAP3 SWAP1 POP JUMP JUMPDEST PUSH1 0x1 DUP2 DUP2 SHR SWAP1 DUP3 AND DUP1 PUSH2 0x1E95 JUMPI PUSH1 0x7F DUP3 AND SWAP2 POP JUMPDEST PUSH1 0x20 DUP3 LT DUP2 EQ ISZERO PUSH2 0x1EB6 JUMPI PUSH4 0x4E487B71 PUSH1 0xE0 SHL PUSH1 0x0 MSTORE PUSH1 0x22 PUSH1 0x4 MSTORE PUSH1 0x24 PUSH1 0x0 REVERT JUMPDEST POP SWAP2 SWAP1 POP JUMP JUMPDEST PUSH1 0x20 DUP1 DUP3 MSTORE DUP2 DUP2 ADD MSTORE PUSH32 0x4F776E61626C653A2063616C6C6572206973206E6F7420746865206F776E6572 PUSH1 0x40 DUP3 ADD MSTORE PUSH1 0x60 ADD SWAP1 JUMP JUMPDEST PUSH4 0x4E487B71 PUSH1 0xE0 SHL PUSH1 0x0 MSTORE PUSH1 0x11 PUSH1 0x4 MSTORE PUSH1 0x24 PUSH1 0x0 REVERT JUMPDEST PUSH1 0x0 PUSH1 0x0 NOT DUP3 EQ ISZERO PUSH2 0x1F1B JUMPI PUSH2 0x1F1B PUSH2 0x1EF1 JUMP JUMPDEST POP PUSH1 0x1 ADD SWAP1 JUMP JUMPDEST PUSH1 0x0 DUP3 DUP3 LT ISZERO PUSH2 0x1F34 JUMPI PUSH2 0x1F34 PUSH2 0x1EF1 JUMP JUMPDEST POP SUB SWAP1 JUMP JUMPDEST PUSH1 0x20 DUP1 DUP3 MSTORE PUSH1 0x24 SWAP1 DUP3 ADD MSTORE PUSH32 0x4D696E74207175616E746974792077696C6C20657863656564206D6178207375 PUSH1 0x40 DUP3 ADD MSTORE PUSH4 0x70706C79 PUSH1 0xE0 SHL PUSH1 0x60 DUP3 ADD MSTORE PUSH1 0x80 ADD SWAP1 JUMP JUMPDEST PUSH1 0x20 DUP1 DUP3 MSTORE PUSH1 0x33 SWAP1 DUP3 ADD MSTORE PUSH32 0x455243373231413A207472616E7366657220746F206E6F6E2045524337323152 PUSH1 0x40 DUP3 ADD MSTORE PUSH19 0x32B1B2B4BB32B91034B6B83632B6B2B73A32B9 PUSH1 0x69 SHL PUSH1 0x60 DUP3 ADD MSTORE PUSH1 0x80 ADD SWAP1 JUMP JUMPDEST PUSH1 0x0 DUP4 MLOAD PUSH2 0x1FE2 DUP2 DUP5 PUSH1 0x20 DUP9 ADD PUSH2 0x1B8F JUMP JUMPDEST DUP4 MLOAD SWAP1 DUP4 ADD SWAP1 PUSH2 0x1FF6 DUP2 DUP4 PUSH1 0x20 DUP9 ADD PUSH2 0x1B8F JUMP JUMPDEST ADD SWAP5 SWAP4 POP POP POP POP JUMP JUMPDEST PUSH1 0x0 DUP3 NOT DUP3 GT ISZERO PUSH2 0x2012 JUMPI PUSH2 0x2012 PUSH2 0x1EF1 JUMP JUMPDEST POP ADD SWAP1 JUMP JUMPDEST PUSH1 0x0 DUP2 PUSH2 0x2026 JUMPI PUSH2 0x2026 PUSH2 0x1EF1 JUMP JUMPDEST POP PUSH1 0x0 NOT ADD SWAP1 JUMP JUMPDEST PUSH1 0x0 PUSH1 0x1 PUSH1 0x1 PUSH1 0x80 SHL SUB DUP1 DUP4 AND DUP2 DUP6 AND DUP1 DUP4 SUB DUP3 GT ISZERO PUSH2 0x1FF6 JUMPI PUSH2 0x1FF6 PUSH2 0x1EF1 JUMP JUMPDEST PUSH1 0x1 PUSH1 0x1 PUSH1 0xA0 SHL SUB DUP6 DUP2 AND DUP3 MSTORE DUP5 AND PUSH1 0x20 DUP3 ADD MSTORE PUSH1 0x40 DUP2 ADD DUP4 SWAP1 MSTORE PUSH1 0x80 PUSH1 0x60 DUP3 ADD DUP2 SWAP1 MSTORE PUSH1 0x0 SWAP1 PUSH2 0x2083 SWAP1 DUP4 ADD DUP5 PUSH2 0x1BBB JUMP JUMPDEST SWAP7 SWAP6 POP POP POP POP POP POP JUMP JUMPDEST PUSH1 0x0 PUSH1 0x20 DUP3 DUP5 SUB SLT ISZERO PUSH2 0x209F JUMPI PUSH1 0x0 DUP1 REVERT JUMPDEST DUP2 MLOAD PUSH2 0xE5E DUP2 PUSH2 0x1B5C JUMP JUMPDEST PUSH4 0x4E487B71 PUSH1 0xE0 SHL PUSH1 0x0 MSTORE PUSH1 0x12 PUSH1 0x4 MSTORE PUSH1 0x24 PUSH1 0x0 REVERT JUMPDEST PUSH1 0x0 DUP3 PUSH2 0x20CF JUMPI PUSH2 0x20CF PUSH2 0x20AA JUMP JUMPDEST POP DIV SWAP1 JUMP JUMPDEST PUSH1 0x0 DUP3 PUSH2 0x20E3 JUMPI PUSH2 0x20E3 PUSH2 0x20AA JUMP JUMPDEST POP MOD SWAP1 JUMP JUMPDEST PUSH4 0x4E487B71 PUSH1 0xE0 SHL PUSH1 0x0 MSTORE PUSH1 0x32 PUSH1 0x4 MSTORE PUSH1 0x24 PUSH1 0x0 REVERT INVALID PUSH9 0x747470733A2F2F6970 PUSH7 0x732E696F2F6970 PUSH7 0x732F516D587578 SELFBALANCE ORIGIN BALANCE MSTORE PUSH21 0x4562676139786B336332616E63556E517632447070 SSTORE PUSH15 0x79456636587A45424764395A502F33 0x2E PUSH11 0x7067A26469706673582212 KECCAK256 0xD6 0xB7 SAR 0x4C REVERT 0xDA DELEGATECALL STOP 0x4B 0x5C 0xE0 SWAP14 SWAP10 0xED 0x4F RETURNDATASIZE 0xC8 0xFC 0x1E 0xED SWAP12 SWAP14 PUSH9 0xF52E93BD0AD3F7DF01 PUSH5 0x736F6C6343 STOP ADDMOD SIGNEXTEND STOP CALLER ",
  "sha1": "b6286b974541f2f238fe902284750668b036c466",
  "source": "// SPDX-License-Identifier: MIT\n// Creators: TokyoDan\n\npragma solidity ^0.8.0;\n\nimport '../node_modules/@openzeppelin/contracts/access/Ownable.sol';\nimport '../node_modules/@openzeppelin/contracts/security/ReentrancyGuard.sol';\nimport './ERC721A.sol';\nimport '../node_modules/@openzeppelin/contracts/utils/Strings.sol';\nimport './extensions/ERC721AOwnersExplicit.sol';\n\ncontract AvvenireCollection is ERC721A, Ownable, ERC721AOwnersExplicit {\n    /**\n     * @dev Initialized over set in constructor. Optimizes on gas\n     * Max supply eventually needs to be set to 10000...\n     */\n    uint256 immutable maxSupply = 30;\n    uint256 immutable maxBatch = 10;\n    uint256 immutable whiteList_MaxBatch = 2;\n    uint256 immutable price = 0.1 ether;\n\n    constructor(string memory name_, string memory symbol_) ERC721A(name_, symbol_) Ownable() {}\n\n    function numberMinted(address owner) public view returns (uint256) {\n        return _numberMinted(owner);\n    }\n\n    function baseURI() public view returns (string memory) {\n        return _baseURI();\n    }\n\n    /**\n     * @dev Overriding _baseURI() found in the ERC721A contract\n     * Base URI for computing {tokenURI}. If set, the resulting URI for\n     */\n    function _baseURI() internal view override returns (string memory) {\n        return 'https://ipfs.io/ipfs/QmXuxG21RtEbga9xk3c2ancUnQv2DppUnyEf6XzEBGd9ZP/3.jpg';\n    }\n\n    function exists(uint256 tokenId) public view returns (bool) {\n        return _exists(tokenId);\n    }\n\n    /**\n     * @dev Modifier to guarantee that mint quantity cannot exceed the max supply\n     * currentIndex starts at 0;\n     */\n    modifier properMint(uint256 quantity) {\n        require(quantity <= (maxSupply - currentIndex), 'Mint quantity will exceed max supply');\n        require(quantity <= maxBatch, 'Mint quantity exceeds max batch');\n        require(msg.value >= price);\n        _;\n    }\n\n    /**\n     * @dev see ERC721A. Added properMint modifier\n     */\n    function safeMint(address to, uint256 quantity) public payable properMint(quantity) {\n        //sendValue(owner,msg.value);\n        _safeMint(to, quantity);\n    }\n\n    /**\n     * @dev see ERC721A. Added properMint modifier\n     */\n    function safeMint(\n        address to,\n        uint256 quantity,\n        bytes memory _data\n    ) public payable properMint(quantity) {\n        _safeMint(to, quantity, _data);\n    }\n\n    /**\n     * @dev see ERC721AOwnersExplicit.sol and ERC721A.sol\n     * function _setOwnersExplicit() adds addresses to blank spots in _addressData mapping\n     * this subsequently eliminates the loops in the ownerOf() function\n     */\n    function setOwnersExplicit(uint256 quantity) public onlyOwner {\n        _setOwnersExplicit(quantity);\n    }\n\n    //Following functionality needs to be added: Whitelist,\n}\n",
  "sourcePath": "contracts/Avvenire.sol",
  "type": "contract"
}