{
  "abi": [
    {
      "inputs": [
        {
          "internalType": "string",
          "name": "name_",
          "type": "string"
        },
        {
          "internalType": "string",
          "name": "symbol_",
          "type": "string"
        }
      ],
      "stateMutability": "nonpayable",
      "type": "constructor"
    },
    {
      "anonymous": false,
      "inputs": [
        {
          "indexed": true,
          "internalType": "address",
          "name": "owner",
          "type": "address"
        },
        {
          "indexed": true,
          "internalType": "address",
          "name": "approved",
          "type": "address"
        },
        {
          "indexed": true,
          "internalType": "uint256",
          "name": "tokenId",
          "type": "uint256"
        }
      ],
      "name": "Approval",
      "type": "event"
    },
    {
      "anonymous": false,
      "inputs": [
        {
          "indexed": true,
          "internalType": "address",
          "name": "owner",
          "type": "address"
        },
        {
          "indexed": true,
          "internalType": "address",
          "name": "operator",
          "type": "address"
        },
        {
          "indexed": false,
          "internalType": "bool",
          "name": "approved",
          "type": "bool"
        }
      ],
      "name": "ApprovalForAll",
      "type": "event"
    },
    {
      "anonymous": false,
      "inputs": [
        {
          "indexed": true,
          "internalType": "address",
          "name": "from",
          "type": "address"
        },
        {
          "indexed": true,
          "internalType": "address",
          "name": "to",
          "type": "address"
        },
        {
          "indexed": true,
          "internalType": "uint256",
          "name": "tokenId",
          "type": "uint256"
        }
      ],
      "name": "Transfer",
      "type": "event"
    },
    {
      "inputs": [
        {
          "internalType": "address",
          "name": "to",
          "type": "address"
        },
        {
          "internalType": "uint256",
          "name": "tokenId",
          "type": "uint256"
        }
      ],
      "name": "approve",
      "outputs": [],
      "stateMutability": "nonpayable",
      "type": "function"
    },
    {
      "inputs": [
        {
          "internalType": "address",
          "name": "owner",
          "type": "address"
        }
      ],
      "name": "balanceOf",
      "outputs": [
        {
          "internalType": "uint256",
          "name": "",
          "type": "uint256"
        }
      ],
      "stateMutability": "view",
      "type": "function"
    },
    {
      "inputs": [
        {
          "internalType": "uint256",
          "name": "tokenId",
          "type": "uint256"
        }
      ],
      "name": "getApproved",
      "outputs": [
        {
          "internalType": "address",
          "name": "",
          "type": "address"
        }
      ],
      "stateMutability": "view",
      "type": "function"
    },
    {
      "inputs": [
        {
          "internalType": "uint256",
          "name": "index",
          "type": "uint256"
        }
      ],
      "name": "getOwnershipAt",
      "outputs": [
        {
          "components": [
            {
              "internalType": "address",
              "name": "addr",
              "type": "address"
            },
            {
              "internalType": "uint64",
              "name": "startTimestamp",
              "type": "uint64"
            }
          ],
          "internalType": "struct ERC721A.TokenOwnership",
          "name": "",
          "type": "tuple"
        }
      ],
      "stateMutability": "view",
      "type": "function"
    },
    {
      "inputs": [
        {
          "internalType": "address",
          "name": "owner",
          "type": "address"
        },
        {
          "internalType": "address",
          "name": "operator",
          "type": "address"
        }
      ],
      "name": "isApprovedForAll",
      "outputs": [
        {
          "internalType": "bool",
          "name": "",
          "type": "bool"
        }
      ],
      "stateMutability": "view",
      "type": "function"
    },
    {
      "inputs": [],
      "name": "name",
      "outputs": [
        {
          "internalType": "string",
          "name": "",
          "type": "string"
        }
      ],
      "stateMutability": "view",
      "type": "function"
    },
    {
      "inputs": [],
      "name": "nextOwnerToExplicitlySet",
      "outputs": [
        {
          "internalType": "uint256",
          "name": "",
          "type": "uint256"
        }
      ],
      "stateMutability": "view",
      "type": "function"
    },
    {
      "inputs": [
        {
          "internalType": "uint256",
          "name": "tokenId",
          "type": "uint256"
        }
      ],
      "name": "ownerOf",
      "outputs": [
        {
          "internalType": "address",
          "name": "",
          "type": "address"
        }
      ],
      "stateMutability": "view",
      "type": "function"
    },
    {
      "inputs": [
        {
          "internalType": "address",
          "name": "to",
          "type": "address"
        },
        {
          "internalType": "uint256",
          "name": "quantity",
          "type": "uint256"
        }
      ],
      "name": "safeMint",
      "outputs": [],
      "stateMutability": "nonpayable",
      "type": "function"
    },
    {
      "inputs": [
        {
          "internalType": "address",
          "name": "from",
          "type": "address"
        },
        {
          "internalType": "address",
          "name": "to",
          "type": "address"
        },
        {
          "internalType": "uint256",
          "name": "tokenId",
          "type": "uint256"
        }
      ],
      "name": "safeTransferFrom",
      "outputs": [],
      "stateMutability": "nonpayable",
      "type": "function"
    },
    {
      "inputs": [
        {
          "internalType": "address",
          "name": "from",
          "type": "address"
        },
        {
          "internalType": "address",
          "name": "to",
          "type": "address"
        },
        {
          "internalType": "uint256",
          "name": "tokenId",
          "type": "uint256"
        },
        {
          "internalType": "bytes",
          "name": "_data",
          "type": "bytes"
        }
      ],
      "name": "safeTransferFrom",
      "outputs": [],
      "stateMutability": "nonpayable",
      "type": "function"
    },
    {
      "inputs": [
        {
          "internalType": "address",
          "name": "operator",
          "type": "address"
        },
        {
          "internalType": "bool",
          "name": "approved",
          "type": "bool"
        }
      ],
      "name": "setApprovalForAll",
      "outputs": [],
      "stateMutability": "nonpayable",
      "type": "function"
    },
    {
      "inputs": [
        {
          "internalType": "uint256",
          "name": "quantity",
          "type": "uint256"
        }
      ],
      "name": "setOwnersExplicit",
      "outputs": [],
      "stateMutability": "nonpayable",
      "type": "function"
    },
    {
      "inputs": [
        {
          "internalType": "bytes4",
          "name": "interfaceId",
          "type": "bytes4"
        }
      ],
      "name": "supportsInterface",
      "outputs": [
        {
          "internalType": "bool",
          "name": "",
          "type": "bool"
        }
      ],
      "stateMutability": "view",
      "type": "function"
    },
    {
      "inputs": [],
      "name": "symbol",
      "outputs": [
        {
          "internalType": "string",
          "name": "",
          "type": "string"
        }
      ],
      "stateMutability": "view",
      "type": "function"
    },
    {
      "inputs": [
        {
          "internalType": "uint256",
          "name": "index",
          "type": "uint256"
        }
      ],
      "name": "tokenByIndex",
      "outputs": [
        {
          "internalType": "uint256",
          "name": "",
          "type": "uint256"
        }
      ],
      "stateMutability": "view",
      "type": "function"
    },
    {
      "inputs": [
        {
          "internalType": "address",
          "name": "owner",
          "type": "address"
        },
        {
          "internalType": "uint256",
          "name": "index",
          "type": "uint256"
        }
      ],
      "name": "tokenOfOwnerByIndex",
      "outputs": [
        {
          "internalType": "uint256",
          "name": "",
          "type": "uint256"
        }
      ],
      "stateMutability": "view",
      "type": "function"
    },
    {
      "inputs": [
        {
          "internalType": "uint256",
          "name": "tokenId",
          "type": "uint256"
        }
      ],
      "name": "tokenURI",
      "outputs": [
        {
          "internalType": "string",
          "name": "",
          "type": "string"
        }
      ],
      "stateMutability": "view",
      "type": "function"
    },
    {
      "inputs": [],
      "name": "totalSupply",
      "outputs": [
        {
          "internalType": "uint256",
          "name": "",
          "type": "uint256"
        }
      ],
      "stateMutability": "view",
      "type": "function"
    },
    {
      "inputs": [
        {
          "internalType": "address",
          "name": "from",
          "type": "address"
        },
        {
          "internalType": "address",
          "name": "to",
          "type": "address"
        },
        {
          "internalType": "uint256",
          "name": "tokenId",
          "type": "uint256"
        }
      ],
      "name": "transferFrom",
      "outputs": [],
      "stateMutability": "nonpayable",
      "type": "function"
    }
  ],
  "bytecode": "60806040526000805560006007553480156200001a57600080fd5b5060405162001d7f38038062001d7f8339810160408190526200003d91620001ea565b8151829082906200005690600190602085019062000077565b5080516200006c90600290602084019062000077565b505050505062000291565b828054620000859062000254565b90600052602060002090601f016020900481019282620000a95760008555620000f4565b82601f10620000c457805160ff1916838001178555620000f4565b82800160010185558215620000f4579182015b82811115620000f4578251825591602001919060010190620000d7565b506200010292915062000106565b5090565b5b8082111562000102576000815560010162000107565b634e487b7160e01b600052604160045260246000fd5b600082601f8301126200014557600080fd5b81516001600160401b03808211156200016257620001626200011d565b604051601f8301601f19908116603f011681019082821181831017156200018d576200018d6200011d565b81604052838152602092508683858801011115620001aa57600080fd5b600091505b83821015620001ce5785820183015181830184015290820190620001af565b83821115620001e05760008385830101525b9695505050505050565b60008060408385031215620001fe57600080fd5b82516001600160401b03808211156200021657600080fd5b620002248683870162000133565b935060208501519150808211156200023b57600080fd5b506200024a8582860162000133565b9150509250929050565b600181811c908216806200026957607f821691505b602082108114156200028b57634e487b7160e01b600052602260045260246000fd5b50919050565b611ade80620002a16000396000f3fe608060405234801561001057600080fd5b506004361061012c5760003560e01c80636352211e116100ad578063b88d4fde11610071578063b88d4fde14610273578063c87b56dd14610286578063d7224ba014610299578063e985e9c5146102a2578063f2523633146102de57600080fd5b80636352211e1461021f57806370a082311461023257806395d89b4114610245578063a14481941461024d578063a22cb4651461026057600080fd5b806323b872dd116100f457806323b872dd146101c05780632d20fb60146101d35780632f745c59146101e657806342842e0e146101f95780634f6ccce71461020c57600080fd5b806301ffc9a71461013157806306fdde0314610159578063081812fc1461016e578063095ea7b31461019957806318160ddd146101ae575b600080fd5b61014461013f366004611605565b61036e565b60405190151581526020015b60405180910390f35b6101616103db565b604051610150919061167a565b61018161017c36600461168d565b61046d565b6040516001600160a01b039091168152602001610150565b6101ac6101a73660046116c2565b6104fd565b005b6000545b604051908152602001610150565b6101ac6101ce3660046116ec565b610615565b6101ac6101e136600461168d565b610620565b6101b26101f43660046116c2565b61062c565b6101ac6102073660046116ec565b61079a565b6101b261021a36600461168d565b6107b5565b61018161022d36600461168d565b610817565b6101b2610240366004611728565b610829565b6101616108ba565b6101ac61025b3660046116c2565b6108c9565b6101ac61026e366004611743565b6108d7565b6101ac610281366004611795565b61099c565b61016161029436600461168d565b6109d5565b6101b260075481565b6101446102b0366004611871565b6001600160a01b03918216600090815260066020908152604080832093909416825291909152205460ff1690565b6103406102ec36600461168d565b6040805180820190915260008082526020820152506000908152600360209081526040918290208251808401909352546001600160a01b0381168352600160a01b900467ffffffffffffffff169082015290565b6040805182516001600160a01b0316815260209283015167ffffffffffffffff169281019290925201610150565b60006001600160e01b031982166380ac58cd60e01b148061039f57506001600160e01b03198216635b5e139f60e01b145b806103ba57506001600160e01b0319821663780e9d6360e01b145b806103d557506301ffc9a760e01b6001600160e01b03198316145b92915050565b6060600180546103ea906118a4565b80601f0160208091040260200160405190810160405280929190818152602001828054610416906118a4565b80156104635780601f1061043857610100808354040283529160200191610463565b820191906000526020600020905b81548152906001019060200180831161044657829003601f168201915b5050505050905090565b600061047a826000541190565b6104e15760405162461bcd60e51b815260206004820152602d60248201527f455243373231413a20617070726f76656420717565727920666f72206e6f6e6560448201526c3c34b9ba32b73a103a37b5b2b760991b60648201526084015b60405180910390fd5b506000908152600560205260409020546001600160a01b031690565b600061050882610817565b9050806001600160a01b0316836001600160a01b031614156105775760405162461bcd60e51b815260206004820152602260248201527f455243373231413a20617070726f76616c20746f2063757272656e74206f776e60448201526132b960f11b60648201526084016104d8565b336001600160a01b0382161480610593575061059381336102b0565b6106055760405162461bcd60e51b815260206004820152603960248201527f455243373231413a20617070726f76652063616c6c6572206973206e6f74206f60448201527f776e6572206e6f7220617070726f76656420666f7220616c6c0000000000000060648201526084016104d8565b610610838383610aaf565b505050565b610610838383610b0b565b61062981610e52565b50565b600061063783610829565b82106106905760405162461bcd60e51b815260206004820152602260248201527f455243373231413a206f776e657220696e646578206f7574206f6620626f756e604482015261647360f01b60648201526084016104d8565b600080549080805b8381101561073a576000818152600360209081526040918290208251808401909352546001600160a01b038116808452600160a01b90910467ffffffffffffffff1691830191909152156106eb57805192505b876001600160a01b0316836001600160a01b031614156107275786841415610719575093506103d592505050565b83610723816118f5565b9450505b5080610732816118f5565b915050610698565b5060405162461bcd60e51b815260206004820152602e60248201527f455243373231413a20756e61626c6520746f2067657420746f6b656e206f662060448201526d0deeedccae440c4f240d2dcc8caf60931b60648201526084016104d8565b6106108383836040518060200160405280600081525061099c565b6000805482106108135760405162461bcd60e51b815260206004820152602360248201527f455243373231413a20676c6f62616c20696e646578206f7574206f6620626f756044820152626e647360e81b60648201526084016104d8565b5090565b60006108228261103c565b5192915050565b60006001600160a01b0382166108955760405162461bcd60e51b815260206004820152602b60248201527f455243373231413a2062616c616e636520717565727920666f7220746865207a60448201526a65726f206164647265737360a81b60648201526084016104d8565b506001600160a01b03166000908152600460205260409020546001600160801b031690565b6060600280546103ea906118a4565b6108d3828261111c565b5050565b6001600160a01b0382163314156109305760405162461bcd60e51b815260206004820152601a60248201527f455243373231413a20617070726f766520746f2063616c6c657200000000000060448201526064016104d8565b3360008181526006602090815260408083206001600160a01b03871680855290835292819020805460ff191686151590811790915590519081529192917f17307eab39ab6107e8899845ad3d59bd9653f200f220920489ca2b5937696c31910160405180910390a35050565b6109a7848484610b0b565b6109b384848484611136565b6109cf5760405162461bcd60e51b81526004016104d890611910565b50505050565b60606109e2826000541190565b610a465760405162461bcd60e51b815260206004820152602f60248201527f4552433732314d657461646174613a2055524920717565727920666f72206e6f60448201526e3732bc34b9ba32b73a103a37b5b2b760891b60648201526084016104d8565b6000610a5d60408051602081019091526000815290565b90506000815111610a7d5760405180602001604052806000815250610aa8565b80610a8784611235565b604051602001610a98929190611963565b6040516020818303038152906040525b9392505050565b60008281526005602052604080822080546001600160a01b0319166001600160a01b0387811691821790925591518593918516917f8c5be1e5ebec7d5bd14f71427d1e84f3dd0314c0f7b2291e5b200ac8c7c3b92591a4505050565b6000610b168261103c565b80519091506000906001600160a01b0316336001600160a01b03161480610b4d575033610b428461046d565b6001600160a01b0316145b80610b5f57508151610b5f90336102b0565b905080610bc95760405162461bcd60e51b815260206004820152603260248201527f455243373231413a207472616e736665722063616c6c6572206973206e6f74206044820152711bdddb995c881b9bdc88185c1c1c9bdd995960721b60648201526084016104d8565b846001600160a01b031682600001516001600160a01b031614610c3d5760405162461bcd60e51b815260206004820152602660248201527f455243373231413a207472616e736665722066726f6d20696e636f72726563746044820152651037bbb732b960d11b60648201526084016104d8565b6001600160a01b038416610ca15760405162461bcd60e51b815260206004820152602560248201527f455243373231413a207472616e7366657220746f20746865207a65726f206164604482015264647265737360d81b60648201526084016104d8565b610cb16000848460000151610aaf565b6001600160a01b03858116600090815260046020908152604080832080546fffffffffffffffffffffffffffffffff198082166001600160801b03928316600019018316179092558986168086528386208054938416938316600190810190931693909317909255825180840184529182524267ffffffffffffffff9081168386019081528a8752600390955292852091518254945196166001600160e01b031990941693909317600160a01b95909216949094021790925590610d76908590611992565b6000818152600360205260409020549091506001600160a01b0316610e0857610da0816000541190565b15610e085760408051808201825284516001600160a01b03908116825260208087015167ffffffffffffffff9081168285019081526000878152600390935294909120925183549451909116600160a01b026001600160e01b03199094169116179190911790555b83856001600160a01b0316876001600160a01b03167fddf252ad1be2c89b69c2b068fc378daa952ba7f163c4a11628f55a4df523b3ef60405160405180910390a45b505050505050565b60008111610ea25760405162461bcd60e51b815260206004820152601860248201527f7175616e74697479206d757374206265206e6f6e7a65726f000000000000000060448201526064016104d8565b6000805411610eea5760405162461bcd60e51b81526020600482015260146024820152731b9bc81d1bdad95b9cc81b5a5b9d1959081e595d60621b60448201526064016104d8565b60005460075410610f3d5760405162461bcd60e51b815260206004820152601c60248201527f616c6c206f776e657273686970732068617665206265656e207365740000000060448201526064016104d8565b60075460006001610f4e8484611992565b610f5891906119aa565b90506001600054610f6991906119aa565b811115610f82576001600054610f7f91906119aa565b90505b815b818111611028576000818152600360205260409020546001600160a01b0316611016576000610fb28261103c565b60408051808201825282516001600160a01b03908116825260209384015167ffffffffffffffff9081168584019081526000888152600390965293909420915182549351909416600160a01b026001600160e01b0319909316931692909217179055505b80611020816118f5565b915050610f84565b50611034816001611992565b600755505050565b604080518082019091526000808252602082015261105b826000541190565b6110ba5760405162461bcd60e51b815260206004820152602a60248201527f455243373231413a206f776e657220717565727920666f72206e6f6e657869736044820152693a32b73a103a37b5b2b760b11b60648201526084016104d8565b815b6000818152600360209081526040918290208251808401909352546001600160a01b038116808452600160a01b90910467ffffffffffffffff169183019190915215611109579392505050565b5080611114816119c1565b9150506110bc565b6108d3828260405180602001604052806000815250611333565b60006001600160a01b0384163b1561122957604051630a85bd0160e11b81526001600160a01b0385169063150b7a029061117a9033908990889088906004016119d8565b6020604051808303816000875af19250505080156111b5575060408051601f3d908101601f191682019092526111b291810190611a15565b60015b61120f573d8080156111e3576040519150601f19603f3d011682016040523d82523d6000602084013e6111e8565b606091505b5080516112075760405162461bcd60e51b81526004016104d890611910565b805181602001fd5b6001600160e01b031916630a85bd0160e11b14905061122d565b5060015b949350505050565b6060816112595750506040805180820190915260018152600360fc1b602082015290565b8160005b8115611283578061126d816118f5565b915061127c9050600a83611a48565b915061125d565b60008167ffffffffffffffff81111561129e5761129e61177f565b6040519080825280601f01601f1916602001820160405280156112c8576020820181803683370190505b5090505b841561122d576112dd6001836119aa565b91506112ea600a86611a5c565b6112f5906030611992565b60f81b81838151811061130a5761130a611a70565b60200101906001600160f81b031916908160001a90535061132c600a86611a48565b94506112cc565b6000546001600160a01b0384166113965760405162461bcd60e51b815260206004820152602160248201527f455243373231413a206d696e7420746f20746865207a65726f206164647265736044820152607360f81b60648201526084016104d8565b6113a1816000541190565b156113ee5760405162461bcd60e51b815260206004820152601d60248201527f455243373231413a20746f6b656e20616c7265616479206d696e74656400000060448201526064016104d8565b6000831161144a5760405162461bcd60e51b815260206004820152602360248201527f455243373231413a207175616e74697479206d7573742062652067726561746560448201526207220360ec1b60648201526084016104d8565b6001600160a01b0384166000908152600460209081526040918290208251808401845290546001600160801b038082168352600160801b90910416918101919091528151808301909252805190919081906114a6908790611a86565b6001600160801b031681526020018583602001516114c49190611a86565b6001600160801b039081169091526001600160a01b0380881660008181526004602090815260408083208751978301518716600160801b0297909616969096179094558451808601865291825267ffffffffffffffff4281168386019081528883526003909552948120915182549451909516600160a01b026001600160e01b031990941694909216939093179190911790915582905b858110156115e45760405182906001600160a01b038916906000907fddf252ad1be2c89b69c2b068fc378daa952ba7f163c4a11628f55a4df523b3ef908290a46115a86000888488611136565b6115c45760405162461bcd60e51b81526004016104d890611910565b816115ce816118f5565b92505080806115dc906118f5565b91505061155b565b506000819055610e4a565b6001600160e01b03198116811461062957600080fd5b60006020828403121561161757600080fd5b8135610aa8816115ef565b60005b8381101561163d578181015183820152602001611625565b838111156109cf5750506000910152565b60008151808452611666816020860160208601611622565b601f01601f19169290920160200192915050565b602081526000610aa8602083018461164e565b60006020828403121561169f57600080fd5b5035919050565b80356001600160a01b03811681146116bd57600080fd5b919050565b600080604083850312156116d557600080fd5b6116de836116a6565b946020939093013593505050565b60008060006060848603121561170157600080fd5b61170a846116a6565b9250611718602085016116a6565b9150604084013590509250925092565b60006020828403121561173a57600080fd5b610aa8826116a6565b6000806040838503121561175657600080fd5b61175f836116a6565b91506020830135801515811461177457600080fd5b809150509250929050565b634e487b7160e01b600052604160045260246000fd5b600080600080608085870312156117ab57600080fd5b6117b4856116a6565b93506117c2602086016116a6565b925060408501359150606085013567ffffffffffffffff808211156117e657600080fd5b818701915087601f8301126117fa57600080fd5b81358181111561180c5761180c61177f565b604051601f8201601f19908116603f011681019083821181831017156118345761183461177f565b816040528281528a602084870101111561184d57600080fd5b82602086016020830137600060208483010152809550505050505092959194509250565b6000806040838503121561188457600080fd5b61188d836116a6565b915061189b602084016116a6565b90509250929050565b600181811c908216806118b857607f821691505b602082108114156118d957634e487b7160e01b600052602260045260246000fd5b50919050565b634e487b7160e01b600052601160045260246000fd5b6000600019821415611909576119096118df565b5060010190565b60208082526033908201527f455243373231413a207472616e7366657220746f206e6f6e204552433732315260408201527232b1b2b4bb32b91034b6b83632b6b2b73a32b960691b606082015260800190565b60008351611975818460208801611622565b835190830190611989818360208801611622565b01949350505050565b600082198211156119a5576119a56118df565b500190565b6000828210156119bc576119bc6118df565b500390565b6000816119d0576119d06118df565b506000190190565b6001600160a01b0385811682528416602082015260408101839052608060608201819052600090611a0b9083018461164e565b9695505050505050565b600060208284031215611a2757600080fd5b8151610aa8816115ef565b634e487b7160e01b600052601260045260246000fd5b600082611a5757611a57611a32565b500490565b600082611a6b57611a6b611a32565b500690565b634e487b7160e01b600052603260045260246000fd5b60006001600160801b03808316818516808303821115611989576119896118df56fea2646970667358221220d62ad62683870c9d1ef8ee7f2dec21c24fa8e3e2aa112f63f9f2727316a94cd764736f6c634300080b0033",
  "bytecodeSha1": "8cbad2f730ced802628a8e16d3c7916a8966cc4b",
  "compiler": {
    "evm_version": "istanbul",
    "optimizer": {
      "enabled": true,
      "runs": 200
    },
    "version": "0.8.11+commit.d7f03943"
  },
  "contractName": "ERC721AOwnersExplicitMock",
  "language": "Solidity",
  "natspec": {
    "kind": "dev",
    "methods": {
      "approve(address,uint256)": {
        "details": "See {IERC721-approve}."
      },
      "balanceOf(address)": {
        "details": "See {IERC721-balanceOf}."
      },
      "getApproved(uint256)": {
        "details": "See {IERC721-getApproved}."
      },
      "isApprovedForAll(address,address)": {
        "details": "See {IERC721-isApprovedForAll}."
      },
      "name()": {
        "details": "See {IERC721Metadata-name}."
      },
      "ownerOf(uint256)": {
        "details": "See {IERC721-ownerOf}."
      },
      "safeTransferFrom(address,address,uint256)": {
        "details": "See {IERC721-safeTransferFrom}."
      },
      "safeTransferFrom(address,address,uint256,bytes)": {
        "details": "See {IERC721-safeTransferFrom}."
      },
      "setApprovalForAll(address,bool)": {
        "details": "See {IERC721-setApprovalForAll}."
      },
      "supportsInterface(bytes4)": {
        "details": "See {IERC165-supportsInterface}."
      },
      "symbol()": {
        "details": "See {IERC721Metadata-symbol}."
      },
      "tokenByIndex(uint256)": {
        "details": "See {IERC721Enumerable-tokenByIndex}."
      },
      "tokenOfOwnerByIndex(address,uint256)": {
        "details": "See {IERC721Enumerable-tokenOfOwnerByIndex}. This read function is O(totalSupply). If calling from a separate contract, be sure to test gas first. It may also degrade with extremely large collection sizes (e.g >> 10000), test for your use case."
      },
      "tokenURI(uint256)": {
        "details": "See {IERC721Metadata-tokenURI}."
      },
      "totalSupply()": {
        "details": "See {IERC721Enumerable-totalSupply}."
      },
      "transferFrom(address,address,uint256)": {
        "details": "See {IERC721-transferFrom}."
      }
    },
    "version": 1
  },
  "opcodes": "PUSH1 0x80 PUSH1 0x40 MSTORE CALLVALUE DUP1 ISZERO PUSH2 0x10 JUMPI PUSH1 0x0 DUP1 REVERT JUMPDEST POP PUSH1 0x4 CALLDATASIZE LT PUSH2 0x12C JUMPI PUSH1 0x0 CALLDATALOAD PUSH1 0xE0 SHR DUP1 PUSH4 0x6352211E GT PUSH2 0xAD JUMPI DUP1 PUSH4 0xB88D4FDE GT PUSH2 0x71 JUMPI DUP1 PUSH4 0xB88D4FDE EQ PUSH2 0x273 JUMPI DUP1 PUSH4 0xC87B56DD EQ PUSH2 0x286 JUMPI DUP1 PUSH4 0xD7224BA0 EQ PUSH2 0x299 JUMPI DUP1 PUSH4 0xE985E9C5 EQ PUSH2 0x2A2 JUMPI DUP1 PUSH4 0xF2523633 EQ PUSH2 0x2DE JUMPI PUSH1 0x0 DUP1 REVERT JUMPDEST DUP1 PUSH4 0x6352211E EQ PUSH2 0x21F JUMPI DUP1 PUSH4 0x70A08231 EQ PUSH2 0x232 JUMPI DUP1 PUSH4 0x95D89B41 EQ PUSH2 0x245 JUMPI DUP1 PUSH4 0xA1448194 EQ PUSH2 0x24D JUMPI DUP1 PUSH4 0xA22CB465 EQ PUSH2 0x260 JUMPI PUSH1 0x0 DUP1 REVERT JUMPDEST DUP1 PUSH4 0x23B872DD GT PUSH2 0xF4 JUMPI DUP1 PUSH4 0x23B872DD EQ PUSH2 0x1C0 JUMPI DUP1 PUSH4 0x2D20FB60 EQ PUSH2 0x1D3 JUMPI DUP1 PUSH4 0x2F745C59 EQ PUSH2 0x1E6 JUMPI DUP1 PUSH4 0x42842E0E EQ PUSH2 0x1F9 JUMPI DUP1 PUSH4 0x4F6CCCE7 EQ PUSH2 0x20C JUMPI PUSH1 0x0 DUP1 REVERT JUMPDEST DUP1 PUSH4 0x1FFC9A7 EQ PUSH2 0x131 JUMPI DUP1 PUSH4 0x6FDDE03 EQ PUSH2 0x159 JUMPI DUP1 PUSH4 0x81812FC EQ PUSH2 0x16E JUMPI DUP1 PUSH4 0x95EA7B3 EQ PUSH2 0x199 JUMPI DUP1 PUSH4 0x18160DDD EQ PUSH2 0x1AE JUMPI JUMPDEST PUSH1 0x0 DUP1 REVERT JUMPDEST PUSH2 0x144 PUSH2 0x13F CALLDATASIZE PUSH1 0x4 PUSH2 0x1605 JUMP JUMPDEST PUSH2 0x36E JUMP JUMPDEST PUSH1 0x40 MLOAD SWAP1 ISZERO ISZERO DUP2 MSTORE PUSH1 0x20 ADD JUMPDEST PUSH1 0x40 MLOAD DUP1 SWAP2 SUB SWAP1 RETURN JUMPDEST PUSH2 0x161 PUSH2 0x3DB JUMP JUMPDEST PUSH1 0x40 MLOAD PUSH2 0x150 SWAP2 SWAP1 PUSH2 0x167A JUMP JUMPDEST PUSH2 0x181 PUSH2 0x17C CALLDATASIZE PUSH1 0x4 PUSH2 0x168D JUMP JUMPDEST PUSH2 0x46D JUMP JUMPDEST PUSH1 0x40 MLOAD PUSH1 0x1 PUSH1 0x1 PUSH1 0xA0 SHL SUB SWAP1 SWAP2 AND DUP2 MSTORE PUSH1 0x20 ADD PUSH2 0x150 JUMP JUMPDEST PUSH2 0x1AC PUSH2 0x1A7 CALLDATASIZE PUSH1 0x4 PUSH2 0x16C2 JUMP JUMPDEST PUSH2 0x4FD JUMP JUMPDEST STOP JUMPDEST PUSH1 0x0 SLOAD JUMPDEST PUSH1 0x40 MLOAD SWAP1 DUP2 MSTORE PUSH1 0x20 ADD PUSH2 0x150 JUMP JUMPDEST PUSH2 0x1AC PUSH2 0x1CE CALLDATASIZE PUSH1 0x4 PUSH2 0x16EC JUMP JUMPDEST PUSH2 0x615 JUMP JUMPDEST PUSH2 0x1AC PUSH2 0x1E1 CALLDATASIZE PUSH1 0x4 PUSH2 0x168D JUMP JUMPDEST PUSH2 0x620 JUMP JUMPDEST PUSH2 0x1B2 PUSH2 0x1F4 CALLDATASIZE PUSH1 0x4 PUSH2 0x16C2 JUMP JUMPDEST PUSH2 0x62C JUMP JUMPDEST PUSH2 0x1AC PUSH2 0x207 CALLDATASIZE PUSH1 0x4 PUSH2 0x16EC JUMP JUMPDEST PUSH2 0x79A JUMP JUMPDEST PUSH2 0x1B2 PUSH2 0x21A CALLDATASIZE PUSH1 0x4 PUSH2 0x168D JUMP JUMPDEST PUSH2 0x7B5 JUMP JUMPDEST PUSH2 0x181 PUSH2 0x22D CALLDATASIZE PUSH1 0x4 PUSH2 0x168D JUMP JUMPDEST PUSH2 0x817 JUMP JUMPDEST PUSH2 0x1B2 PUSH2 0x240 CALLDATASIZE PUSH1 0x4 PUSH2 0x1728 JUMP JUMPDEST PUSH2 0x829 JUMP JUMPDEST PUSH2 0x161 PUSH2 0x8BA JUMP JUMPDEST PUSH2 0x1AC PUSH2 0x25B CALLDATASIZE PUSH1 0x4 PUSH2 0x16C2 JUMP JUMPDEST PUSH2 0x8C9 JUMP JUMPDEST PUSH2 0x1AC PUSH2 0x26E CALLDATASIZE PUSH1 0x4 PUSH2 0x1743 JUMP JUMPDEST PUSH2 0x8D7 JUMP JUMPDEST PUSH2 0x1AC PUSH2 0x281 CALLDATASIZE PUSH1 0x4 PUSH2 0x1795 JUMP JUMPDEST PUSH2 0x99C JUMP JUMPDEST PUSH2 0x161 PUSH2 0x294 CALLDATASIZE PUSH1 0x4 PUSH2 0x168D JUMP JUMPDEST PUSH2 0x9D5 JUMP JUMPDEST PUSH2 0x1B2 PUSH1 0x7 SLOAD DUP2 JUMP JUMPDEST PUSH2 0x144 PUSH2 0x2B0 CALLDATASIZE PUSH1 0x4 PUSH2 0x1871 JUMP JUMPDEST PUSH1 0x1 PUSH1 0x1 PUSH1 0xA0 SHL SUB SWAP2 DUP3 AND PUSH1 0x0 SWAP1 DUP2 MSTORE PUSH1 0x6 PUSH1 0x20 SWAP1 DUP2 MSTORE PUSH1 0x40 DUP1 DUP4 KECCAK256 SWAP4 SWAP1 SWAP5 AND DUP3 MSTORE SWAP2 SWAP1 SWAP2 MSTORE KECCAK256 SLOAD PUSH1 0xFF AND SWAP1 JUMP JUMPDEST PUSH2 0x340 PUSH2 0x2EC CALLDATASIZE PUSH1 0x4 PUSH2 0x168D JUMP JUMPDEST PUSH1 0x40 DUP1 MLOAD DUP1 DUP3 ADD SWAP1 SWAP2 MSTORE PUSH1 0x0 DUP1 DUP3 MSTORE PUSH1 0x20 DUP3 ADD MSTORE POP PUSH1 0x0 SWAP1 DUP2 MSTORE PUSH1 0x3 PUSH1 0x20 SWAP1 DUP2 MSTORE PUSH1 0x40 SWAP2 DUP3 SWAP1 KECCAK256 DUP3 MLOAD DUP1 DUP5 ADD SWAP1 SWAP4 MSTORE SLOAD PUSH1 0x1 PUSH1 0x1 PUSH1 0xA0 SHL SUB DUP2 AND DUP4 MSTORE PUSH1 0x1 PUSH1 0xA0 SHL SWAP1 DIV PUSH8 0xFFFFFFFFFFFFFFFF AND SWAP1 DUP3 ADD MSTORE SWAP1 JUMP JUMPDEST PUSH1 0x40 DUP1 MLOAD DUP3 MLOAD PUSH1 0x1 PUSH1 0x1 PUSH1 0xA0 SHL SUB AND DUP2 MSTORE PUSH1 0x20 SWAP3 DUP4 ADD MLOAD PUSH8 0xFFFFFFFFFFFFFFFF AND SWAP3 DUP2 ADD SWAP3 SWAP1 SWAP3 MSTORE ADD PUSH2 0x150 JUMP JUMPDEST PUSH1 0x0 PUSH1 0x1 PUSH1 0x1 PUSH1 0xE0 SHL SUB NOT DUP3 AND PUSH4 0x80AC58CD PUSH1 0xE0 SHL EQ DUP1 PUSH2 0x39F JUMPI POP PUSH1 0x1 PUSH1 0x1 PUSH1 0xE0 SHL SUB NOT DUP3 AND PUSH4 0x5B5E139F PUSH1 0xE0 SHL EQ JUMPDEST DUP1 PUSH2 0x3BA JUMPI POP PUSH1 0x1 PUSH1 0x1 PUSH1 0xE0 SHL SUB NOT DUP3 AND PUSH4 0x780E9D63 PUSH1 0xE0 SHL EQ JUMPDEST DUP1 PUSH2 0x3D5 JUMPI POP PUSH4 0x1FFC9A7 PUSH1 0xE0 SHL PUSH1 0x1 PUSH1 0x1 PUSH1 0xE0 SHL SUB NOT DUP4 AND EQ JUMPDEST SWAP3 SWAP2 POP POP JUMP JUMPDEST PUSH1 0x60 PUSH1 0x1 DUP1 SLOAD PUSH2 0x3EA SWAP1 PUSH2 0x18A4 JUMP JUMPDEST DUP1 PUSH1 0x1F ADD PUSH1 0x20 DUP1 SWAP2 DIV MUL PUSH1 0x20 ADD PUSH1 0x40 MLOAD SWAP1 DUP2 ADD PUSH1 0x40 MSTORE DUP1 SWAP3 SWAP2 SWAP1 DUP2 DUP2 MSTORE PUSH1 0x20 ADD DUP3 DUP1 SLOAD PUSH2 0x416 SWAP1 PUSH2 0x18A4 JUMP JUMPDEST DUP1 ISZERO PUSH2 0x463 JUMPI DUP1 PUSH1 0x1F LT PUSH2 0x438 JUMPI PUSH2 0x100 DUP1 DUP4 SLOAD DIV MUL DUP4 MSTORE SWAP2 PUSH1 0x20 ADD SWAP2 PUSH2 0x463 JUMP JUMPDEST DUP3 ADD SWAP2 SWAP1 PUSH1 0x0 MSTORE PUSH1 0x20 PUSH1 0x0 KECCAK256 SWAP1 JUMPDEST DUP2 SLOAD DUP2 MSTORE SWAP1 PUSH1 0x1 ADD SWAP1 PUSH1 0x20 ADD DUP1 DUP4 GT PUSH2 0x446 JUMPI DUP3 SWAP1 SUB PUSH1 0x1F AND DUP3 ADD SWAP2 JUMPDEST POP POP POP POP POP SWAP1 POP SWAP1 JUMP JUMPDEST PUSH1 0x0 PUSH2 0x47A DUP3 PUSH1 0x0 SLOAD GT SWAP1 JUMP JUMPDEST PUSH2 0x4E1 JUMPI PUSH1 0x40 MLOAD PUSH3 0x461BCD PUSH1 0xE5 SHL DUP2 MSTORE PUSH1 0x20 PUSH1 0x4 DUP3 ADD MSTORE PUSH1 0x2D PUSH1 0x24 DUP3 ADD MSTORE PUSH32 0x455243373231413A20617070726F76656420717565727920666F72206E6F6E65 PUSH1 0x44 DUP3 ADD MSTORE PUSH13 0x3C34B9BA32B73A103A37B5B2B7 PUSH1 0x99 SHL PUSH1 0x64 DUP3 ADD MSTORE PUSH1 0x84 ADD JUMPDEST PUSH1 0x40 MLOAD DUP1 SWAP2 SUB SWAP1 REVERT JUMPDEST POP PUSH1 0x0 SWAP1 DUP2 MSTORE PUSH1 0x5 PUSH1 0x20 MSTORE PUSH1 0x40 SWAP1 KECCAK256 SLOAD PUSH1 0x1 PUSH1 0x1 PUSH1 0xA0 SHL SUB AND SWAP1 JUMP JUMPDEST PUSH1 0x0 PUSH2 0x508 DUP3 PUSH2 0x817 JUMP JUMPDEST SWAP1 POP DUP1 PUSH1 0x1 PUSH1 0x1 PUSH1 0xA0 SHL SUB AND DUP4 PUSH1 0x1 PUSH1 0x1 PUSH1 0xA0 SHL SUB AND EQ ISZERO PUSH2 0x577 JUMPI PUSH1 0x40 MLOAD PUSH3 0x461BCD PUSH1 0xE5 SHL DUP2 MSTORE PUSH1 0x20 PUSH1 0x4 DUP3 ADD MSTORE PUSH1 0x22 PUSH1 0x24 DUP3 ADD MSTORE PUSH32 0x455243373231413A20617070726F76616C20746F2063757272656E74206F776E PUSH1 0x44 DUP3 ADD MSTORE PUSH2 0x32B9 PUSH1 0xF1 SHL PUSH1 0x64 DUP3 ADD MSTORE PUSH1 0x84 ADD PUSH2 0x4D8 JUMP JUMPDEST CALLER PUSH1 0x1 PUSH1 0x1 PUSH1 0xA0 SHL SUB DUP3 AND EQ DUP1 PUSH2 0x593 JUMPI POP PUSH2 0x593 DUP2 CALLER PUSH2 0x2B0 JUMP JUMPDEST PUSH2 0x605 JUMPI PUSH1 0x40 MLOAD PUSH3 0x461BCD PUSH1 0xE5 SHL DUP2 MSTORE PUSH1 0x20 PUSH1 0x4 DUP3 ADD MSTORE PUSH1 0x39 PUSH1 0x24 DUP3 ADD MSTORE PUSH32 0x455243373231413A20617070726F76652063616C6C6572206973206E6F74206F PUSH1 0x44 DUP3 ADD MSTORE PUSH32 0x776E6572206E6F7220617070726F76656420666F7220616C6C00000000000000 PUSH1 0x64 DUP3 ADD MSTORE PUSH1 0x84 ADD PUSH2 0x4D8 JUMP JUMPDEST PUSH2 0x610 DUP4 DUP4 DUP4 PUSH2 0xAAF JUMP JUMPDEST POP POP POP JUMP JUMPDEST PUSH2 0x610 DUP4 DUP4 DUP4 PUSH2 0xB0B JUMP JUMPDEST PUSH2 0x629 DUP2 PUSH2 0xE52 JUMP JUMPDEST POP JUMP JUMPDEST PUSH1 0x0 PUSH2 0x637 DUP4 PUSH2 0x829 JUMP JUMPDEST DUP3 LT PUSH2 0x690 JUMPI PUSH1 0x40 MLOAD PUSH3 0x461BCD PUSH1 0xE5 SHL DUP2 MSTORE PUSH1 0x20 PUSH1 0x4 DUP3 ADD MSTORE PUSH1 0x22 PUSH1 0x24 DUP3 ADD MSTORE PUSH32 0x455243373231413A206F776E657220696E646578206F7574206F6620626F756E PUSH1 0x44 DUP3 ADD MSTORE PUSH2 0x6473 PUSH1 0xF0 SHL PUSH1 0x64 DUP3 ADD MSTORE PUSH1 0x84 ADD PUSH2 0x4D8 JUMP JUMPDEST PUSH1 0x0 DUP1 SLOAD SWAP1 DUP1 DUP1 JUMPDEST DUP4 DUP2 LT ISZERO PUSH2 0x73A JUMPI PUSH1 0x0 DUP2 DUP2 MSTORE PUSH1 0x3 PUSH1 0x20 SWAP1 DUP2 MSTORE PUSH1 0x40 SWAP2 DUP3 SWAP1 KECCAK256 DUP3 MLOAD DUP1 DUP5 ADD SWAP1 SWAP4 MSTORE SLOAD PUSH1 0x1 PUSH1 0x1 PUSH1 0xA0 SHL SUB DUP2 AND DUP1 DUP5 MSTORE PUSH1 0x1 PUSH1 0xA0 SHL SWAP1 SWAP2 DIV PUSH8 0xFFFFFFFFFFFFFFFF AND SWAP2 DUP4 ADD SWAP2 SWAP1 SWAP2 MSTORE ISZERO PUSH2 0x6EB JUMPI DUP1 MLOAD SWAP3 POP JUMPDEST DUP8 PUSH1 0x1 PUSH1 0x1 PUSH1 0xA0 SHL SUB AND DUP4 PUSH1 0x1 PUSH1 0x1 PUSH1 0xA0 SHL SUB AND EQ ISZERO PUSH2 0x727 JUMPI DUP7 DUP5 EQ ISZERO PUSH2 0x719 JUMPI POP SWAP4 POP PUSH2 0x3D5 SWAP3 POP POP POP JUMP JUMPDEST DUP4 PUSH2 0x723 DUP2 PUSH2 0x18F5 JUMP JUMPDEST SWAP5 POP POP JUMPDEST POP DUP1 PUSH2 0x732 DUP2 PUSH2 0x18F5 JUMP JUMPDEST SWAP2 POP POP PUSH2 0x698 JUMP JUMPDEST POP PUSH1 0x40 MLOAD PUSH3 0x461BCD PUSH1 0xE5 SHL DUP2 MSTORE PUSH1 0x20 PUSH1 0x4 DUP3 ADD MSTORE PUSH1 0x2E PUSH1 0x24 DUP3 ADD MSTORE PUSH32 0x455243373231413A20756E61626C6520746F2067657420746F6B656E206F6620 PUSH1 0x44 DUP3 ADD MSTORE PUSH14 0xDEEEDCCAE440C4F240D2DCC8CAF PUSH1 0x93 SHL PUSH1 0x64 DUP3 ADD MSTORE PUSH1 0x84 ADD PUSH2 0x4D8 JUMP JUMPDEST PUSH2 0x610 DUP4 DUP4 DUP4 PUSH1 0x40 MLOAD DUP1 PUSH1 0x20 ADD PUSH1 0x40 MSTORE DUP1 PUSH1 0x0 DUP2 MSTORE POP PUSH2 0x99C JUMP JUMPDEST PUSH1 0x0 DUP1 SLOAD DUP3 LT PUSH2 0x813 JUMPI PUSH1 0x40 MLOAD PUSH3 0x461BCD PUSH1 0xE5 SHL DUP2 MSTORE PUSH1 0x20 PUSH1 0x4 DUP3 ADD MSTORE PUSH1 0x23 PUSH1 0x24 DUP3 ADD MSTORE PUSH32 0x455243373231413A20676C6F62616C20696E646578206F7574206F6620626F75 PUSH1 0x44 DUP3 ADD MSTORE PUSH3 0x6E6473 PUSH1 0xE8 SHL PUSH1 0x64 DUP3 ADD MSTORE PUSH1 0x84 ADD PUSH2 0x4D8 JUMP JUMPDEST POP SWAP1 JUMP JUMPDEST PUSH1 0x0 PUSH2 0x822 DUP3 PUSH2 0x103C JUMP JUMPDEST MLOAD SWAP3 SWAP2 POP POP JUMP JUMPDEST PUSH1 0x0 PUSH1 0x1 PUSH1 0x1 PUSH1 0xA0 SHL SUB DUP3 AND PUSH2 0x895 JUMPI PUSH1 0x40 MLOAD PUSH3 0x461BCD PUSH1 0xE5 SHL DUP2 MSTORE PUSH1 0x20 PUSH1 0x4 DUP3 ADD MSTORE PUSH1 0x2B PUSH1 0x24 DUP3 ADD MSTORE PUSH32 0x455243373231413A2062616C616E636520717565727920666F7220746865207A PUSH1 0x44 DUP3 ADD MSTORE PUSH11 0x65726F2061646472657373 PUSH1 0xA8 SHL PUSH1 0x64 DUP3 ADD MSTORE PUSH1 0x84 ADD PUSH2 0x4D8 JUMP JUMPDEST POP PUSH1 0x1 PUSH1 0x1 PUSH1 0xA0 SHL SUB AND PUSH1 0x0 SWAP1 DUP2 MSTORE PUSH1 0x4 PUSH1 0x20 MSTORE PUSH1 0x40 SWAP1 KECCAK256 SLOAD PUSH1 0x1 PUSH1 0x1 PUSH1 0x80 SHL SUB AND SWAP1 JUMP JUMPDEST PUSH1 0x60 PUSH1 0x2 DUP1 SLOAD PUSH2 0x3EA SWAP1 PUSH2 0x18A4 JUMP JUMPDEST PUSH2 0x8D3 DUP3 DUP3 PUSH2 0x111C JUMP JUMPDEST POP POP JUMP JUMPDEST PUSH1 0x1 PUSH1 0x1 PUSH1 0xA0 SHL SUB DUP3 AND CALLER EQ ISZERO PUSH2 0x930 JUMPI PUSH1 0x40 MLOAD PUSH3 0x461BCD PUSH1 0xE5 SHL DUP2 MSTORE PUSH1 0x20 PUSH1 0x4 DUP3 ADD MSTORE PUSH1 0x1A PUSH1 0x24 DUP3 ADD MSTORE PUSH32 0x455243373231413A20617070726F766520746F2063616C6C6572000000000000 PUSH1 0x44 DUP3 ADD MSTORE PUSH1 0x64 ADD PUSH2 0x4D8 JUMP JUMPDEST CALLER PUSH1 0x0 DUP2 DUP2 MSTORE PUSH1 0x6 PUSH1 0x20 SWAP1 DUP2 MSTORE PUSH1 0x40 DUP1 DUP4 KECCAK256 PUSH1 0x1 PUSH1 0x1 PUSH1 0xA0 SHL SUB DUP8 AND DUP1 DUP6 MSTORE SWAP1 DUP4 MSTORE SWAP3 DUP2 SWAP1 KECCAK256 DUP1 SLOAD PUSH1 0xFF NOT AND DUP7 ISZERO ISZERO SWAP1 DUP2 OR SWAP1 SWAP2 SSTORE SWAP1 MLOAD SWAP1 DUP2 MSTORE SWAP2 SWAP3 SWAP2 PUSH32 0x17307EAB39AB6107E8899845AD3D59BD9653F200F220920489CA2B5937696C31 SWAP2 ADD PUSH1 0x40 MLOAD DUP1 SWAP2 SUB SWAP1 LOG3 POP POP JUMP JUMPDEST PUSH2 0x9A7 DUP5 DUP5 DUP5 PUSH2 0xB0B JUMP JUMPDEST PUSH2 0x9B3 DUP5 DUP5 DUP5 DUP5 PUSH2 0x1136 JUMP JUMPDEST PUSH2 0x9CF JUMPI PUSH1 0x40 MLOAD PUSH3 0x461BCD PUSH1 0xE5 SHL DUP2 MSTORE PUSH1 0x4 ADD PUSH2 0x4D8 SWAP1 PUSH2 0x1910 JUMP JUMPDEST POP POP POP POP JUMP JUMPDEST PUSH1 0x60 PUSH2 0x9E2 DUP3 PUSH1 0x0 SLOAD GT SWAP1 JUMP JUMPDEST PUSH2 0xA46 JUMPI PUSH1 0x40 MLOAD PUSH3 0x461BCD PUSH1 0xE5 SHL DUP2 MSTORE PUSH1 0x20 PUSH1 0x4 DUP3 ADD MSTORE PUSH1 0x2F PUSH1 0x24 DUP3 ADD MSTORE PUSH32 0x4552433732314D657461646174613A2055524920717565727920666F72206E6F PUSH1 0x44 DUP3 ADD MSTORE PUSH15 0x3732BC34B9BA32B73A103A37B5B2B7 PUSH1 0x89 SHL PUSH1 0x64 DUP3 ADD MSTORE PUSH1 0x84 ADD PUSH2 0x4D8 JUMP JUMPDEST PUSH1 0x0 PUSH2 0xA5D PUSH1 0x40 DUP1 MLOAD PUSH1 0x20 DUP2 ADD SWAP1 SWAP2 MSTORE PUSH1 0x0 DUP2 MSTORE SWAP1 JUMP JUMPDEST SWAP1 POP PUSH1 0x0 DUP2 MLOAD GT PUSH2 0xA7D JUMPI PUSH1 0x40 MLOAD DUP1 PUSH1 0x20 ADD PUSH1 0x40 MSTORE DUP1 PUSH1 0x0 DUP2 MSTORE POP PUSH2 0xAA8 JUMP JUMPDEST DUP1 PUSH2 0xA87 DUP5 PUSH2 0x1235 JUMP JUMPDEST PUSH1 0x40 MLOAD PUSH1 0x20 ADD PUSH2 0xA98 SWAP3 SWAP2 SWAP1 PUSH2 0x1963 JUMP JUMPDEST PUSH1 0x40 MLOAD PUSH1 0x20 DUP2 DUP4 SUB SUB DUP2 MSTORE SWAP1 PUSH1 0x40 MSTORE JUMPDEST SWAP4 SWAP3 POP POP POP JUMP JUMPDEST PUSH1 0x0 DUP3 DUP2 MSTORE PUSH1 0x5 PUSH1 0x20 MSTORE PUSH1 0x40 DUP1 DUP3 KECCAK256 DUP1 SLOAD PUSH1 0x1 PUSH1 0x1 PUSH1 0xA0 SHL SUB NOT AND PUSH1 0x1 PUSH1 0x1 PUSH1 0xA0 SHL SUB DUP8 DUP2 AND SWAP2 DUP3 OR SWAP1 SWAP3 SSTORE SWAP2 MLOAD DUP6 SWAP4 SWAP2 DUP6 AND SWAP2 PUSH32 0x8C5BE1E5EBEC7D5BD14F71427D1E84F3DD0314C0F7B2291E5B200AC8C7C3B925 SWAP2 LOG4 POP POP POP JUMP JUMPDEST PUSH1 0x0 PUSH2 0xB16 DUP3 PUSH2 0x103C JUMP JUMPDEST DUP1 MLOAD SWAP1 SWAP2 POP PUSH1 0x0 SWAP1 PUSH1 0x1 PUSH1 0x1 PUSH1 0xA0 SHL SUB AND CALLER PUSH1 0x1 PUSH1 0x1 PUSH1 0xA0 SHL SUB AND EQ DUP1 PUSH2 0xB4D JUMPI POP CALLER PUSH2 0xB42 DUP5 PUSH2 0x46D JUMP JUMPDEST PUSH1 0x1 PUSH1 0x1 PUSH1 0xA0 SHL SUB AND EQ JUMPDEST DUP1 PUSH2 0xB5F JUMPI POP DUP2 MLOAD PUSH2 0xB5F SWAP1 CALLER PUSH2 0x2B0 JUMP JUMPDEST SWAP1 POP DUP1 PUSH2 0xBC9 JUMPI PUSH1 0x40 MLOAD PUSH3 0x461BCD PUSH1 0xE5 SHL DUP2 MSTORE PUSH1 0x20 PUSH1 0x4 DUP3 ADD MSTORE PUSH1 0x32 PUSH1 0x24 DUP3 ADD MSTORE PUSH32 0x455243373231413A207472616E736665722063616C6C6572206973206E6F7420 PUSH1 0x44 DUP3 ADD MSTORE PUSH18 0x1BDDDB995C881B9BDC88185C1C1C9BDD9959 PUSH1 0x72 SHL PUSH1 0x64 DUP3 ADD MSTORE PUSH1 0x84 ADD PUSH2 0x4D8 JUMP JUMPDEST DUP5 PUSH1 0x1 PUSH1 0x1 PUSH1 0xA0 SHL SUB AND DUP3 PUSH1 0x0 ADD MLOAD PUSH1 0x1 PUSH1 0x1 PUSH1 0xA0 SHL SUB AND EQ PUSH2 0xC3D JUMPI PUSH1 0x40 MLOAD PUSH3 0x461BCD PUSH1 0xE5 SHL DUP2 MSTORE PUSH1 0x20 PUSH1 0x4 DUP3 ADD MSTORE PUSH1 0x26 PUSH1 0x24 DUP3 ADD MSTORE PUSH32 0x455243373231413A207472616E736665722066726F6D20696E636F7272656374 PUSH1 0x44 DUP3 ADD MSTORE PUSH6 0x1037BBB732B9 PUSH1 0xD1 SHL PUSH1 0x64 DUP3 ADD MSTORE PUSH1 0x84 ADD PUSH2 0x4D8 JUMP JUMPDEST PUSH1 0x1 PUSH1 0x1 PUSH1 0xA0 SHL SUB DUP5 AND PUSH2 0xCA1 JUMPI PUSH1 0x40 MLOAD PUSH3 0x461BCD PUSH1 0xE5 SHL DUP2 MSTORE PUSH1 0x20 PUSH1 0x4 DUP3 ADD MSTORE PUSH1 0x25 PUSH1 0x24 DUP3 ADD MSTORE PUSH32 0x455243373231413A207472616E7366657220746F20746865207A65726F206164 PUSH1 0x44 DUP3 ADD MSTORE PUSH5 0x6472657373 PUSH1 0xD8 SHL PUSH1 0x64 DUP3 ADD MSTORE PUSH1 0x84 ADD PUSH2 0x4D8 JUMP JUMPDEST PUSH2 0xCB1 PUSH1 0x0 DUP5 DUP5 PUSH1 0x0 ADD MLOAD PUSH2 0xAAF JUMP JUMPDEST PUSH1 0x1 PUSH1 0x1 PUSH1 0xA0 SHL SUB DUP6 DUP2 AND PUSH1 0x0 SWAP1 DUP2 MSTORE PUSH1 0x4 PUSH1 0x20 SWAP1 DUP2 MSTORE PUSH1 0x40 DUP1 DUP4 KECCAK256 DUP1 SLOAD PUSH16 0xFFFFFFFFFFFFFFFFFFFFFFFFFFFFFFFF NOT DUP1 DUP3 AND PUSH1 0x1 PUSH1 0x1 PUSH1 0x80 SHL SUB SWAP3 DUP4 AND PUSH1 0x0 NOT ADD DUP4 AND OR SWAP1 SWAP3 SSTORE DUP10 DUP7 AND DUP1 DUP7 MSTORE DUP4 DUP7 KECCAK256 DUP1 SLOAD SWAP4 DUP5 AND SWAP4 DUP4 AND PUSH1 0x1 SWAP1 DUP2 ADD SWAP1 SWAP4 AND SWAP4 SWAP1 SWAP4 OR SWAP1 SWAP3 SSTORE DUP3 MLOAD DUP1 DUP5 ADD DUP5 MSTORE SWAP2 DUP3 MSTORE TIMESTAMP PUSH8 0xFFFFFFFFFFFFFFFF SWAP1 DUP2 AND DUP4 DUP7 ADD SWAP1 DUP2 MSTORE DUP11 DUP8 MSTORE PUSH1 0x3 SWAP1 SWAP6 MSTORE SWAP3 DUP6 KECCAK256 SWAP2 MLOAD DUP3 SLOAD SWAP5 MLOAD SWAP7 AND PUSH1 0x1 PUSH1 0x1 PUSH1 0xE0 SHL SUB NOT SWAP1 SWAP5 AND SWAP4 SWAP1 SWAP4 OR PUSH1 0x1 PUSH1 0xA0 SHL SWAP6 SWAP1 SWAP3 AND SWAP5 SWAP1 SWAP5 MUL OR SWAP1 SWAP3 SSTORE SWAP1 PUSH2 0xD76 SWAP1 DUP6 SWAP1 PUSH2 0x1992 JUMP JUMPDEST PUSH1 0x0 DUP2 DUP2 MSTORE PUSH1 0x3 PUSH1 0x20 MSTORE PUSH1 0x40 SWAP1 KECCAK256 SLOAD SWAP1 SWAP2 POP PUSH1 0x1 PUSH1 0x1 PUSH1 0xA0 SHL SUB AND PUSH2 0xE08 JUMPI PUSH2 0xDA0 DUP2 PUSH1 0x0 SLOAD GT SWAP1 JUMP JUMPDEST ISZERO PUSH2 0xE08 JUMPI PUSH1 0x40 DUP1 MLOAD DUP1 DUP3 ADD DUP3 MSTORE DUP5 MLOAD PUSH1 0x1 PUSH1 0x1 PUSH1 0xA0 SHL SUB SWAP1 DUP2 AND DUP3 MSTORE PUSH1 0x20 DUP1 DUP8 ADD MLOAD PUSH8 0xFFFFFFFFFFFFFFFF SWAP1 DUP2 AND DUP3 DUP6 ADD SWAP1 DUP2 MSTORE PUSH1 0x0 DUP8 DUP2 MSTORE PUSH1 0x3 SWAP1 SWAP4 MSTORE SWAP5 SWAP1 SWAP2 KECCAK256 SWAP3 MLOAD DUP4 SLOAD SWAP5 MLOAD SWAP1 SWAP2 AND PUSH1 0x1 PUSH1 0xA0 SHL MUL PUSH1 0x1 PUSH1 0x1 PUSH1 0xE0 SHL SUB NOT SWAP1 SWAP5 AND SWAP2 AND OR SWAP2 SWAP1 SWAP2 OR SWAP1 SSTORE JUMPDEST DUP4 DUP6 PUSH1 0x1 PUSH1 0x1 PUSH1 0xA0 SHL SUB AND DUP8 PUSH1 0x1 PUSH1 0x1 PUSH1 0xA0 SHL SUB AND PUSH32 0xDDF252AD1BE2C89B69C2B068FC378DAA952BA7F163C4A11628F55A4DF523B3EF PUSH1 0x40 MLOAD PUSH1 0x40 MLOAD DUP1 SWAP2 SUB SWAP1 LOG4 JUMPDEST POP POP POP POP POP POP JUMP JUMPDEST PUSH1 0x0 DUP2 GT PUSH2 0xEA2 JUMPI PUSH1 0x40 MLOAD PUSH3 0x461BCD PUSH1 0xE5 SHL DUP2 MSTORE PUSH1 0x20 PUSH1 0x4 DUP3 ADD MSTORE PUSH1 0x18 PUSH1 0x24 DUP3 ADD MSTORE PUSH32 0x7175616E74697479206D757374206265206E6F6E7A65726F0000000000000000 PUSH1 0x44 DUP3 ADD MSTORE PUSH1 0x64 ADD PUSH2 0x4D8 JUMP JUMPDEST PUSH1 0x0 DUP1 SLOAD GT PUSH2 0xEEA JUMPI PUSH1 0x40 MLOAD PUSH3 0x461BCD PUSH1 0xE5 SHL DUP2 MSTORE PUSH1 0x20 PUSH1 0x4 DUP3 ADD MSTORE PUSH1 0x14 PUSH1 0x24 DUP3 ADD MSTORE PUSH20 0x1B9BC81D1BDAD95B9CC81B5A5B9D1959081E595D PUSH1 0x62 SHL PUSH1 0x44 DUP3 ADD MSTORE PUSH1 0x64 ADD PUSH2 0x4D8 JUMP JUMPDEST PUSH1 0x0 SLOAD PUSH1 0x7 SLOAD LT PUSH2 0xF3D JUMPI PUSH1 0x40 MLOAD PUSH3 0x461BCD PUSH1 0xE5 SHL DUP2 MSTORE PUSH1 0x20 PUSH1 0x4 DUP3 ADD MSTORE PUSH1 0x1C PUSH1 0x24 DUP3 ADD MSTORE PUSH32 0x616C6C206F776E657273686970732068617665206265656E2073657400000000 PUSH1 0x44 DUP3 ADD MSTORE PUSH1 0x64 ADD PUSH2 0x4D8 JUMP JUMPDEST PUSH1 0x7 SLOAD PUSH1 0x0 PUSH1 0x1 PUSH2 0xF4E DUP5 DUP5 PUSH2 0x1992 JUMP JUMPDEST PUSH2 0xF58 SWAP2 SWAP1 PUSH2 0x19AA JUMP JUMPDEST SWAP1 POP PUSH1 0x1 PUSH1 0x0 SLOAD PUSH2 0xF69 SWAP2 SWAP1 PUSH2 0x19AA JUMP JUMPDEST DUP2 GT ISZERO PUSH2 0xF82 JUMPI PUSH1 0x1 PUSH1 0x0 SLOAD PUSH2 0xF7F SWAP2 SWAP1 PUSH2 0x19AA JUMP JUMPDEST SWAP1 POP JUMPDEST DUP2 JUMPDEST DUP2 DUP2 GT PUSH2 0x1028 JUMPI PUSH1 0x0 DUP2 DUP2 MSTORE PUSH1 0x3 PUSH1 0x20 MSTORE PUSH1 0x40 SWAP1 KECCAK256 SLOAD PUSH1 0x1 PUSH1 0x1 PUSH1 0xA0 SHL SUB AND PUSH2 0x1016 JUMPI PUSH1 0x0 PUSH2 0xFB2 DUP3 PUSH2 0x103C JUMP JUMPDEST PUSH1 0x40 DUP1 MLOAD DUP1 DUP3 ADD DUP3 MSTORE DUP3 MLOAD PUSH1 0x1 PUSH1 0x1 PUSH1 0xA0 SHL SUB SWAP1 DUP2 AND DUP3 MSTORE PUSH1 0x20 SWAP4 DUP5 ADD MLOAD PUSH8 0xFFFFFFFFFFFFFFFF SWAP1 DUP2 AND DUP6 DUP5 ADD SWAP1 DUP2 MSTORE PUSH1 0x0 DUP9 DUP2 MSTORE PUSH1 0x3 SWAP1 SWAP7 MSTORE SWAP4 SWAP1 SWAP5 KECCAK256 SWAP2 MLOAD DUP3 SLOAD SWAP4 MLOAD SWAP1 SWAP5 AND PUSH1 0x1 PUSH1 0xA0 SHL MUL PUSH1 0x1 PUSH1 0x1 PUSH1 0xE0 SHL SUB NOT SWAP1 SWAP4 AND SWAP4 AND SWAP3 SWAP1 SWAP3 OR OR SWAP1 SSTORE POP JUMPDEST DUP1 PUSH2 0x1020 DUP2 PUSH2 0x18F5 JUMP JUMPDEST SWAP2 POP POP PUSH2 0xF84 JUMP JUMPDEST POP PUSH2 0x1034 DUP2 PUSH1 0x1 PUSH2 0x1992 JUMP JUMPDEST PUSH1 0x7 SSTORE POP POP POP JUMP JUMPDEST PUSH1 0x40 DUP1 MLOAD DUP1 DUP3 ADD SWAP1 SWAP2 MSTORE PUSH1 0x0 DUP1 DUP3 MSTORE PUSH1 0x20 DUP3 ADD MSTORE PUSH2 0x105B DUP3 PUSH1 0x0 SLOAD GT SWAP1 JUMP JUMPDEST PUSH2 0x10BA JUMPI PUSH1 0x40 MLOAD PUSH3 0x461BCD PUSH1 0xE5 SHL DUP2 MSTORE PUSH1 0x20 PUSH1 0x4 DUP3 ADD MSTORE PUSH1 0x2A PUSH1 0x24 DUP3 ADD MSTORE PUSH32 0x455243373231413A206F776E657220717565727920666F72206E6F6E65786973 PUSH1 0x44 DUP3 ADD MSTORE PUSH10 0x3A32B73A103A37B5B2B7 PUSH1 0xB1 SHL PUSH1 0x64 DUP3 ADD MSTORE PUSH1 0x84 ADD PUSH2 0x4D8 JUMP JUMPDEST DUP2 JUMPDEST PUSH1 0x0 DUP2 DUP2 MSTORE PUSH1 0x3 PUSH1 0x20 SWAP1 DUP2 MSTORE PUSH1 0x40 SWAP2 DUP3 SWAP1 KECCAK256 DUP3 MLOAD DUP1 DUP5 ADD SWAP1 SWAP4 MSTORE SLOAD PUSH1 0x1 PUSH1 0x1 PUSH1 0xA0 SHL SUB DUP2 AND DUP1 DUP5 MSTORE PUSH1 0x1 PUSH1 0xA0 SHL SWAP1 SWAP2 DIV PUSH8 0xFFFFFFFFFFFFFFFF AND SWAP2 DUP4 ADD SWAP2 SWAP1 SWAP2 MSTORE ISZERO PUSH2 0x1109 JUMPI SWAP4 SWAP3 POP POP POP JUMP JUMPDEST POP DUP1 PUSH2 0x1114 DUP2 PUSH2 0x19C1 JUMP JUMPDEST SWAP2 POP POP PUSH2 0x10BC JUMP JUMPDEST PUSH2 0x8D3 DUP3 DUP3 PUSH1 0x40 MLOAD DUP1 PUSH1 0x20 ADD PUSH1 0x40 MSTORE DUP1 PUSH1 0x0 DUP2 MSTORE POP PUSH2 0x1333 JUMP JUMPDEST PUSH1 0x0 PUSH1 0x1 PUSH1 0x1 PUSH1 0xA0 SHL SUB DUP5 AND EXTCODESIZE ISZERO PUSH2 0x1229 JUMPI PUSH1 0x40 MLOAD PUSH4 0xA85BD01 PUSH1 0xE1 SHL DUP2 MSTORE PUSH1 0x1 PUSH1 0x1 PUSH1 0xA0 SHL SUB DUP6 AND SWAP1 PUSH4 0x150B7A02 SWAP1 PUSH2 0x117A SWAP1 CALLER SWAP1 DUP10 SWAP1 DUP9 SWAP1 DUP9 SWAP1 PUSH1 0x4 ADD PUSH2 0x19D8 JUMP JUMPDEST PUSH1 0x20 PUSH1 0x40 MLOAD DUP1 DUP4 SUB DUP2 PUSH1 0x0 DUP8 GAS CALL SWAP3 POP POP POP DUP1 ISZERO PUSH2 0x11B5 JUMPI POP PUSH1 0x40 DUP1 MLOAD PUSH1 0x1F RETURNDATASIZE SWAP1 DUP2 ADD PUSH1 0x1F NOT AND DUP3 ADD SWAP1 SWAP3 MSTORE PUSH2 0x11B2 SWAP2 DUP2 ADD SWAP1 PUSH2 0x1A15 JUMP JUMPDEST PUSH1 0x1 JUMPDEST PUSH2 0x120F JUMPI RETURNDATASIZE DUP1 DUP1 ISZERO PUSH2 0x11E3 JUMPI PUSH1 0x40 MLOAD SWAP2 POP PUSH1 0x1F NOT PUSH1 0x3F RETURNDATASIZE ADD AND DUP3 ADD PUSH1 0x40 MSTORE RETURNDATASIZE DUP3 MSTORE RETURNDATASIZE PUSH1 0x0 PUSH1 0x20 DUP5 ADD RETURNDATACOPY PUSH2 0x11E8 JUMP JUMPDEST PUSH1 0x60 SWAP2 POP JUMPDEST POP DUP1 MLOAD PUSH2 0x1207 JUMPI PUSH1 0x40 MLOAD PUSH3 0x461BCD PUSH1 0xE5 SHL DUP2 MSTORE PUSH1 0x4 ADD PUSH2 0x4D8 SWAP1 PUSH2 0x1910 JUMP JUMPDEST DUP1 MLOAD DUP2 PUSH1 0x20 ADD REVERT JUMPDEST PUSH1 0x1 PUSH1 0x1 PUSH1 0xE0 SHL SUB NOT AND PUSH4 0xA85BD01 PUSH1 0xE1 SHL EQ SWAP1 POP PUSH2 0x122D JUMP JUMPDEST POP PUSH1 0x1 JUMPDEST SWAP5 SWAP4 POP POP POP POP JUMP JUMPDEST PUSH1 0x60 DUP2 PUSH2 0x1259 JUMPI POP POP PUSH1 0x40 DUP1 MLOAD DUP1 DUP3 ADD SWAP1 SWAP2 MSTORE PUSH1 0x1 DUP2 MSTORE PUSH1 0x3 PUSH1 0xFC SHL PUSH1 0x20 DUP3 ADD MSTORE SWAP1 JUMP JUMPDEST DUP2 PUSH1 0x0 JUMPDEST DUP2 ISZERO PUSH2 0x1283 JUMPI DUP1 PUSH2 0x126D DUP2 PUSH2 0x18F5 JUMP JUMPDEST SWAP2 POP PUSH2 0x127C SWAP1 POP PUSH1 0xA DUP4 PUSH2 0x1A48 JUMP JUMPDEST SWAP2 POP PUSH2 0x125D JUMP JUMPDEST PUSH1 0x0 DUP2 PUSH8 0xFFFFFFFFFFFFFFFF DUP2 GT ISZERO PUSH2 0x129E JUMPI PUSH2 0x129E PUSH2 0x177F JUMP JUMPDEST PUSH1 0x40 MLOAD SWAP1 DUP1 DUP3 MSTORE DUP1 PUSH1 0x1F ADD PUSH1 0x1F NOT AND PUSH1 0x20 ADD DUP3 ADD PUSH1 0x40 MSTORE DUP1 ISZERO PUSH2 0x12C8 JUMPI PUSH1 0x20 DUP3 ADD DUP2 DUP1 CALLDATASIZE DUP4 CALLDATACOPY ADD SWAP1 POP JUMPDEST POP SWAP1 POP JUMPDEST DUP5 ISZERO PUSH2 0x122D JUMPI PUSH2 0x12DD PUSH1 0x1 DUP4 PUSH2 0x19AA JUMP JUMPDEST SWAP2 POP PUSH2 0x12EA PUSH1 0xA DUP7 PUSH2 0x1A5C JUMP JUMPDEST PUSH2 0x12F5 SWAP1 PUSH1 0x30 PUSH2 0x1992 JUMP JUMPDEST PUSH1 0xF8 SHL DUP2 DUP4 DUP2 MLOAD DUP2 LT PUSH2 0x130A JUMPI PUSH2 0x130A PUSH2 0x1A70 JUMP JUMPDEST PUSH1 0x20 ADD ADD SWAP1 PUSH1 0x1 PUSH1 0x1 PUSH1 0xF8 SHL SUB NOT AND SWAP1 DUP2 PUSH1 0x0 BYTE SWAP1 MSTORE8 POP PUSH2 0x132C PUSH1 0xA DUP7 PUSH2 0x1A48 JUMP JUMPDEST SWAP5 POP PUSH2 0x12CC JUMP JUMPDEST PUSH1 0x0 SLOAD PUSH1 0x1 PUSH1 0x1 PUSH1 0xA0 SHL SUB DUP5 AND PUSH2 0x1396 JUMPI PUSH1 0x40 MLOAD PUSH3 0x461BCD PUSH1 0xE5 SHL DUP2 MSTORE PUSH1 0x20 PUSH1 0x4 DUP3 ADD MSTORE PUSH1 0x21 PUSH1 0x24 DUP3 ADD MSTORE PUSH32 0x455243373231413A206D696E7420746F20746865207A65726F20616464726573 PUSH1 0x44 DUP3 ADD MSTORE PUSH1 0x73 PUSH1 0xF8 SHL PUSH1 0x64 DUP3 ADD MSTORE PUSH1 0x84 ADD PUSH2 0x4D8 JUMP JUMPDEST PUSH2 0x13A1 DUP2 PUSH1 0x0 SLOAD GT SWAP1 JUMP JUMPDEST ISZERO PUSH2 0x13EE JUMPI PUSH1 0x40 MLOAD PUSH3 0x461BCD PUSH1 0xE5 SHL DUP2 MSTORE PUSH1 0x20 PUSH1 0x4 DUP3 ADD MSTORE PUSH1 0x1D PUSH1 0x24 DUP3 ADD MSTORE PUSH32 0x455243373231413A20746F6B656E20616C7265616479206D696E746564000000 PUSH1 0x44 DUP3 ADD MSTORE PUSH1 0x64 ADD PUSH2 0x4D8 JUMP JUMPDEST PUSH1 0x0 DUP4 GT PUSH2 0x144A JUMPI PUSH1 0x40 MLOAD PUSH3 0x461BCD PUSH1 0xE5 SHL DUP2 MSTORE PUSH1 0x20 PUSH1 0x4 DUP3 ADD MSTORE PUSH1 0x23 PUSH1 0x24 DUP3 ADD MSTORE PUSH32 0x455243373231413A207175616E74697479206D75737420626520677265617465 PUSH1 0x44 DUP3 ADD MSTORE PUSH3 0x72203 PUSH1 0xEC SHL PUSH1 0x64 DUP3 ADD MSTORE PUSH1 0x84 ADD PUSH2 0x4D8 JUMP JUMPDEST PUSH1 0x1 PUSH1 0x1 PUSH1 0xA0 SHL SUB DUP5 AND PUSH1 0x0 SWAP1 DUP2 MSTORE PUSH1 0x4 PUSH1 0x20 SWAP1 DUP2 MSTORE PUSH1 0x40 SWAP2 DUP3 SWAP1 KECCAK256 DUP3 MLOAD DUP1 DUP5 ADD DUP5 MSTORE SWAP1 SLOAD PUSH1 0x1 PUSH1 0x1 PUSH1 0x80 SHL SUB DUP1 DUP3 AND DUP4 MSTORE PUSH1 0x1 PUSH1 0x80 SHL SWAP1 SWAP2 DIV AND SWAP2 DUP2 ADD SWAP2 SWAP1 SWAP2 MSTORE DUP2 MLOAD DUP1 DUP4 ADD SWAP1 SWAP3 MSTORE DUP1 MLOAD SWAP1 SWAP2 SWAP1 DUP2 SWAP1 PUSH2 0x14A6 SWAP1 DUP8 SWAP1 PUSH2 0x1A86 JUMP JUMPDEST PUSH1 0x1 PUSH1 0x1 PUSH1 0x80 SHL SUB AND DUP2 MSTORE PUSH1 0x20 ADD DUP6 DUP4 PUSH1 0x20 ADD MLOAD PUSH2 0x14C4 SWAP2 SWAP1 PUSH2 0x1A86 JUMP JUMPDEST PUSH1 0x1 PUSH1 0x1 PUSH1 0x80 SHL SUB SWAP1 DUP2 AND SWAP1 SWAP2 MSTORE PUSH1 0x1 PUSH1 0x1 PUSH1 0xA0 SHL SUB DUP1 DUP9 AND PUSH1 0x0 DUP2 DUP2 MSTORE PUSH1 0x4 PUSH1 0x20 SWAP1 DUP2 MSTORE PUSH1 0x40 DUP1 DUP4 KECCAK256 DUP8 MLOAD SWAP8 DUP4 ADD MLOAD DUP8 AND PUSH1 0x1 PUSH1 0x80 SHL MUL SWAP8 SWAP1 SWAP7 AND SWAP7 SWAP1 SWAP7 OR SWAP1 SWAP5 SSTORE DUP5 MLOAD DUP1 DUP7 ADD DUP7 MSTORE SWAP2 DUP3 MSTORE PUSH8 0xFFFFFFFFFFFFFFFF TIMESTAMP DUP2 AND DUP4 DUP7 ADD SWAP1 DUP2 MSTORE DUP9 DUP4 MSTORE PUSH1 0x3 SWAP1 SWAP6 MSTORE SWAP5 DUP2 KECCAK256 SWAP2 MLOAD DUP3 SLOAD SWAP5 MLOAD SWAP1 SWAP6 AND PUSH1 0x1 PUSH1 0xA0 SHL MUL PUSH1 0x1 PUSH1 0x1 PUSH1 0xE0 SHL SUB NOT SWAP1 SWAP5 AND SWAP5 SWAP1 SWAP3 AND SWAP4 SWAP1 SWAP4 OR SWAP2 SWAP1 SWAP2 OR SWAP1 SWAP2 SSTORE DUP3 SWAP1 JUMPDEST DUP6 DUP2 LT ISZERO PUSH2 0x15E4 JUMPI PUSH1 0x40 MLOAD DUP3 SWAP1 PUSH1 0x1 PUSH1 0x1 PUSH1 0xA0 SHL SUB DUP10 AND SWAP1 PUSH1 0x0 SWAP1 PUSH32 0xDDF252AD1BE2C89B69C2B068FC378DAA952BA7F163C4A11628F55A4DF523B3EF SWAP1 DUP3 SWAP1 LOG4 PUSH2 0x15A8 PUSH1 0x0 DUP9 DUP5 DUP9 PUSH2 0x1136 JUMP JUMPDEST PUSH2 0x15C4 JUMPI PUSH1 0x40 MLOAD PUSH3 0x461BCD PUSH1 0xE5 SHL DUP2 MSTORE PUSH1 0x4 ADD PUSH2 0x4D8 SWAP1 PUSH2 0x1910 JUMP JUMPDEST DUP2 PUSH2 0x15CE DUP2 PUSH2 0x18F5 JUMP JUMPDEST SWAP3 POP POP DUP1 DUP1 PUSH2 0x15DC SWAP1 PUSH2 0x18F5 JUMP JUMPDEST SWAP2 POP POP PUSH2 0x155B JUMP JUMPDEST POP PUSH1 0x0 DUP2 SWAP1 SSTORE PUSH2 0xE4A JUMP JUMPDEST PUSH1 0x1 PUSH1 0x1 PUSH1 0xE0 SHL SUB NOT DUP2 AND DUP2 EQ PUSH2 0x629 JUMPI PUSH1 0x0 DUP1 REVERT JUMPDEST PUSH1 0x0 PUSH1 0x20 DUP3 DUP5 SUB SLT ISZERO PUSH2 0x1617 JUMPI PUSH1 0x0 DUP1 REVERT JUMPDEST DUP2 CALLDATALOAD PUSH2 0xAA8 DUP2 PUSH2 0x15EF JUMP JUMPDEST PUSH1 0x0 JUMPDEST DUP4 DUP2 LT ISZERO PUSH2 0x163D JUMPI DUP2 DUP2 ADD MLOAD DUP4 DUP3 ADD MSTORE PUSH1 0x20 ADD PUSH2 0x1625 JUMP JUMPDEST DUP4 DUP2 GT ISZERO PUSH2 0x9CF JUMPI POP POP PUSH1 0x0 SWAP2 ADD MSTORE JUMP JUMPDEST PUSH1 0x0 DUP2 MLOAD DUP1 DUP5 MSTORE PUSH2 0x1666 DUP2 PUSH1 0x20 DUP7 ADD PUSH1 0x20 DUP7 ADD PUSH2 0x1622 JUMP JUMPDEST PUSH1 0x1F ADD PUSH1 0x1F NOT AND SWAP3 SWAP1 SWAP3 ADD PUSH1 0x20 ADD SWAP3 SWAP2 POP POP JUMP JUMPDEST PUSH1 0x20 DUP2 MSTORE PUSH1 0x0 PUSH2 0xAA8 PUSH1 0x20 DUP4 ADD DUP5 PUSH2 0x164E JUMP JUMPDEST PUSH1 0x0 PUSH1 0x20 DUP3 DUP5 SUB SLT ISZERO PUSH2 0x169F JUMPI PUSH1 0x0 DUP1 REVERT JUMPDEST POP CALLDATALOAD SWAP2 SWAP1 POP JUMP JUMPDEST DUP1 CALLDATALOAD PUSH1 0x1 PUSH1 0x1 PUSH1 0xA0 SHL SUB DUP2 AND DUP2 EQ PUSH2 0x16BD JUMPI PUSH1 0x0 DUP1 REVERT JUMPDEST SWAP2 SWAP1 POP JUMP JUMPDEST PUSH1 0x0 DUP1 PUSH1 0x40 DUP4 DUP6 SUB SLT ISZERO PUSH2 0x16D5 JUMPI PUSH1 0x0 DUP1 REVERT JUMPDEST PUSH2 0x16DE DUP4 PUSH2 0x16A6 JUMP JUMPDEST SWAP5 PUSH1 0x20 SWAP4 SWAP1 SWAP4 ADD CALLDATALOAD SWAP4 POP POP POP JUMP JUMPDEST PUSH1 0x0 DUP1 PUSH1 0x0 PUSH1 0x60 DUP5 DUP7 SUB SLT ISZERO PUSH2 0x1701 JUMPI PUSH1 0x0 DUP1 REVERT JUMPDEST PUSH2 0x170A DUP5 PUSH2 0x16A6 JUMP JUMPDEST SWAP3 POP PUSH2 0x1718 PUSH1 0x20 DUP6 ADD PUSH2 0x16A6 JUMP JUMPDEST SWAP2 POP PUSH1 0x40 DUP5 ADD CALLDATALOAD SWAP1 POP SWAP3 POP SWAP3 POP SWAP3 JUMP JUMPDEST PUSH1 0x0 PUSH1 0x20 DUP3 DUP5 SUB SLT ISZERO PUSH2 0x173A JUMPI PUSH1 0x0 DUP1 REVERT JUMPDEST PUSH2 0xAA8 DUP3 PUSH2 0x16A6 JUMP JUMPDEST PUSH1 0x0 DUP1 PUSH1 0x40 DUP4 DUP6 SUB SLT ISZERO PUSH2 0x1756 JUMPI PUSH1 0x0 DUP1 REVERT JUMPDEST PUSH2 0x175F DUP4 PUSH2 0x16A6 JUMP JUMPDEST SWAP2 POP PUSH1 0x20 DUP4 ADD CALLDATALOAD DUP1 ISZERO ISZERO DUP2 EQ PUSH2 0x1774 JUMPI PUSH1 0x0 DUP1 REVERT JUMPDEST DUP1 SWAP2 POP POP SWAP3 POP SWAP3 SWAP1 POP JUMP JUMPDEST PUSH4 0x4E487B71 PUSH1 0xE0 SHL PUSH1 0x0 MSTORE PUSH1 0x41 PUSH1 0x4 MSTORE PUSH1 0x24 PUSH1 0x0 REVERT JUMPDEST PUSH1 0x0 DUP1 PUSH1 0x0 DUP1 PUSH1 0x80 DUP6 DUP8 SUB SLT ISZERO PUSH2 0x17AB JUMPI PUSH1 0x0 DUP1 REVERT JUMPDEST PUSH2 0x17B4 DUP6 PUSH2 0x16A6 JUMP JUMPDEST SWAP4 POP PUSH2 0x17C2 PUSH1 0x20 DUP7 ADD PUSH2 0x16A6 JUMP JUMPDEST SWAP3 POP PUSH1 0x40 DUP6 ADD CALLDATALOAD SWAP2 POP PUSH1 0x60 DUP6 ADD CALLDATALOAD PUSH8 0xFFFFFFFFFFFFFFFF DUP1 DUP3 GT ISZERO PUSH2 0x17E6 JUMPI PUSH1 0x0 DUP1 REVERT JUMPDEST DUP2 DUP8 ADD SWAP2 POP DUP8 PUSH1 0x1F DUP4 ADD SLT PUSH2 0x17FA JUMPI PUSH1 0x0 DUP1 REVERT JUMPDEST DUP2 CALLDATALOAD DUP2 DUP2 GT ISZERO PUSH2 0x180C JUMPI PUSH2 0x180C PUSH2 0x177F JUMP JUMPDEST PUSH1 0x40 MLOAD PUSH1 0x1F DUP3 ADD PUSH1 0x1F NOT SWAP1 DUP2 AND PUSH1 0x3F ADD AND DUP2 ADD SWAP1 DUP4 DUP3 GT DUP2 DUP4 LT OR ISZERO PUSH2 0x1834 JUMPI PUSH2 0x1834 PUSH2 0x177F JUMP JUMPDEST DUP2 PUSH1 0x40 MSTORE DUP3 DUP2 MSTORE DUP11 PUSH1 0x20 DUP5 DUP8 ADD ADD GT ISZERO PUSH2 0x184D JUMPI PUSH1 0x0 DUP1 REVERT JUMPDEST DUP3 PUSH1 0x20 DUP7 ADD PUSH1 0x20 DUP4 ADD CALLDATACOPY PUSH1 0x0 PUSH1 0x20 DUP5 DUP4 ADD ADD MSTORE DUP1 SWAP6 POP POP POP POP POP POP SWAP3 SWAP6 SWAP2 SWAP5 POP SWAP3 POP JUMP JUMPDEST PUSH1 0x0 DUP1 PUSH1 0x40 DUP4 DUP6 SUB SLT ISZERO PUSH2 0x1884 JUMPI PUSH1 0x0 DUP1 REVERT JUMPDEST PUSH2 0x188D DUP4 PUSH2 0x16A6 JUMP JUMPDEST SWAP2 POP PUSH2 0x189B PUSH1 0x20 DUP5 ADD PUSH2 0x16A6 JUMP JUMPDEST SWAP1 POP SWAP3 POP SWAP3 SWAP1 POP JUMP JUMPDEST PUSH1 0x1 DUP2 DUP2 SHR SWAP1 DUP3 AND DUP1 PUSH2 0x18B8 JUMPI PUSH1 0x7F DUP3 AND SWAP2 POP JUMPDEST PUSH1 0x20 DUP3 LT DUP2 EQ ISZERO PUSH2 0x18D9 JUMPI PUSH4 0x4E487B71 PUSH1 0xE0 SHL PUSH1 0x0 MSTORE PUSH1 0x22 PUSH1 0x4 MSTORE PUSH1 0x24 PUSH1 0x0 REVERT JUMPDEST POP SWAP2 SWAP1 POP JUMP JUMPDEST PUSH4 0x4E487B71 PUSH1 0xE0 SHL PUSH1 0x0 MSTORE PUSH1 0x11 PUSH1 0x4 MSTORE PUSH1 0x24 PUSH1 0x0 REVERT JUMPDEST PUSH1 0x0 PUSH1 0x0 NOT DUP3 EQ ISZERO PUSH2 0x1909 JUMPI PUSH2 0x1909 PUSH2 0x18DF JUMP JUMPDEST POP PUSH1 0x1 ADD SWAP1 JUMP JUMPDEST PUSH1 0x20 DUP1 DUP3 MSTORE PUSH1 0x33 SWAP1 DUP3 ADD MSTORE PUSH32 0x455243373231413A207472616E7366657220746F206E6F6E2045524337323152 PUSH1 0x40 DUP3 ADD MSTORE PUSH19 0x32B1B2B4BB32B91034B6B83632B6B2B73A32B9 PUSH1 0x69 SHL PUSH1 0x60 DUP3 ADD MSTORE PUSH1 0x80 ADD SWAP1 JUMP JUMPDEST PUSH1 0x0 DUP4 MLOAD PUSH2 0x1975 DUP2 DUP5 PUSH1 0x20 DUP9 ADD PUSH2 0x1622 JUMP JUMPDEST DUP4 MLOAD SWAP1 DUP4 ADD SWAP1 PUSH2 0x1989 DUP2 DUP4 PUSH1 0x20 DUP9 ADD PUSH2 0x1622 JUMP JUMPDEST ADD SWAP5 SWAP4 POP POP POP POP JUMP JUMPDEST PUSH1 0x0 DUP3 NOT DUP3 GT ISZERO PUSH2 0x19A5 JUMPI PUSH2 0x19A5 PUSH2 0x18DF JUMP JUMPDEST POP ADD SWAP1 JUMP JUMPDEST PUSH1 0x0 DUP3 DUP3 LT ISZERO PUSH2 0x19BC JUMPI PUSH2 0x19BC PUSH2 0x18DF JUMP JUMPDEST POP SUB SWAP1 JUMP JUMPDEST PUSH1 0x0 DUP2 PUSH2 0x19D0 JUMPI PUSH2 0x19D0 PUSH2 0x18DF JUMP JUMPDEST POP PUSH1 0x0 NOT ADD SWAP1 JUMP JUMPDEST PUSH1 0x1 PUSH1 0x1 PUSH1 0xA0 SHL SUB DUP6 DUP2 AND DUP3 MSTORE DUP5 AND PUSH1 0x20 DUP3 ADD MSTORE PUSH1 0x40 DUP2 ADD DUP4 SWAP1 MSTORE PUSH1 0x80 PUSH1 0x60 DUP3 ADD DUP2 SWAP1 MSTORE PUSH1 0x0 SWAP1 PUSH2 0x1A0B SWAP1 DUP4 ADD DUP5 PUSH2 0x164E JUMP JUMPDEST SWAP7 SWAP6 POP POP POP POP POP POP JUMP JUMPDEST PUSH1 0x0 PUSH1 0x20 DUP3 DUP5 SUB SLT ISZERO PUSH2 0x1A27 JUMPI PUSH1 0x0 DUP1 REVERT JUMPDEST DUP2 MLOAD PUSH2 0xAA8 DUP2 PUSH2 0x15EF JUMP JUMPDEST PUSH4 0x4E487B71 PUSH1 0xE0 SHL PUSH1 0x0 MSTORE PUSH1 0x12 PUSH1 0x4 MSTORE PUSH1 0x24 PUSH1 0x0 REVERT JUMPDEST PUSH1 0x0 DUP3 PUSH2 0x1A57 JUMPI PUSH2 0x1A57 PUSH2 0x1A32 JUMP JUMPDEST POP DIV SWAP1 JUMP JUMPDEST PUSH1 0x0 DUP3 PUSH2 0x1A6B JUMPI PUSH2 0x1A6B PUSH2 0x1A32 JUMP JUMPDEST POP MOD SWAP1 JUMP JUMPDEST PUSH4 0x4E487B71 PUSH1 0xE0 SHL PUSH1 0x0 MSTORE PUSH1 0x32 PUSH1 0x4 MSTORE PUSH1 0x24 PUSH1 0x0 REVERT JUMPDEST PUSH1 0x0 PUSH1 0x1 PUSH1 0x1 PUSH1 0x80 SHL SUB DUP1 DUP4 AND DUP2 DUP6 AND DUP1 DUP4 SUB DUP3 GT ISZERO PUSH2 0x1989 JUMPI PUSH2 0x1989 PUSH2 0x18DF JUMP INVALID LOG2 PUSH5 0x6970667358 0x22 SLT KECCAK256 0xD6 0x2A 0xD6 0x26 DUP4 DUP8 0xC SWAP14 0x1E 0xF8 0xEE PUSH32 0x2DEC21C24FA8E3E2AA112F63F9F2727316A94CD764736F6C634300080B003300 ",
  "sha1": "b11384e83308abb5b76083e2613b47659b64dceb",
  "source": "// SPDX-License-Identifier: MIT\n// Creators: Chiru Labs\n\npragma solidity ^0.8.0;\n\nimport '../extensions/ERC721AOwnersExplicit.sol';\n\ncontract ERC721AOwnersExplicitMock is ERC721AOwnersExplicit {\n    constructor(string memory name_, string memory symbol_) ERC721A(name_, symbol_) {}\n\n    function safeMint(address to, uint256 quantity) public {\n        _safeMint(to, quantity);\n    }\n\n    function setOwnersExplicit(uint256 quantity) public {\n        _setOwnersExplicit(quantity);\n    }\n\n    function getOwnershipAt(uint256 index) public view returns (TokenOwnership memory) {\n        return _ownerships[index];\n    }\n}\n",
  "sourcePath": "contracts/mocks/ERC721AExplicitOwnershipMock.sol",
  "type": "contract"
}